:020000040800F2
:10000000C80C002015020008C1280008671D000860
:1000100061270008450800080540000800000000AE
:10002000000000000000000000000000353400085F
:10003000450D000800000000792D000891380008E7
:100040002F0200082F0200082F0200082F020008CC
:100050002F0200082F0200082F0200082F020008BC
:100060002F02000895100008E51000082F02000874
:100070002F0200082F0200082F0200082F0200089C
:100080002F0200082F0200082F0200082F0200088C
:100090008D3F00082F0200082F0200082F020008E1
:1000A0002F0200082F0200082F0200082F0200086C
:1000B000F53800080D390008253900082F0200081E
:1000C0002F0200082F0200082F0200082F0200084C
:1000D0002F0200082F020008193C0008D13E00083A
:1000E000850D00082F0200082F0200082F020008CB
:1000F0002F0200082F0200082F0200082F0200081C
:100100002F0200082F0200083D3900082F020008C6
:100110002F0200082F0200082F0200082F020008FB
:100120002F0200082F0200082F0200082F020008EB
:1001300000F002F800F05FF80AA090E8000C82449A
:100140008344AAF10107DA4501D100F054F8AFF277
:10015000090EBAE80F0013F0010F18BFFB1A43F0A5
:10016000010318477CAC00009CAC00000A444FF02F
:10017000000C10F8013B13F0070408BF10F8014B06
:100180001D1108BF10F8015B641E05D010F8016B4B
:10019000641E01F8016BF9D113F0080F1EBF10F8AF
:1001A000014BAD1C0C1B09D16D1E58BF01F801CBD2
:1001B000FAD505E014F8016B01F8016B6D1EF9D555
:1001C0009142D6D37047000000230024002500266A
:1001D000103A28BF78C1FBD8520728BF30C148BFAA
:1001E0000B607047642900F09B80002070471FB5AA
:1001F0001FBD10B510BD00F063FA1146FFF7F7FF01
:1002000005F0DEFD00F081FA03B4FFF7F2FF03BC56
:1002100004F00AF80948804709480047FEE7FEE76E
:10022000FEE7FEE7FEE7FEE7FEE7FEE7FEE7FEE7A6
:1002300004480549054A064B7047000095380008F8
:1002400031010008C8060020C80C0020C8080020A2
:10025000C8080020704710B54C1084EA530404D538
:100260004042C1F1000138BF491E1B4204D5524231
:10027000C3F1000338BF5B1E00F0E8F814F0804FB4
:1002800004D04042C1F1000138BF491E14F0004FB4
:1002900004D05242C3F1000338BF5B1E10BD000002
:1002A0000FB4044910B503AA029800F0ABF910BCD2
:1002B0005DF814FBD80000202DE9F0410E460446FD
:1002C000002020622046E168884730B3252805D009
:1002D000D4E901219047206A401CF2E7E1682046FA
:1002E00000278847050018D0A5F14100192802D839
:1002F00020354FF400673246294620462760FFF735
:1003000071FF40B1012804D0F61D26F0070608361B
:10031000D8E7361DD6E72846DAE7206ABDE8F0813F
:100320002DE9F0410646002410687529314616A5CE
:1003300010D0AFF30080002802DA404213A507E096
:1003400031688A0701D512A502E0490704D511A535
:10035000012401E0AFF3008000210A2206F1240706
:1003600009E0B0FBF2FCB0FBF2F302FB1C00303002
:1003700078541846491C0028F3D123462A463046B3
:10038000BDE8F04100F0E4B8000000002D000000DE
:100390002B0000002000000040EA010310B59B077D
:1003A0000FD1042A0DD310C808C9121F9C42F8D0DF
:1003B00020BA19BA884201D9012010BD4FF0FF3090
:1003C00010BD1AB1D30703D0521C07E0002010BDA6
:1003D00010F8013B11F8014B1B1B07D110F8013B32
:1003E00011F8014B1B1B01D1921EF1D1184610BD13
:1003F00002F0FF0343EA032242EA024200F002B89D
:100400004FF000020429C0F0128010F0030C00F03D
:100410000D81CCF1040CBCF1020F18BF00F8012BC8
:10042000A8BF20F8022BA1EB0C0100F0FFB85FEA97
:10043000C17C24BF00F8012B00F8012B48BF00F855
:10044000012B7047704770477047704753EA020CA2
:1004500000F069802DE9F04B4FF00006002B1FBF24
:10046000B3FA83F503FA05F424FA05F65E4012BFE9
:100470001643B2FA82F502FA05F4C5F120051EBF53
:1004800022FA05FC44EA0C04203556EA044C4FEAF3
:10049000144418BF641C4FF000084FF0000990424C
:1004A00071EB030C39D3002919BFB1FA81F701FAB6
:1004B00007F6B0FA80F700FA07F6C7F120071EBF6B
:1004C00020FA07FC46EA0C062037B6FBF4FCA7EB43
:1004D0000507103F07F01F0BCBF120060CFA0BFBB2
:1004E0002CFA06F644BFB3460026202FA4BF5E4672
:1004F0004FF0000B5BEA060C08BF4FF0010B19EB45
:100500000B09ABFB027C48EB0608C01B06FB02CCC8
:100510000BFB03CC71EB0C01C1E70B4602464146D5
:100520004846BDE8F08B13B54FF000004FF00001D6
:10053000AFF30080BDE81C40704710B500F09CF898
:10054000006810BD10B5044600F096F8046010BDB8
:100550002DE9F0470D4699469246044600F12408DD
:100560000168880604D5E06921F01001216000E0EF
:100570000120A84201DD471B00E00027A1697A198C
:1005800002EB0900081AA0612078C00602D42046B8
:10059000AFF30080002608E0D4E901211AF8060034
:1005A0009047206A401C761C20624E45F4DB207880
:1005B000C0060AD52046AFF3008006E0D4E9012149
:1005C00030209047206A401C2062381EA7F10107A6
:1005D000F4DC07E0D4E9012118F805009047206A0F
:1005E000401C2062281EA5F10105F3DC2046AFF374
:1005F00000802078000602D50220BDE8F0870120A7
:10060000FBE70000074B70B50D467B4400F03DF85A
:100610000446284600F04CF810B14FF0FF3070BD92
:10062000204670BD175000004FF0000200B5134681
:1006300094469646203922BFA0E80C50A0E80C5002
:10064000B1F12001BFF4F7AF090728BFA0E80C50B3
:1006500048BF0CC05DF804EB890028BF40F8042BAC
:1006600008BF704748BF20F8022B11F0804F18BF19
:1006700000F8012B70470000004870476806002012
:1006800001694A1C02610878704700B58FB0CDE956
:1006900001310021059105497944CDE90310114646
:1006A0006846FFF709FE0FB000BD0000E5FFFFFF41
:1006B000007B00F08000704700487047680600200B
:1006C0007546FFF7F9FFAE4605006946534620F030
:1006D0000700854618B020B5FFF7AAFDBDE8204009
:1006E0004FF000064FF000074FF000084FF0000BEE
:1006F00021F00701AC46ACE8C009ACE8C009ACE8A1
:10070000C009ACE8C0098D4670470446AFF30080CD
:100710002046FFF779FD00004648806940F004005C
:10072000444988614448006820F4700042490860E8
:100730004048806940F400703E4988610846C068BE
:1007400040F40070C8600846C06820F40070C860BB
:100750000846406820F4404048600846406840F43D
:100760000040486035480068354908403349086012
:100770000846006808600846006820F48070086039
:10078000081D006820F00200091D08600846006886
:1007900020F4602008600846006840F4602008608B
:1007A0000846006840F4801008600846006820F49D
:1007B0000060086021482830006820F470001F495C
:1007C0002831086008460068002008601B480C308B
:1007D000006820F4700019490C3108600846006870
:1007E00040F4603008601548001D006840F00100CA
:1007F0001249091D08600846006840F008000860BA
:1008000000BF0E48001D006800F008000028F8D165
:100810000A48001D006840F004000849091D0860EE
:1008200000BF0648001D006800F004000028F8D151
:1008300070470000001002400008014004240140FD
:10084000FFFFF00000BFFEE7F0B5DDE90554324ED2
:1008500006EB0016366806F004061670167836B9F0
:100860002D4E06EB00163668760D0E6005E02A4E1A
:1008700006EB00163668F6080E60274E06EB0016EB
:10088000366806F002061E70234E06EB00167668E8
:1008900006F00F062E70204E06EB0016B668267086
:1008A0001D4E06EB0016B668360A66701A4E06EB49
:1008B0000016B668360CA670174E06EB0016B66822
:1008C000360EE670144E06EB0016F6682671124ED0
:1008D00006EB0016F668360A66710F4E06EB001638
:1008E000F668360CA6710C4E06EB0016F668360E4E
:1008F000E67130B9094E366846F02006074F3E6073
:1009000009E0012807D1054E361D366846F020065D
:10091000024F3F1D3E60F0BDB06500400C640040DA
:100920002DE9F0416E480078002870D16D480078BC
:10093000012846D16B48C07900F0040008B90124B1
:1009400001E04FF0FF346748C07900F0020008B9B9
:10095000012501E04FF0FF356248C07900F0010049
:1009600008B9012601E04FF0FF365E498A784978E0
:1009700002EB012101FB04F008F0A0FB5A490860DA
:1009800058490A79C97802EB012101FB05F008F00A
:1009900095FB5649086053498A79497902EB012150
:1009A00001FB06F008F08AFB51490860084602681E
:1009B0004E4801684C48006801F050FD00204D4948
:1009C000086048480078022838D14648C07900F0CD
:1009D000080008B9012401E04FF0FF344148C07914
:1009E00000F0040008B9012501E04FF0FF353D4853
:1009F000C07900F0020008B9012601E04FF0FF368F
:100A00003848C07900F0010010B9012702E016E073
:100A10004FF0FF373348407860433749086031482A
:100A200080786843354908602E48C078704334495F
:100A300008602C4800797843324908604EE0284825
:100A4000007801284AD127480078012846D1254856
:100A5000C07900F0040008B9012401E04FF0FF3430
:100A60002048C07900F0020008B9012501E04FF0EC
:100A7000FF351C48C07900F0010008B9012601E0EB
:100A80004FF0FF3617498A78497802EB012101FBC4
:100A900004F008F013FB1449086012490A79C97878
:100AA00002EB012101FB05F008F008FB0F4908608B
:100AB0000C498A79497902EB012101FB06F008F023
:100AC000FDFA0B49086008460268084801680648B4
:100AD000006801F0C3FC002006490860BDE8F08111
:100AE0006E0000206F000020A4000020A80000205D
:100AF000AC000020540100205400002058000020C9
:100B00005C0000206000002008B50121082002F0F0
:100B1000EDFA1420ADF8000028208DF80300032022
:100B20008DF802006946024800F0AAFE08BD0000E8
:100B3000000C014038B5002000906B460122752161
:100B4000682005F097F82CA0FFF7AAFB9DF800009D
:100B500068280ED000BF3148006800F4E0603049DA
:100B60000843001D2D490860BFF3408F00BF00BF40
:100B7000FEE705F093FA00283CD1782006F098F8BB
:100B800010B91DA0FFF78CFB782005F075F910B99E
:100B900024A0FFF785FBC82006F03CF810B92BA075
:100BA000FFF77EFB04F0DAF810B932A0FFF778FB0C
:100BB0003D4805F0CAF8044604F02AFB10B93BA0F2
:100BC000FFF76EFB40F2731003F070FF10B941A005
:100BD000FFF766FBC82004F04BFA10B947A0FFF7F7
:100BE0005FFB07F03DF9012005F010FF10B94CA0A4
:100BF000FFF756FB38BD00006D70755F7365745F5D
:100C000073656E736F7220636F6D706C65746520B1
:100C10002E2E2E2E2E2E0D0A000000000CED00E0D0
:100C20000000FA056D70755F636F6E6669677572B7
:100C3000655F6669666F20636F6D706C65746520B3
:100C40002E2E2E2E2E2E0D0A000000006D70755FC8
:100C50007365745F73616D706C655F72617465203C
:100C6000636F6D706C657465202E2E2E2E2E2E0DEA
:100C70000A000000646D705F6C6F61645F6D6F747B
:100C8000696F6E5F6472697665725F6669726D77AF
:100C900061726520636F6D706C657465202E2E2EF9
:100CA0002E2E2E0D0A0000000C010020646D705FD6
:100CB0007365745F6F7269656E746174696F6E20BD
:100CC000636F6D706C657465202E2E2E2E2E2E0D8A
:100CD0000A000000646D705F656E61626C655F663E
:100CE00065617475726520636F6D706C65746520E5
:100CF0002E2E2E2E2E2E0D0A00000000646D705F29
:100D00007365745F6669666F5F7261746520636F97
:100D10006D706C657465202E2E2E2E2E2E0D0A0001
:100D20006D70755F7365745F646D705F737461740B
:100D30006520636F6D706C657465202E2E2E2E2ECF
:100D40002E0D0A007047000008B50121102002F0A6
:100D5000CDF94FF40040ADF8000048208DF80300B5
:100D600003208DF802006946054800F089FD4FF424
:100D70008040ADF800006946014800F081FD08BDE3
:100D8000000C014070B5A048006800287DD14FF4E8
:100D900000409E4908609E48007808B9012000E0A4
:100DA00000209B4908709B480078012804D19A488C
:100DB0000068401C9849086095480078012810D1C7
:100DC0009648007848B996480078012805D195489A
:100DD00095490A6802604968416002F0A5F900205F
:100DE00070BD022002F0CEFA904908609048006879
:100DF000096808448E490860032002F0C3FA8D494F
:100E000008608D480068096808448B490860042020
:100E100002F0B8FA404289490860894800680968C8
:100E2000084487490860052002F0ACFA4042854931
:100E3000086085480068096808448349086002F032
:100E400073F9642001F094FB00F048FF054608F0B8
:100E500035F904467D480168204607F08FFF7B493D
:100E600008604FF07E517A48006807F087FF7849A4
:100E700004460860774908F0B1F810D17549734805
:100E8000006807F0E9FF044600E0A1E008F0DAF8A6
:100E90007149086000206D4908606D4908606F481D
:100EA0000078012803D05E480078012801D1FFF7BF
:100EB00037FD6B480068002806DD694800680F2888
:100EC00002DA0F20664908606348006802F080FE7D
:100ED00000287DD16348007800BB6348016853480F
:100EE000006801F04BF961490860614801685148A8
:100EF000006801F099F95F4908605F4801684F4850
:100F0000006801F0E7F95D4908605D4801684D48F7
:100F1000006801F035FA5B49086064E04F480078EA
:100F200080B93F48007868B95748007818B95748E1
:100F30000078574908704B48007800F061FD0020A8
:100F400052490860484801683948006801F016FFB6
:100F5000001246490860464801683748006801F0B9
:100F60007BFF001243490860434801683448006829
:100F700001F0E0FF00124149086041480168324831
:100F8000006802F045F800123E49086034480368E2
:100F900002680168006803F079F83448006841424B
:100FA0002248006801F0EAF83049086031480068DA
:100FB00041422048006801F037F92E4908602F4867
:100FC000006841421D48006801F084F92B4900E0A7
:100FD00017E008602B48006841421A48006801F099
:100FE000CFF92849086041F6F42003F00DF82548B0
:100FF0000368224802681F4801681C48006802F024
:101000009DFB0020ECE600003C81214214040140DD
:10101000480100206D0000206001002081000020B8
:10102000800000206F0000207700002010000020CA
:1010300020000020140000202400002018000020C0
:10104000280000201C0000202C000020500100205F
:101050004C0100200000C842640000207F000020F6
:10106000C40000206E000020540000204400002036
:1010700058000020480000205C0000204C000020A8
:101080006000002050000020940000205C0100203F
:101090000A00002010B5082000F052F8E8B108203E
:1010A00000F048F828200D4908700020C870084654
:1010B00001F008FC00231A461946184602F03EFBD0
:1010C0000748007808B102F083FA28200349087025
:1010D0000120C870084601F0F5FB10BDF8010020A2
:1010E0000000002010B5102000F02AF8E8B1102010
:1010F00000F020F828200D4908700020C87008462C
:1011000001F0E0FB00231A461946184602F016FBD0
:101110000748407808B102F019FA282003490870FE
:101120000120C870084601F0CDFB10BDF801002079
:1011300000000020014908607047000014040140CD
:10114000014600200022074B1B6803EA0102054B01
:1011500014331B680B4013B10AB1012000E00020DA
:101160007047000000040140002123498279002AD1
:101170003AD00A46126803689A430B461A600A1D61
:10118000126803689A430B1D1A60027911440A68B9
:1011900003681A430A60184A0832126803689A43BF
:1011A000154B08331A601A1D126803689A43124BD4
:1011B0000C331A604279102A0ED11A1F1268036884
:1011C0001A430D4B08331A601A1D126803681A433C
:1011D000094B0C331A600DE00749427911440A6843
:1011E00003681A430A6005E0027911440A6803683B
:1011F0009A430A6070470000000401401FB51020A8
:10120000ADF80C0048208DF80F0003208DF80E007B
:1012100003A92F4800F034FB0820ADF80C0048204B
:101220008DF80F0003208DF80E0003A9284800F068
:1012300027FB0121042001F059FF4FF4A06001F0C9
:1012400079FB0A208DF8080002208DF809000020A3
:101250008DF80A0001208DF80B0002A801F032FB86
:101260004FF4A06001F066FB09208DF80800022011
:101270008DF8090000208DF80A0001208DF80B0080
:1012800002A801F01FFB0421002000F0D9FA102071
:10129000009000208DF804000C208DF8050001203E
:1012A0008DF806006846FFF75FFF0321002000F07D
:1012B000C7FA0820009000208DF804000C208DF85B
:1012C000050001208DF806006846FFF74DFF1FBDA1
:1012D0000008014010B51248806940F0080010492C
:1012E00088611048006820F070400E490860084688
:1012F000006840F0004008600A480830006840F488
:10130000004008490831086001220F21104600F012
:10131000CDF9022328220121184601F0C7F910BD9A
:1013200000100240040C014010B53748406840F4FA
:101330008070354948603548C06940F00100334944
:10134000C8610846806940F00400886108468069E9
:1013500040F0080088612E48006820F070402C4959
:1013600008600846006840F080400860294800682E
:1013700020F47040274908600846006840F4804027
:1013800008604FF08040808940F001004FF08041BC
:1013900088810846808940F04000888101231C2212
:1013A0000321184601F082F900204FF080410885A2
:1013B0004FF6FF7088850846008820F4407008804A
:1013C0000846008820F0600008800846008B40F046
:1013D000010008830846008B40F4807008830846AB
:1013E000008C20F0020008840846008C20F02000C9
:1013F00008840846008940F00300088108460088F8
:1014000040F00100088010BD0000014000100240C3
:1014100004080140000C014010B53348C06940F099
:1014200002003149C8610846806940F008008861BF
:101430002E48006820F07F402C490860084600686C
:1014400040F0884008602A48008840F001002849A0
:1014500008800846008840F04000088001231D22D3
:101460000321184601F022F9002021491C3108808F
:101470004FF6FF70091D08801D480C38008820F4C5
:1014800040701B490C3908800846008820F0600035
:10149000088017480C30008840F0010014490C31D6
:1014A00008800846008840F4807008801048143096
:1014B000008820F002000E49143108800846008898
:1014C00020F0200008800A48001F008840F0030038
:1014D0000749091F088006480C38008840F00100C1
:1014E00003490C39088010BD00100240000801407B
:1014F0000C04004010B53348C06940F00400314985
:10150000C8610846806940F0080088612E4800687C
:1015100020F07F402C4908600846006840F0884071
:1015200008602A48008840F00100284908800846E1
:10153000008840F04000088001231E220321184645
:1015400001F0B4F8002021491C3108804FF6FF70EB
:10155000091D08801D480C38008820F440701B4984
:101560000C3908800846008820F060000880174881
:101570000C30008840F0010014490C310880084606
:10158000008840F48070088010481430008820F0F3
:1015900002000E49143108800846008820F020001F
:1015A00008800A48001F008840F003000749091F0F
:1015B000088006480C38008840F0010003490C39C7
:1015C000088010BD00100240000C01400C080040D3
:1015D00010B53348C06940F008003149C861084679
:1015E000806940F0040088612E48006820F0FF0008
:1015F0002C4908600846006840F044000860C804B0
:10160000808940F00100C90488810846808940F043
:1016100040008881012332220321184601F046F858
:101620000020214908804FF6FF70091D08801E48E0
:101630002838008820F440701B4928390880084663
:10164000008820F06000088017481038008840F0BB
:1016500001001549103908800846008840F4807060
:10166000088011480838008820F002000E49083927
:1016700008800846008820F0200008800A482038AA
:10168000008840F0030008492039088006482838BF
:10169000008840F0010004492839088010BD00008E
:1016A0000010024000080140280C004070B50446BC
:1016B0000B46CE1701EB9676C6F38700CE1701EBEB
:1016C0009676B610A1EB8606B606350E1C4B9B69C6
:1016D00043F001031A4EB3614FEAB63353F820309A
:1016E0000F26AE40B343174E46F82030334653F82A
:1016F000203004FA05F61E43124B43F82060124BCB
:101700001B6801268E4033430F4E336002F0010305
:1017100043B10D4B0C331B6801268E4033430A4EF8
:101720000C36336002F0020343B1074B08331E68E6
:1017300001238B401E43044B08331E6070BD000024
:1017400000100240080001400004014010B50A22C8
:101750002F49304801F05AFE2D4800884FF6FF719E
:1017600088422DD12A484088884229D1284880883B
:10177000884225D12648C088884221D12448008942
:1017800088421DD122484089884219D12048808949
:10179000884215D11E202049086040F6B8301F4904
:1017A00008601F481F49086000201F4908601F4843
:1017B0001F4908601F48204908602049086025E04B
:1017C000134800881449086011484088134908608C
:1017D0000F49888807F08AFC124908600C49C888BC
:1017E00007F084FC104908600949088907F07EFC6D
:1017F0000F4908600649488907F078FC0E490860DF
:101800000349888907F072FC0C49086010BD00008C
:10181000FC01002000E00008C4000020C8000020F7
:101820000000A041B0000020B400002000004843A8
:10183000B800002000004041BC000020C000002093
:1018400030B500228B071C0F0F2303FA04F20B4B59
:101850008C1053F824309343084C8D1044F82530F5
:1018600023468C1053F824308C07240F00FA04F41C
:101870002343024C8D1044F8253030BD0800014050
:101880002DE9F04102460025002600200023002417
:10189000002791F803C00CF00F0591F803C00CF07D
:1018A000100CBCF1000F03D091F802C04CEA050502
:1018B00091F800C0BCF1000F31D0146800202BE07B
:1018C0004FF0010C0CFA00F3B1F800C00CEA03066B
:1018D0009E4220D183004FF00F0C0CFA03F7BC435B
:1018E00005FA03FC4CEA040491F803C0BCF1280F8C
:1018F00006D14FF0010C0CFA00FCC2F814C00AE04B
:1019000091F803C0BCF1480F05D14FF0010C0CFA5F
:1019100000FCC2F810C0401C0828D1D31460B1F8F4
:1019200000C0BCF1FF0F34DD546800202EE000F150
:10193000080C4FF0010808FA0CF3B1F800C00CEAEB
:1019400003069E4221D183004FF00F0C0CFA03F7DF
:10195000BC4305FA03FC4CEA040491F803C0BCF153
:10196000280F05D100F1080C08FA0CF8C2F8148011
:1019700091F803C0BCF1480F07D100F1080C4FF0FB
:10198000010808FA0CF8C2F81080401C0828CED3D1
:101990005460BDE8F081000000200749096801F4A7
:1019A000004109B9411C88B20349096801F480412A
:1019B00009B9811C88B27047080C014001460F48E4
:1019C000006820F01F000D4A1060104600680843B0
:1019D00010600A482C38006840F48000074A2C3A0E
:1019E000106000BF05483438006800F0020000288D
:1019F000F8D002481830006880B2704734240140A3
:101A00002DE9F04704464FF07C5A4FF00109002CB5
:101A100071D1A748007809286ED2DFE800F07F0571
:101A2000122330414E5F6E000020A24908605146EB
:101A3000A148006807F0A2F99F4908604FF001092A
:101A40008BE051469B48006807F098F99949086077
:101A500051469948006807F091F9974908604FF09E
:101A600001097AE051469348006807F087F99149E7
:101A700008600020904908604FF001096DE0514670
:101A80008C48006807F07AF98A49086051468A480C
:101A9000006807F07BFC884908604FF001095CE0B2
:101AA00000208449086051468348006807F06EFCB6
:101AB000814908604FF001094FE051467D480068B8
:101AC00007F064FC7B49086051467B48006807F0DA
:101AD0005DFC794908604FF001093EE051467548C8
:101AE000006807F053FC73490860002072490860E1
:101AF0004FF0010931E0CFE010E051466D48006839
:101B000007F044FC6B49086051466B48006807F0D9
:101B100035F9694908604FF001091EE04FF00009EE
:101B20006448006807F0FEF80746644A644B06F014
:101B3000FBFB054606F00AFB5E4908605E4800684C
:101B400007F0F0F807465D4A5D4B06F0EDFB0546F1
:101B500006F0FCFA5849086000BF00BFB9F1000F59
:101B600023D15848007801280AD1514656480068C8
:101B700007F00CFC5449086000205449086014E048
:101B80005348007801280AD151464F48006807F0B1
:101B9000F5F84D49086000204C49086005E0002038
:101BA000494908604B4849490860B9F1010F06D11D
:101BB0000020444908704649087043490860464877
:101BC0000068404207F07AFA05463A48016828461C
:101BD00007F0A0FB06D240480068404207F06EFACA
:101BE000344908603C48006807F068FA0546314807
:101BF0000168284607F08EFA05D23748006807F0DA
:101C00005DFA2C49086034480068404207F056FAF3
:101C1000054629480168284607F07CFB06D22E4875
:101C20000068404207F04AFA234908602A480068E1
:101C300007F044FA054620480168284607F06AFA8A
:101C400005D22548006807F039FA1B490860224888
:101C50000068404207F032FA05461B4801682846F2
:101C600007F058FB06D21C480068404207F026FAED
:101C7000154908601848006807F020FA0546124820
:101C80000168284607F046FA07D21348006807F0B3
:101C900015FA0D49086000E000BF0B4802680648CD
:101CA00001680448006800F0D9FBBDE8F087000037
:101CB0000A000020A4000020A8000020CDCCCCCC3D
:101CC000CCCCF03F08000020AC00002054010020E4
:101CD000090000206F12833BC40000202DE9F04F63
:101CE00087B00520FFF76AFE019006F0BBFC804636
:101CF0004FF06632104B06F005FD00220F4BCDE988
:101D0000020106F0FFFC00220D4BCDE9040106F0B4
:101D1000F9FC064600220B4B06F006FB04460022A7
:101D2000094B06F001FB824606F056FC0690069829
:101D300007B0BDE8F08F000066660A40000026404C
:101D4000000059400000F03F0000B04070B504466C
:101D50000D46234622462146204601F045FB2846F3
:101D600002F06EFE70BD00BFFEE770B505460E4680
:101D7000002400F0E9F8284600F0B4F8641C00F0F4
:101D80003BF9304600F0AEF8641C00F035F900F085
:101D9000DBF8691CC8B200F0A5F8641C00F02CF94F
:101DA000002000F067F8044600F002F9204670BDFC
:101DB00010B500200E4908600E48006820F47040FD
:101DC0000C4908600846006840F440500860002054
:101DD0000949C1F8AC01012002F014FE01200449B8
:101DE000086002F00FFE00200349C1F8A80110BDF1
:101DF000A8812142040C01400080214208488069EA
:101E000040F00800064988610648006820F47F40D9
:101E1000044908600846006840F44C500860704768
:101E200000100240040C014010B500200E4908606B
:101E30000E48006820F470400C49086008460068AD
:101E400040F44050086001200949C1F8AC0102F09B
:101E5000D9FD01200449086002F0D4FD00200449A6
:101E6000C1F8A80110BD0000A8812142040C014066
:101E70000080214270B5054600241748006820F410
:101E80007040154908600846006840F4004008604A
:101E9000002616E0002011490860022002F0B2FD81
:101EA00001200F49C1F8A8016006040E0B487C38D8
:101EB000006808B1601CC4B2022002F0A3FD701CCF
:101EC000C6B2082EE6DB15B1FFF772FF01E0FFF79F
:101ED000ABFF204670BD0000040C0140A8812142E8
:101EE0000080214270B504461448006820F4704018
:101EF000124908600846006840F44050086000201D
:101F00000F490860002516E0E0090D49091D086029
:101F10006006040E012002F075FD01200949C1F898
:101F2000A80102F06FFD002005490860012002F0C1
:101F300069FD681CC5B2082DE6DB70BD040C0140CC
:101F4000A88121420080214210B51648006820F483
:101F50007040144908600846006840F4405008602A
:101F60000120114908601148D0F82C0108B900205F
:101F700010BD01200C49091F086002F043FD00203C
:101F80000A49C1F8AC0108488038006808B100204F
:101F9000EEE7012002F036FD00200349091F08602A
:101FA0000120E5E7040C0140AC8121420080214280
:101FB00010B50E48006820F470400C4908600846CF
:101FC000006840F440500860002009490860094951
:101FD000C1F8AC01012002F015FD012004490860A0
:101FE0000449C1F8AC0102F00DFD10BD040C014024
:101FF000A88121420080214210B5002415480068C4
:1020000020F47040134908600846006840F400401E
:10201000086001201049086002F0F4FC01200F491B
:10202000C1F8A80102F0EEFC0AE0601CC4B2322C38
:1020300003DDFFF7BDFF002010BD012002F0E2FC30
:102040000548803800680028EFD10349091F08605F
:102050000120F1E7040C0140AC81214200802142C3
:1020600070B505460E46144631462846FFF77DFEFC
:102070002070012070BDF8B506460F4614461D4677
:102080006A4639463046FFF7EBFF2DB10120A040EC
:102090009DF80010084305E00120A0409DF80010C5
:1020A00021EA0000C0B200909DF800203946304679
:1020B00000F036F8F8BD2DE9F84307468846144687
:1020C0001D46089E6A4641463846FFF7C9FF28B3B9
:1020D000601CFF2101FA00F0C4F108012944491EE7
:1020E000FF220A41104300F0FF09C5F1080006FA7B
:1020F00000F0C6B2C4F1070006419DF8000000EAF6
:10210000090000909DF80000304300909DF80020E9
:102110004146384600F004F8BDE8F8830020FBE7AC
:1021200037B504460D4602AB01222946204600F091
:1021300001F83EBD2DE9F04180460D4616461F468A
:102140000024FFF701FF4046FFF7CCFEFFF754FFE6
:102150002846FFF7C7FEFFF74FFF00BF06E0385DD8
:10216000FFF7C0FEFFF748FF601CC4B2B442F6DBC5
:10217000FFF71EFF0120BDE8F08100002DE9F05FB0
:1021800004460D46601B224908600846006806F0B8
:1021900095FF83461F480168584606F0EFFF8046CA
:1021A0001B4909681C4A1268881A06F087FF834693
:1021B0001A480168584606F0E1FF8146414606F09C
:1021C000DDFD07461648006806F078FF824639466E
:1021D00006F0D4FD064606F035FF114908600846B2
:1021E0000068B0F5E15F02DD4FF4E15008600C4893
:1021F000006810F5E15F02DA0A48094908600448FE
:1022000000680549086006480068BDE8F09F0000C6
:1022100064010020C00000206C010020BC000020F0
:1022200068010020E0E3FFFF2DE9F05F04460D4662
:10223000601B224908600846006806F03FFF83469D
:102240001F480168584606F099FF80461B490968F7
:102250001C4A1268881A06F031FF83461A48016842
:10226000584606F08BFF8146414606F087FD07463B
:102270001648006806F022FF8246394606F07EFDC9
:10228000064606F0DFFE1149086008460068B0F512
:10229000E15F02DD4FF4E15008600C48006810F582
:1022A000E15F02DA0A480949086004480068054904
:1022B000086006480068BDE8F09F0000700100203B
:1022C000C000002078010020BC0000207401002024
:1022D000E0E3FFFF2DE9F05F04460D46601B224955
:1022E00008600846006806F0E9FE83461F4801685A
:1022F000584606F043FF80461B4909681C4A12688D
:10230000881A06F0DBFE83461A480168584606F034
:1023100035FF8146414606F031FD07461648006804
:1023200006F0CCFE8246394606F028FD064606F049
:1023300089FE1149086008460068B0F5E15F02DDDA
:102340004FF4E15008600C48006810F5E15F02DAD4
:102350000A480949086004480068054908600648B9
:102360000068BDE8F09F00007C010020C000002054
:1023700084010020BC00002080010020E0E3FFFF7A
:102380002DE9F05F04460D46601B224908600846AF
:10239000006806F093FE83461F480168584606F021
:1023A000EDFE80461B4909681C4A1268881A06F02F
:1023B00085FE83461A480168584606F0DFFE8146CE
:1023C000414606F0DBFC07461648006806F076FE3C
:1023D0008246394606F0D2FC064606F033FE114925
:1023E000086008460068B0F5E15F02DD4FF4E15097
:1023F00008600C48006810F5E15F02DA0A480949F4
:102400000860044800680549086006480068BDE89F
:10241000F09F000088010020C000002090010020F3
:10242000BC0000208C010020E0E3FFFF01464906CC
:10243000084A926942F00102064B9A61064A5268C4
:1024400022F0E062044B5A601A4652680A435A600E
:102450007047000000100240000001402DE9F047E5
:1024600004460E4615462749284606F087FE824652
:1024700084F000493146484606F080FC80465146CB
:1024800006F084FF074606F0DDFD1F4908601D4980
:10249000284606F073FE80463146204606F06EFC64
:1024A0008146414606F072FF074606F0CBFD17490C
:1024B00008601449284606F061FE824684F000490F
:1024C0003146484606F05AFC8046514606F056FC16
:1024D000074606F0B7FD0E4908600A49284606F08F
:1024E0004DFE80463146204606F048FC8146414676
:1024F00006F044FC074606F0A5FD06490860BDE865
:10250000F08700001058393E540000205800002089
:102510005C000020600000200C48806940F008004A
:102520000A4988610A48006820F470000849086078
:102530000846006840F4401008600548083000680C
:1025400040F4005002490831086070470010024012
:10255000040C014070B504460D460023224619467E
:10256000204600F041FF284602F06AFA70BD0000E4
:1025700018B90021094A11600FE009490968491C8E
:10258000074A1160814208D104490968C943054AD4
:10259000C2F8B4110021024A11607047B48121428F
:1025A000D00000200080214210B5022000F010F879
:1025B000032000F021F8002000F014F8002000F0C3
:1025C00037F8002000F02BF8002000F01FF810BDB5
:1025D00038B50446032302226B21D0200094FFF774
:1025E0006AFD38BD38B50446022304221C21D020E0
:1025F0000094FFF760FD38BD38B50446022304227D
:102600001B21D0200094FFF756FD38BD10B50446BD
:10261000234601223721D020FFF72DFD10BD10B534
:102620000446234605226A21D020FFF724FD10BD71
:1026300010B50446234606226B21D020FFF71BFD70
:1026400010BD000000B5002015490861C8601420C5
:10265000486100208861C8610846006840F00100B8
:102660000860084640680F4908400D494860084620
:1026700000680D4908400A4908600846006820F4CF
:10268000802008600846406820F4FE004860002072
:10269000886000214FF0006000F058F800BD000095
:1026A000001002400000FFF8FFFFF6FE2DE9F041A8
:1026B0000746884614461D46284600F033F8C5F103
:1026C000040007FA00F60F20284100EA080006433C
:1026D00006F00F06E21704EBD2625211920002F1EB
:1026E000E022D2F800212146E31704EBD3635B110B
:1026F000A4EB431C012303FA0CF31A432046E3170F
:1027000004EBD3635B119B0003F1E023C3F80021CA
:102710000348005D40EA061001490855BDE8F08114
:1027200000E400E00146072323EA01021202054B00
:1027300018684FF6FF031840034B18431043014B32
:10274000186070470CED00E00000FA05024A0A40EC
:102750000243024B1A60704780FFFF1F08ED00E044
:1027600000BFFEE71048806940F008000E4988610C
:102770000846806940F0100088610C48006820F02D
:10278000FF000A4908600846006840F0220008601F
:102790000748006820F47F00054908600846006883
:1027A00040F408100860704700100240000C01401F
:1027B0000010014000B503460A46FFF7D3FF3D482D
:1027C000806940F400503B4988610846806940F0C8
:1027D000100088613848406820F0FF0036494860A2
:1027E0000846406840F0BB0048600846006820F09A
:1027F0007F4008600846006840F03B4008602F4872
:102800000380001F02802D481438008840F06000CB
:102810002A49143908800846008840F4C0400880DE
:10282000081D008840F06000091D088008460088E7
:1028300040F4C0400880081F008840F00800091FCD
:1028400008800846008840F400600880081D008861
:1028500040F00800091D08800846008840F4006028
:102860000880081D008840F00100091D0880084606
:10287000008840F0100008800846008840F480700E
:1028800008800846008840F4805008800B481830C3
:10289000008840F400400949183108804FF4004096
:1028A00006492C3908800846008840F0010008805D
:1028B00000BD000000100240001001402C34014017
:1028C0007047000070B5002100230F22C47804B3C4
:1028D000154C246804F4E064C4F5E064210AC1F1F5
:1028E0000403CA40447804FA03F184781440214375
:1028F00009010E4C0678A155047804F01F05012447
:10290000AC4005786D11AD0005F1E025C5F800413A
:1029100009E0047804F01F050124AC40044D06785A
:10292000761145F8264070BD0CED00E000E400E0B3
:1029300080E100E002490143024A11607047000053
:102940000000FA050CED00E030B500240CE0002595
:1029500006E00020074901EBC5010855681CC5B217
:10296000802DF6DB601CC4B2082CF0DB00F0F2F81E
:1029700030BD000024020020F0B5144600267F2858
:1029800001DC3F2900DDF0BD0B46CF1701EB577787
:10299000FF10C7F10707FAB2CF1701EB5777FF1007
:1029A000A1EBC707FDB2C5F107070123BB40DEB2AB
:1029B0004CB10A4B03EBC0039B5C3343074F07EB5F
:1029C000C007BB5408E0054B03EBC0039B5CB3435B
:1029D000024F07EBC007BB5400BFD4E7240200201E
:1029E00010B55548806940F0100053498861084689
:1029F000806940F00100886150484068C0F31300CE
:102A00004E494860084640684D4908434B49486074
:102A10000846006820F00F0008600846006840F093
:102A2000020008604748006840F48070454908602B
:102A30004148006A20F001003F490862424800888E
:102A400020F00100404908803E48006820F4807072
:102A50003C49086000203D490860642001F0B4FF53
:102A600001203B49C1F8BC010021AE2000F058F91B
:102A70000021D52000F054F90021502000F050F939
:102A80000021A82000F04CF900213F2000F048F977
:102A90000021D32000F044F90021084600F040F95D
:102AA0000021402000F03CF900218D2000F038F991
:102AB0000021142000F034F90021202000F030F92A
:102AC0000021022000F02CF90021A12000F028F9BB
:102AD0000021C02000F024F90021DA2000F020F9C4
:102AE0000021122000F01CF90021812000F018F9CB
:102AF0000021EF2000F014F90021D92000F010F996
:102B00000021F12000F00CF90021DB2000F008F991
:102B10000021302000F004F90021A42000F000F989
:102B20000021A62000F0FCF80021AF2000F0F8F80A
:102B3000FFF70AFF10BD0000001002400010014026
:102B40000000202200700040306C0040BC01224296
:102B50000000224230B500241CE004F1B001C8B2EC
:102B6000002100F0DDF80021084600F0D9F800212E
:102B7000102000F0D5F8002508E0084901EBC50158
:102B8000085D012100F0CCF8681CC5B2802DF4DB93
:102B9000601CC4B2082CE0DB30BD00002402002021
:102BA0002DE9F04F80460C4615461E46A346A5F17A
:102BB0002000C5B200273EE00C2E07D105EB4500F2
:102BC0001F4901EB800010F8079004E01D4800EB5E
:102BD000051010F807904FF0000A26E009F0800079
:102BE00028B121464046099AFFF7C6FE09E0099838
:102BF00008B9012000E00020024621464046FFF7C8
:102C0000BBFE4FEA49604FEA1069601CC4B2A4EBF6
:102C10000B00B04205D15C4608F1010000F0FF084E
:102C200006E00AF1010000F0FF0ABAF1080FD5DB57
:102C300000BF781CC7B2B742BEDBBDE8F08F000012
:102C400066950008DA9900082DE9FF4F81B0074624
:102C500091461E460E9D4FF0000A002439E0301BBD
:102C6000401EC1B20A2004F0CCF8B9FBF0F00A21F2
:102C7000B0FBF1F201FB1208BAF1000F16D1701E81
:102C8000A04213DDB8F1000F0ED10120AB4605EBD9
:102C9000DB71491001FB04710090C8B22B46202261
:102CA0000299FFF77DFF12E04FF0010A0120AB46C9
:102CB00005EBDB71491001FB04710090C8B208F10B
:102CC0003001CAB22B460299FFF76AFF00BF601CB1
:102CD000C4B2B442C3DB05B0BDE8F08F78B5054699
:102CE0000E46144618E07A2D03DD002506F110008B
:102CF000C6B23A2E04DD002005460646FFF724FE44
:102D00000120009022780C2331462846FFF748FF27
:102D100005F10800C5B2641C20780028E3D178BD15
:102D200010B50A461AB10123124C236002E00023B9
:102D3000104C2360002116E000230E4C3434236035
:102D400000F080031BB10123241D236003E0002356
:102D5000084C383423600123064C34342360430686
:102D6000180E4B1CD9B20829E6DB0123014C236065
:102D700010BD000080012242704700002DE9F0479D
:102D800004460D46601B06F099F92749086008467D
:102D900001682648006805F0F1FF244908602449CD
:102DA0002248006806F0B6FA02D222481F4908609D
:102DB00021491E48006806F0ADF902D21F481B49A0
:102DC00008601F4801681848006806F0DFFA80466E
:102DD0001C480168404606F0D1F906461A491B48CE
:102DE000006806F039F8824610480168504606F03F
:102DF000C5F980460C4801681548006806F0BEF920
:102E00008146414605F0BAFF0746314605F0B6FF58
:102E10001049086004480068094908600D480068C6
:102E200006F010F9BDE8F087940100209C01002015
:102E30000050C34700401C460050C3C700401CC69A
:102E4000A0010020B80000200000C842B40000200B
:102E5000B0000020980100202DE9F04704460D46FF
:102E6000601B06F02BF927490860084601682648D0
:102E7000006805F083FF244908602449224800685F
:102E800006F048FA02D222481F49086021491E482C
:102E9000006806F03FF902D21F481B4908601F482E
:102EA00001681848006806F071FA80461C480168FD
:102EB000404606F063F906461A491B48006805F0CB
:102EC000CBFF824610480168504606F057F980460D
:102ED0000C4801681548006806F050F981464146E3
:102EE00005F04CFF0746314605F048FF10490860E1
:102EF00004480068094908600D48006806F0A2F817
:102F0000BDE8F087A4010020AC0100200050C347B9
:102F100000401C460050C3C700401CC6B001002042
:102F2000B80000200000C842B4000020B00000201B
:102F3000A80100202DE9F04704460D46601B06F06D
:102F4000BDF827490860084601682648006805F072
:102F500015FF2449086024492248006806F0DAF980
:102F600002D222481F49086021491E48006806F025
:102F7000D1F802D21F481B4908601F480168184851
:102F8000006806F003FA80461C480168404606F0D7
:102F9000F5F806461A491B48006805F05DFF8246B1
:102FA00010480168504606F0E9F880460C48016870
:102FB0001548006806F0E2F88146414605F0DEFE5D
:102FC0000746314605F0DAFE1049086004480068FB
:102FD000094908600D48006806F034F8BDE8F0873C
:102FE000B4010020BC0100200050C34700401C4633
:102FF0000050C3C700401CC6C0010020B80000201C
:103000000000C842B4000020B0000020B801002039
:103010002DE9F04704460D46601B06F04FF827499E
:103020000860084601682648006805F0A7FE2449A4
:10303000086024492248006806F06CF902D2224850
:103040001F49086021491E48006806F063F802D253
:103050001F481B4908601F4801681848006806F0AF
:1030600095F980461C480168404606F087F80646F8
:103070001A491B48006805F0EFFE824610480168B7
:10308000504606F07BF880460C48016815480068F9
:1030900006F074F88146414605F070FE0746314659
:1030A00005F06CFE10490860044800680949086092
:1030B0000D48006805F0C6FFBDE8F087C401002098
:1030C000CC0100200050C34700401C460050C3C73D
:1030D00000401CC6D0010020B80000200000C842FB
:1030E000B4000020B0000020C801002029B1064A29
:1030F00092690243044B9A6104E0034A9269824355
:10310000014B9A61704700000010024070B5044600
:103110000D46234600222146104600F065F9284658
:1031200001F08EFC70BD00002DE9F04F8FB00CA8AF
:1031300089490DAB08AACDE900108849884801F0FB
:1031400019FE8548008800F4807000287ED0089819
:1031500005F0B4FF04464FF09D4105F07DFE814926
:103160000860099805F0AAFF04464FF09D4105F05C
:1031700073FE7D4908600A9805F0A0FF04464FF0F1
:103180009D4105F069FE794908600B9805F096FFAE
:1031900004464FF09D4105F05FFE75490860714897
:1031A00001684FF0804005F0E9FF06906F48016824
:1031B000069805F0E3FF82466B4801684FF04040F7
:1031C00005F0DCFF06906A480168069805F0D6FF16
:1031D0008346514605F0D2FD079005F0A3FD8046D9
:1031E00001F07AF806464FF06632624B05F08AFA33
:1031F000044604F0ABFF604908605C4801684FF08A
:10320000804005F0BBFF039058480168039805F023
:10321000B5FF8246544801684FF0404005F0AEFFCC
:10322000039051480168039805F0A8FF8346514672
:1032300006F0ACF881464FF07E5105F09FFD044644
:1032400005F070FDCDE90401464800E081E0016829
:103250004FF0804005F092FF83464348016858468E
:1032600005F08CFF8146414801684FF0804005F031
:1032700085FF83463E480168584605F07FFF824639
:10328000494605F07BFD044605F04CFD0746DDE9A7
:10329000042301F069FA4FF06632364BCDE906019E
:1032A00005F030FA054604F051FF34490860304813
:1032B0000168006805F062FF03902C48016800680F
:1032C00005F05CFF029028480168006805F056FF91
:1032D000834624480168006805F050FF5946019074
:1032E00005F04CFD8246029906F050F8814603999C
:1032F00006F04CF8044605F015FDCDE904011C4824
:1033000001681848006805F039FF824617480168CF
:103310001548006805F032FF8346514605F02EFD42
:1033200081464FF0804105F029FF044605F0FAFC84
:103330000746DDE9042301F017FA4FF066320D4B22
:10334000CDE9060105F0DEF9054604F0FFFE0C4963
:1033500008600FB0BDE8F08FF8000020F2000020F8
:10336000EC000020FC0000200001002004010020EF
:103370000801002066A64C40980000209C00002018
:10338000A00000200146022906D003290DD00429FF
:1033900012D005291ED116E04FF08042928C10B257
:1033A00000224FF080439A8416E00C4A128810B233
:1033B00000220A4B1A800FE0094A128810B200223C
:1033C000074B1A8008E0074A128810B20022054B0A
:1033D0001A8001E0002000BF00BF704724040040B5
:1033E00024080040240C004010B5044C2060044C1C
:1033F0002160044C2260044C236010BD5400002066
:10340000580000205C0000206000002030B503461A
:103410000C461546002207E0184600F008F824F88C
:1034200012009B1C501C82B2AA42F5DB30BD014643
:10343000088870477047000000B58DB00121C802B0
:10344000FFF754FE01210D20FFF750FE4FF470608E
:10345000ADF8300018208DF8330003208DF83200CD
:103460000CA93748FEF70CFA4FF48050ADF8300045
:1034700018208DF8330003208DF832000CA9314854
:10348000FEF7FEF9C720ADF8280041F61F40ADF861
:1034900024000020ADF82A00ADF8260009A92A482A
:1034A00000F044FB7020ADF814000120ADF81600C8
:1034B000B920ADF81A000020ADF81C00ADF81E00D0
:1034C0004FF48070ADF8200005A91F4800F07AFA8B
:1034D00008211D4800F0C2FAC320ADF81A0005A962
:1034E000194800F0C5FA0821174800F011FB4FF405
:1034F0000060ADF804004010ADF806008010ADF893
:1035000008000020ADF80A004FF48050ADF80C0020
:103510004000ADF80E004000ADF8100001A90A48C7
:1035200000F024FA0121084800F03CFA0121064885
:1035300000F010FA0121044800F028FA0DB000BD97
:1035400000080140000C0140002C014010B5002093
:1035500003F05CFAB9240BE0A1B21C4800F0E1FAD8
:10356000322001F0F3F90021184800F0DAFA641E65
:10357000AF2CF1DA4FF47A7001F0E8F9B921134871
:1035800000F0CFFA4FF4FA7001F0E0F900210F4893
:1035900000F0C7FAB9210D4800F0C5FA4FF4FA70EF
:1035A00001F0D4F90021094800F0BDFAC321074811
:1035B00000F0B9FA4FF4FA7001F0C8F9002103489D
:1035C00000F0B1FA012003F021FA10BD002C0140F7
:1035D00010B5002003F01AFAB9240BE0A1B21C4880
:1035E00000F09FFA322001F0B1F9C821184800F02C
:1035F00098FA641CC32CF1DD4FF47A7001F0A6F93F
:10360000B921134800F08DFA4FF4FA7001F09EF9D9
:10361000C8210F4800F085FAB9210D4800F083FA5F
:103620004FF4FA7001F092F9C821094800F07BFAD2
:10363000C321074800F077FA4FF4FA7001F086F9D9
:10364000C821034800F06FFA012003F0DFF910BD34
:10365000002C014010B500F001F810BD0CB50020A1
:10366000019000903348006840F480303149086090
:1036700000BF3048006800F4003000900198401C02
:103680000190009818B90198B0F5A06FF1D12948C0
:10369000006800F4003010B10120009001E000202B
:1036A00000900098012843D12348006840F01000A2
:1036B000214908600846006820F0030008600846B9
:1036C000006840F0020008601A48406819494860E4
:1036D0000846406848600846406840F4806048609A
:1036E0000846406820F47C1048600846406840F472
:1036F000E81048600846006840F08070086000BF2D
:103700000C48006800F000700028F9D009484068B3
:1037100020F00300074948600846406840F0020076
:10372000486000BF0348406800F00C000828F9D149
:103730000CBD0000001002400020024070B504469D
:103740000020002C06DD2518264E35800025264E4B
:10375000356007E004F5E1552D1A224E358001252C
:10376000214E3560002909DDC1F5E1552D1A1D4EA8
:10377000361D358001251D4E356007E04D4205445C
:10378000184E361D35800025184E3560002A0ADD9A
:10379000C2F5E1552D1A134E083635800125124E1B
:1037A000361D356008E0554205440E4E083635801A
:1037B00000250D4E361D3560002B08DD1D18094E05
:1037C0000C3635800025094E361D356009E003F5BD
:1037D000E1552D1A034E0C3635800125034E361D5A
:1037E000356070BD34340140900122428081214215
:1037F00030B504460025FEF725FF1F48006840F459
:1038000080301D49086000BF1B480068400C00283C
:10381000FAD04FF4806018494860A01EC4B2084630
:10382000406840EA844048600846406840F4803080
:1038300048601248006840F03200104908600E48A5
:10384000006840F080700C49086000BF0A480068BA
:10385000400E0028FAD00848406840F002000649AF
:10386000486005E004484068C0F3870505F003059B
:10387000022DF7D130BD00000010024000200240B0
:1038800000B500231A4619461846FFF7ADFD00BDE6
:103890007047000010B51348006840F0010011495E
:1038A000086008464068104908400E4948600846CC
:1038B00000680E4908400B4908600846006820F47B
:1038C000802008600846406820F4FE0048604FF4FD
:1038D0001F008860FFF7BEFE4FF0006004490860DB
:1038E00010BD0000001002400000FFF8FFFFF6FED0
:1038F00008ED00E04FF08040008A4FF08040008AE1
:1039000020F001004FF08041088270470448008891
:103910000348008820F0010001490880704700003A
:1039200010040040044800880348008820F001008B
:1039300001490880704700001008004004480088D2
:103940000348008820F0010001490880704700000A
:10395000100C004021B1028842F08002028004E095
:1039600002884FF67F731A40028070470A884B889E
:103970001A438B881A43CB881A430B891A434B8905
:103980001A438B891A43A0F84420704721B102885A
:1039900042F00102028004E002884FF6FE731A40F2
:1039A0000280704731B1B0F8442042F40042A0F8E0
:1039B000442005E0B0F84420C2F30E02A0F84420F1
:1039C0007047000070B5002400220023058C4FF6DC
:1039D000FE7635400584028C8388048B4FF68F7504
:1039E0002C40B51E2C400D882C43751E2A400D8995
:1039F0002A434D882A43144DA8420BD0134DA842A8
:103A000008D0134DA84205D0124DA84202D0124D45
:103A1000A84213D14FF6F7752A404D892A434FF635
:103A2000FB752A408D882A434FF6FF652B404FF6E1
:103A3000FF552B408D892B43CD892B4383800483F5
:103A4000CD888586028470BD002C01400034014081
:103A50000040014000440140004801400A46002166
:103A6000018B4FF6F7731940114301837047000033
:103A700070B5002400220023058C4FF6FF66354008
:103A80000584028C8388848B4FF68F752C404FF60B
:103A9000FC752C400D882C434FF6FF552A400D89AC
:103AA0004FF6FF7606EA05252A434D8806EA0525E6
:103AB0002A43154DA84202D0144DA8421DD14FF201
:103AC000FF752A404D894FF6FF7606EA05252A4301
:103AD0004FF6FF352A408D8806EA05252A434EF623
:103AE000FF752B404DF6FF752B408D8906EA0515B5
:103AF0002B43CD8906EA05152B4383808483CD882B
:103B00008587028470BD0000002C01400034014014
:103B10000A460021818B4FF6F773194011438183C8
:103B200070478186704781877047000000220288B5
:103B30001D4B98420ED01D4B98420BD0B0F1804FD8
:103B400008D01B4B984205D01A4B984202D01A4B12
:103B5000984204D14FF68F731A404B881A43174B83
:103B6000984207D0164B984204D04FF6FF431A40B4
:103B7000CB881A4302808B8883850B8803850A4B88
:103B800098420BD0094B984208D00E4B984205D072
:103B90000D4B984202D00D4B984201D10B7A03860F
:103BA0000123838270470000002C01400034014053
:103BB0000004004000080040000C004000100040DD
:103BC0000014004000400140004401400048014012
:103BD000014640F25642914215DA012000220B4B79
:103BE0001A801B1D1A801B1D1A801B1D1A80084B72
:103BF0001A60084BC3F88021054B1B1D1A60054B4A
:103C0000C3F8842100E000207047000034340140F4
:103C100090012242008021422DE9FF5F96480088F2
:103C200000F0200000287DD09348001D00889349B3
:103C30000860084600684B2803D1012090490870AD
:103C40000AE08E480068492803D08C4800684A285A
:103C500002D100208A4908708A48007800284DD196
:103C600087480078D0B985480068412809DB834837
:103C70000068482805DC814800784038824908708F
:103C80003CE07E480068082804DC7C4800787E49D7
:103C9000087033E000207C4908702FE078480078F5
:103CA00001282BD175480068432806D100207749A8
:103CB00008700120764908700FE0704800684728B6
:103CC00006D101207149087000207149087004E094
:103CD00000206E4908706E490870684800684128E5
:103CE00003D066480068452805D16448007840380C
:103CF0006549087002E00020634908705F48006869
:103D00007B2802D10120634908705C4800687D2847
:103D100002D102205F4908705E48007801280CD16A
:103D2000564800E07EE000785B495C4A127888548F
:103D30005A480078401C59490870564800780228B3
:103D400070D15548C078502803D1012054490870DB
:103D500081E05148C078572803D1012051490870AB
:103D600079E04D484078232875D04C4800784E497A
:103D7000087034E0494909784B4A1278881A04F0EF
:103D80005AFC804642460B460020484903F08CFB13
:103D900004460D4644490978491E3F4A515CA1F149
:103DA000300004F048FC064622462B4604F0AAFCEC
:103DB00082468B463E48006804F0B4FF52465B469C
:103DC000CDE9000104F0F4F9CDE9020104F0BEF9F7
:103DD0003749086034480078401E3349087032483B
:103DE00000780428C6DA2C4840783038092831D2C7
:103DF000DFE800F0050C13191E23282E2F002C4895
:103E0000006805F01FF92B49086023E02848006886
:103E100005F018F9284908601CE025480068274982
:103E2000086017E024E0224800682549086011E096
:103E30001F480068234908600CE01D4800682249BB
:103E4000086007E01A4800682049086002E002E0C4
:103E500000E000BF00BF00200E4908700F49087045
:103E6000114908701249086032210B48FCF7C8FA62
:103E7000002004B0BDE8F09F00440040DC000020BA
:103E8000940000206E0000200A000020080000209E
:103E900009000020E000002024060020E1000020AE
:103EA0008200002083000020E20000200000244067
:103EB000E4000020C4000020C8000020B000002062
:103EC000B4000020B8000020BC000020C00000208A
:103ED00010B52548008800F02000002842D0234873
:103EE000007850B922480078401CC0B220490870C0
:103EF0000A2802DD01201D4908701B48001D0088AA
:103F0000C4B2204605F0F2F81A4908601A48007851
:103F100068B91A480078FE2809D119480078FF28A6
:103F200005D1012014490870002016490870124874
:103F3000007801280FD114481249097844541148D7
:103F40000078401C0F49087008460078082802D104
:103F50000020094908700948007809490870074895
:103F6000047000BF002010BD004800408000002009
:103F7000D70000206800002081000020D50000202C
:103F8000D6000020D40000207700002010B58AB0B1
:103F900018A103C9CDE9040102A806A907AB08AA24
:103FA000CDE9001009A90020FCF74EFC00240FE029
:103FB000072C04D102A8005D104908700AE002A88D
:103FC000005D04A9095D884200D003E0601CC4B212
:103FD000072CEDDD00BF40F221110998884207D17E
:103FE0000648007820B106480299016003994160B3
:103FF0000AB010BD0A0C0F13181E25007F00002008
:104000006F00002000BFFEE71C4909684242914250
:1040100002DA4142194A116018490968814201DDFA
:1040200016490860164909684242914202DA414243
:10403000134A116012490968814201DD1049086084
:10404000104909684242914202DA41420D4A116028
:104050000C490968814201DD0A4908600A4909687A
:104060004242914202DA4142074A11600649096818
:10407000814201DD044908607047000044000020CF
:10408000480000204C0000205000002030B51C4C9F
:1040900024684542AC4202DA4442194D2C60184C67
:1040A0002468844201DD164C2060164C24684D4281
:1040B000AC4202DA4C42134D2C60124C24688C4204
:1040C00001DD104C2160104C24685542AC4202DAEC
:1040D00054420D4D2C600C4C2468944201DD0A4C76
:1040E00022600A4C24685D42AC4202DA5C42074D11
:1040F0002C60064C24689C4201DD044C236030BDDA
:1041000044000020480000204C0000205000002007
:10411000490050EAC12018BF04204A0D18BF40F0E2
:10412000010040F2FF72B2EB515F08BF40F00200A5
:10413000012808BF052070472DE9F0414F1E00EB14
:10414000C7010446D1E9000115461E4637F00602B4
:104150000DD02A46334604F0D5FA7F1E04EBC70380
:10416000D3E9002304F024F837F00602F1D1022F3E
:1041700025D0042F13D0062F18BFBDE8F0812A46A2
:10418000334604F0BFFAD4E90A2304F011F82A46B2
:10419000334604F0B7FAD4E9082304F009F82A46B4
:1041A000334604F0AFFAD4E9062304F001F82A46B6
:1041B000334604F0A7FAD4E9042303F0F9FF2A46B2
:1041C000334604F09FFAD4E9022303F0F1FF2A46B4
:1041D000334604F097FAD4E90023BDE8F04103F038
:1041E000E7BF0000002213461046014904F09CB8C6
:1041F0000000F03F012205F070B903F0D9BF0022A2
:1042000013461046114604F08FB840F201320020E8
:104210004FF0E04105F061B9024A0020110705F0B6
:104220005CB9000001FDFFFF014600BF70470000C0
:104230002DE9FE4F06460F460025684601F000FABC
:10424000002442E056F8240057F82410A0EB010A9D
:10425000BAF1000F01DB514601E0CAF10001084646
:1042600004F02CFF83464FF08F4104F0F5FD8046AB
:104270005DF82400002104F0B1FE16D05DF8241092
:10428000404604F0E9FD82464FF07E5105F07EF88D
:10429000814629F0004A0F48416A504605F03AF835
:1042A00012D20120A04005430EE00A48C1694046F1
:1042B00004F030FF05D30748016A404605F02AF8AC
:1042C00002D20120A0400543641C032CBADB28461F
:1042D000BDE8FE8FF49F00082DE9F04D8D4F21F0D1
:1042E000004A86B005460C46BA452ADBAAEB070011
:1042F00028430AD08848824501DC1AD1CDB106B0E6
:104300002846BDE8F04DFFF775BF844A844B284628
:1043100004F0F8F907460E46824A834B28462146A8
:1043200004F0F0F906B03A463346BDE8F04D03F02C
:104330003FBF0120FCF706F906B0BDE8F04DFFF7DE
:104340005EBF7A48824542DABAF1795F0BDA2846D5
:10435000FFF7DEFE042808BFFFF75EFF284606B021
:104360002146BDE8F08D2A460B46104604F0CAF9F6
:10437000834602466E480E460B4606217844FFF7F8
:10438000DBFE5A46334604F0BDF9804669488A464A
:104390005A46334604217844FFF7CEFE5A46334648
:1043A00004F0B0F900223B4603F002FF02460B4640
:1043B0004046514603F0B8FF2A46234604F0A2F9CE
:1043C00006B02A462346BDE8F04D03F0F1BE28466C
:1043D00024F0004100223D463B4604F0C7FA4FF06E
:1043E000FF3205F07AF80646024653480F460B4660
:1043F00006217844FFF7A0FE32463B4604F082F9DE
:10440000CDE900014D4832463B4604217844FFF790
:1044100093FE32463B4604F075F900222B4603F02A
:10442000C7FE834602913046394603F0BFFD804601
:1044300043480D46504517DCDDE900015A46029B12
:1044400003F072FF42462B4604F05CF942462B46CD
:1044500003F0AEFE012205F040F8304A304B04F084
:1044600077FB304A304B4CE04FF0000A52460B4687
:10447000404603F09DFECDE9031052462B46104600
:10448000194604F03FF932463B4604F06FFADDE985
:10449000033203F049FF06460F46DDE900015A46A4
:1044A000029B03F041FF83460091012230463946CA
:1044B00005F013F8194A1A4B04F058FA06460F464D
:1044C00001224046294605F008F85A46009B04F0B0
:1044D00019F932463B4604F03BFB06460F460122E3
:1044E0005046294604F0F9FF0E4DDFF858802A4661
:1044F000434604F03BFA32463B4604F037FA2A467C
:10450000434604F033FA002CD8BF81F0004106B0D6
:10451000BDE8F08D0000F03F0000F07F075C143331
:1045200026A6913C182D4454FB21F93F0000E03FA2
:1045300098680000AE68000022680000386800003B
:104540003333EF3FFB21E93F2DE9F84F04460D4699
:1045500021F0004000917349814211DC7249884288
:1045600001DC06D12CB120462946BDE8F84FFFF703
:1045700041BE6E48002DCCBF6D496E49BDE8F88F35
:104580006D49814211DD6D498142D8BF4FF0FF3640
:104590006DDD20462946FFF7BBFD042808BFFFF765
:1045A0003BFE20462946BDE8F88F6549654F25F05A
:1045B0000045814233DD6449814219DD00263246DF
:1045C0004FF080432046294603F0F2FD80468A469C
:1045D00001222046294604F080FF00223B4604F0D9
:1045E000B7FA4246534603F09FFE04460D463EE0AE
:1045F00001260022BA463B462046294603F0D8FD54
:1046000080460F46002253462046294604F0A0FA71
:1046100042463B4603F088FE04460D4627E04B49E0
:1046200081421BDDDFF828A10226002253462046E6
:10463000294604F067F800223B4603F0B9FD8046A6
:104640000F46002253462046294604F081FA42468E
:104650003B4603F069FE04460D4608E00326224669
:104660002B4600203B4903F05FFE04460D462246E0
:104670002B461046194604F045F88B468246024602
:104680000B4604F03FF807460246334888460B467F
:1046900006217844FFF750FD52465B4604F032F89D
:1046A00082462E488B463A46434605217844FFF71A
:1046B00043FD3A46434604F025F802460B46002ED9
:1046C000504659460CDA03F073FD22462B4604F09F
:1046D00019F801B022462B46BDE8F04F04F046B968
:1046E00003F066FD22462B4604F00CF81C4A7A447F
:1046F00002EBC603D3E9002304F02AFA22462B4634
:1047000004F026FA174A7A4402EBC603D3E90023E1
:1047100004F02CF9009A002AB8BF81F00041BDE8EE
:10472000F88F0000000010440000F07F182D445462
:10473000FB21F93FFB21F9BF0000DC3F0000203ED8
:104740000000F33F0000F03F0000E63F0080034020
:104750000000F83F0000F0BFC26600008066000065
:104760001E660000E66500002DE9F04D9446CCF190
:10477000000423F000464CEA0404524F46EAD47485
:104780009A46884621F00042BC4206D8454240EA9B
:10479000050442EAD474BC4204D9BDE8F04D624637
:1047A000FFF72BBDAAF14055A5F17F6555EA0C0432
:1047B0000BD0022404EAAA74434DDFF810E144EA66
:1047C000D87452EA000B04D00CE0BDE8F04DFFF7BE
:1047D000BBBE002C14BF012CBDE8F08D022C30D0E4
:1047E000032C32D056EA0C0B0AD0BE4220D1BA427A
:1047F00009D126F0804622F080423346114617E068
:1048000000291ADB25E0DFF8C8B0FB44002C04BF08
:10481000DBE90001BDE8F08D012C02BFDBE90001FE
:1048200081F00041BDE8F08D022C0AD0032C0CD0A1
:10483000BA4212D1B8F1000F0BDA23482549BDE87E
:10484000F08D28462449BDE8F08D28467146BDE824
:10485000F08D1D482149BDE8F08D921B12153C2AB0
:10486000C4BF19481D490EDCBAF1000FBEBF12F1DA
:104870003C0F0020014606DB624603F055FD21F0A7
:104880000041FFF761FE002C08BFBDE8F08D012C50
:1048900004BF81F00041BDE8F08D114A114B022C9C
:1048A00007D004F055F92A46BDE8F04D0A4B04F054
:1048B0004FB904F04DF92A46BDE8F04D064B04F01F
:1048C00055B800000000F07F182D4454FB2109C0AA
:1048D0007A650000FB21F9BFFB210940FB21F93F6C
:1048E000075C143326A6A13C2DE9F0410446E0788C
:1048F00000F0C006E07800F03F05607800F00100AD
:1049000098B1EF102846E91705EB5171C910A5EBD6
:10491000C101491C01F0FF080B48006820B10A489A
:10492000414602683846904700BF607800F00800B2
:1049300030B10548406818B1B011034A5168884742
:104940000020BDE8F08100005806002001460D4A15
:1049500012884A434FF0E0235A6100229A610122F3
:104960001A6100BF4FF0E022106900F001021AB195
:1049700000F48032002AF5D000224FF0E0231A61C3
:104980009A617047CE0000204FF0E021096921F0C4
:1049900004014FF0E0221161C21700EB5272C2F322
:1049A000C702074B1A701946097801EB4102C2EBA6
:1049B000C1114FF6FF7202EAC101024A118070472D
:1049C000CC000020CE00002001460D4A12884A4348
:1049D0004FF0E0235A6100229A6101221A6100BF60
:1049E0004FF0E022106900F001021AB100F48032A9
:1049F000002AF5D000224FF0E0231A619A61704737
:104A0000CE00002001460D4A12784A434FF0E023C1
:104A10005A6100229A6101221A6100BF4FF0E02220
:104A2000106900F001021AB100F48032002AF5D0BA
:104A300000224FF0E0231A619A617047CC000020F9
:104A400010B5044601200849087000200749086095
:104A500001E002F0E1F905480068A042F9DB00201E
:104A60000149087010BD00006D00002060010020A9
:104A700038B5044664B120208DF8000028208DF858
:104A8000010030208DF8020038208DF8030004E08A
:104A9000A32204216846FBF7ABFC6A46042140F6DA
:104AA0009E2002F06DF901F05DFD38BD3EB5044673
:104AB00002208DF80000CA208DF80100E3208DF857
:104AC000020009208DF803006A460421682002F0E4
:104AD00057F9A3208DF8000004F0400048B1C02031
:104AE0008DF80100C8208DF80200C2208DF8030067
:104AF00006E0A3208DF801008DF802008DF8030078
:104B000004F4C07048B1C4208DF80400CC208DF8A6
:104B10000500C6208DF8060006E0A3208DF80400ED
:104B20008DF805008DF80600A3208DF807008DF89C
:104B300008008DF809006A460A2140F6A72002F015
:104B40001FF904F0030018B120208DF8000002E0E6
:104B5000D8208DF800006A46012140F6B62002F008
:104B60000FF904F0200018B1012000F0ADF802E0C8
:104B7000002000F0A9F804F4C07008B304F48070B9
:104B800060B1B2208DF800008B208DF80100B620B6
:104B90008DF802009B208DF803000BE0B0208DF80B
:104BA000000080208DF80100B4208DF802009020D4
:104BB0008DF803006A46042140F6A22002F0E0F8D6
:104BC00004F0010020B3F8208DF800006A460121AE
:104BD0004FF40B6002F0D4F8FA21072000F02CFC0F
:104BE000072000F0F3FB012000F013FC642000F02C
:104BF000F3FC4FF4FA7000F002FDC821304800F0D9
:104C0000A3FB282000F0BCFB0A2000F0CCFB08E04E
:104C1000D8208DF800006A4601214FF40B6002F0A5
:104C2000AFF804F0020018B1D9208DF8000002E0BE
:104C3000D8208DF800006A46012140F23D7002F054
:104C40009FF804F0040018B1012000F069F802E0B8
:104C5000002000F065F804F0100018B10120FFF703
:104C600007FF02E00020FFF703FF44F008001549AA
:104C7000488101F077FC00201249887304F040005D
:104C800018B10846807B801D887304F4C07020B181
:104C90000C48807B801D0B49887304F0140020B100
:104CA0000848807B10300749887304F0030020B166
:104CB0000448807B001D0349887300203EBD00002E
:104CC00009E3CA02580600203EB504466CB10EA1A5
:104CD000D1E900208968CDE9002002916A460921C6
:104CE0004FF4976002F04CF83EBD0AA2D2E90010E2
:104CF0009268CDE9010200916A4609214FF497605C
:104D000002F03EF8F0E70000B8AAB38DB4980D3574
:104D10005D000000B8AAAAAAB088C3C5C7000000F9
:104D200038B5044664B1C0208DF80000C2208DF86B
:104D30000100C4208DF80200C6208DF8030004E0B5
:104D40008B2204216846FBF753FB6A46042140F698
:104D5000982002F015F801F005FC38BD10B5C82305
:104D60004FF48062024940F6F63001F08FFA10BD30
:104D70001CA000082DE9F04F8DB007468846154667
:104D80009946DDE9166B0024002030806B49887B52
:104D90005A4605A901F046FB18B1601E0DB0BDE8EA
:104DA000F08F6648807A00F01400002867D09DF8E4
:104DB000140000069DF8151040EA01409DF81610F9
:104DC00040EA01209DF81710084328609DF818005C
:104DD00000069DF8191040EA01409DF81A1040EABB
:104DE00001209DF81B10084368609DF81C00000618
:104DF0009DF81D1040EA01409DF81E1040EA012078
:104E00009DF81F100843A8609DF8200000069DF83B
:104E1000211040EA01409DF8221040EA01209DF84F
:104E200023100843E86004F11000C4B2286800149D
:104E30000190686800140290A86800140390E86864
:104E40000014049001984043029901FB010003996A
:104E500001FB0100049901FB010ABAF1706F02DB4A
:104E6000BAF1885F05DD01F07DFB00203080401E37
:104E700094E7B6F9000040F48070308000BF2F48FE
:104E8000807A00F0400020B305A9601C085C095D31
:104E900040EA012000B2A8F8000005A9E01C095C66
:104EA00005AAA01C105C41EA002000B2A8F802008C
:104EB00005A9601D095C201D105C41EA002000B2BC
:104EC000A8F80400A01DC4B2B6F9000040F0080024
:104ED00030801A48408900F4C07008B305A9601CEE
:104EE000085C095D40EA012000B2388005A9E01C99
:104EF000095C05AAA01C105C41EA002000B2788081
:104F000005A9601D095C201D105C41EA002000B26B
:104F1000B880A01DC4B2B6F9000040F07000308027
:104F20000648807A00F0030018B105A90819FFF7B8
:104F3000DBFC484601F064FF00202FE75806002004
:104F400070B588B0064601A800F0F4FFBDF8040073
:104F50000021C90341EA5045C4034448007A00F0E7
:104F6000030056F8200005904048007A00F0040045
:104F700010B10598404205903C48007AC0F3C1004A
:104F800056F8200006903948007A00F0200010B151
:104F90000698404206903548007AC0F3811056F8D2
:104FA000200007903148008900F4807010B1079804
:104FB000404207900598C117A0FB042301FB043170
:104FC00000FB0510810041EA927005900698C11718
:104FD000A0FB042301FB043100FB0510810041EA22
:104FE000927006900798C117A0FB042301FB0431BF
:104FF00000FB0510810041EA927007900598000EB1
:105000008DF808000598000C8DF809000598000A35
:105010008DF80A000598C0B28DF80B000698000EB6
:105020008DF80C000698000C8DF80D000698000A0B
:105030008DF80E000698C0B28DF80F000798000E8C
:105040008DF810000798000C8DF811000798000AE1
:105050008DF812000798C0B28DF8130002AA0C2137
:105060004FF4257001F08CFE08B070BD580600208A
:1050700030B585B0044616A207CA02AB07C3C82CD8
:1050800003DD4FF0FF3005B030BDC82090FBF4F0D9
:10509000401E85B2280A8DF80000E8B28DF80100A4
:1050A0006A46022140F2162001F06AFE10B14FF06C
:1050B000FF30E8E702AA0C2140F6C12001F060FEB3
:1050C00010B14FF0FF30DEE7044884810020DAE7BA
:1050D000FEF2ABC4AAF1DFDFBBAFDFDF5806002072
:1050E0001FB504464848007A00F0030054F8200039
:1050F00001904548007A00F0040010B10198404248
:1051000001904148007AC0F3C10054F82000029099
:105110003D48007A00F0200010B102984042029011
:105120003948007AC0F3811054F8200003903648C3
:10513000008900F4807010B1039840420390334915
:10514000019880FB0101800F40EA810001902F4906
:10515000029880FB0110820042EA917002902B4974
:10516000039880FB0110820042EA9170039001983D
:10517000000E8DF800000198000C8DF801000198D8
:10518000000A8DF802000198C0B28DF803006A464B
:1051900004214FF4747001F0F3FD18B14FF0FF30AB
:1051A00004B010BD0298000E8DF800000298000CAB
:1051B0008DF801000298000A8DF802000298C0B232
:1051C0008DF803006A4604214FF4757001F0D8FD94
:1051D00010B14FF0FF30E3E70398000E8DF80000A8
:1051E0000398000C8DF801000398000A8DF8020066
:1051F0000398C0B28DF803006A4604214FF476701C
:1052000001F0BEFDCCE700005806002009E3CA0209
:1052100010B586B0044647A00068039046A0006819
:10522000029046A00068019045A00068009004F03C
:10523000030003A9085C8DF8140003A8C4F3C1019E
:10524000405C8DF8150003A8C4F38111405C8DF813
:10525000160004F0030002A9085C8DF8100002A8F3
:10526000C4F3C101405C8DF8110002A8C4F38111A0
:10527000405C8DF8120005AA032140F2264001F09F
:105280007FFD18B14FF0FF3006B010BD04AA032116
:1052900040F22A4001F074FD10B14FF0FF30F3E707
:1052A000019805900098049004F0040058B19DF80E
:1052B000140040F001008DF814009DF8100040F03B
:1052C00001008DF8100004F0200058B19DF8150081
:1052D00040F001008DF815009DF8110040F001002C
:1052E0008DF8110004F4807058B19DF8160040F05C
:1052F00001008DF816009DF8120040F001008DF8B5
:10530000120005AA03214FF4886001F039FD10B1A5
:105310004FF0FF30B8E704AA032140F2314001F01A
:105320002FFD10B14FF0FF30AEE70648048100209A
:10533000AAE700004CCD6C000CC92C003656760054
:105340002646660058060020F8B505460E464FF47E
:105350007A7095FBF0F000FB06F4200E8DF800004B
:10536000200C8DF80100200A8DF80200E0B28DF8C3
:1053700003006A4604214FF4AE7001F001FDF8BD50
:1053800038B50446052094FBF0F084B220128DF865
:105390000000E0B28DF801006A4602214FF4AD70C2
:1053A00001F0EEFC38BD38B50446052094FBF0F062
:1053B00084B220128DF80000E0B28DF801006A4638
:1053C00002214FF4AC7001F0DBFC38BD38B5044667
:1053D0000020009004F0010020B19DF8000040F092
:1053E0003000009004F0020020B19DF8000040F071
:1053F0000C00009004F0040020B19DF8000040F083
:10540000030000906A4601214FF4A47001F0B8FC3B
:1054100038BD38B50446012C01DA012402E0042C21
:1054200000DD0424601EC0B200906A46012140F2F3
:105430004F1001F0A5FC38BD2DE9FC4706460F468C
:1054400006F0070010B1B7F5C86F03DD4FF0FF306D
:10545000BDE8FC87384603F049FE8146594903F010
:10546000FBFC8046684600F03FFD9DF800000228E6
:1054700006D0042816D0082826D0102848D135E0B8
:105480004FF08D41404603F079FE814603F0F6FD72
:1054900084B24D49404603F071FE814603F0EEFDB3
:1054A00085B238E04FF08C41404603F067FE8146FC
:1054B00003F0E4FD84B24549404603F05FFE8146B7
:1054C00003F0DCFD85B226E04FF08B41404603F04F
:1054D00055FE814603F0D2FD84B23D49404603F0BB
:1054E0004DFE814603F0CAFD85B214E04FF08A41BB
:1054F000404603F043FE814603F0C0FD84B23549C7
:10550000404603F03BFE814603F0B8FD85B202E061
:105510004FF0FF309CE700BF20128DF80400E0B28E
:105520008DF8050028128DF80600E8B28DF8070006
:1055300006F00100A0B101AA02214FF4EA7001F0C7
:105540001FFC10B14FF0FF3082E70DF1060202217F
:105550004FF4927001F014FC10B14FF0FF3077E778
:1055600006F00200A0B101AA02214FF4EC7001F094
:1055700007FC10B14FF0FF306AE70DF1060202217F
:105580004FF4947001F0FCFB10B14FF0FF305FE777
:1055900006F00400A0B101AA02214FF4EE7001F060
:1055A000EFFB10B14FF0FF3052E70DF10602022180
:1055B0004FF4967001F0E4FB10B14FF0FF3047E775
:1055C000002045E700004843000040460000C04579
:1055D000000040450000C04438B50446052094FB57
:1055E000F0F085B228128DF80000E8B28DF80100C5
:1055F0006A4602214FF4EF7001F0C2FB38BD38B5A6
:105600000446052094FBF0F085B228128DF80000C6
:10561000E8B28DF801006A4602214FF4ED7001F006
:10562000AFFB38BD00BF054A128802F04002002AD5
:10563000F9D0C2B2014B1B1D1A80704700440040D4
:105640007CB5054628494968087801AB04220D213C
:1056500000F010FB08B107207CBD9DF80700C0F3E7
:1056600001109DF8041001F0E00140EAE1008DF81E
:1056700000009DF80700C0F381009DF8051001F0BF
:10568000E00140EAE1008DF801009DF8070000F01C
:1056900003009DF8061001F0E00140EAE1008DF8FA
:1056A000020000241CE01DF8040018B9002045F891
:1056B000240013E00D4845F8240006E055F82400C6
:1056C0000B4903F05BFD45F824001DF80400401E63
:1056D000C0B20DF804000028F0D100BF601CC4B2B5
:1056E000032CE0DB0020B7E71C0100207B14AE3E5A
:1056F0001D5A843F2DE9F04F87B005460C46914670
:1057000001208DF8100000208DF81100FE4A12686B
:10571000917CFD4A5268107804AB022200F0E5FA51
:1057200020B14FF0FF3007B0BDE8F08FC820FFF781
:105730004BF900208DF81000F34A1268D17BF24A31
:105740005268107804AB012200F0CFFA10B14FF08C
:10575000FF30E8E7EC4A12685179EB4A526810785A
:1057600004AB012200F0C1FA10B14FF0FF30DAE7CC
:10577000E54A1268917CE44A5268107804AB012231
:1057800000F0B3FA10B14FF0FF30CCE7DE4A1268F8
:10579000D17DDD4A5268107804AB012200F0A5FAF1
:1057A00010B14FF0FF30BEE7D74A12681179D64AE0
:1057B0005268107804AB012200F097FA10B14FF054
:1057C000FF30B0E70C208DF81000CF4A1268117935
:1057D000CD4A5268107804AB012200F086FA10B16D
:1057E0004FF0FF309FE70F20FFF7EEF8C648806AC2
:1057F000407A8DF81000C44A12689178C24A526803
:10580000107804AB012200F070FA10B14FF0FF30B5
:1058100089E7BD48806A007A8DF81000BA4A12689C
:105820005178B94A5268107804AB012200F05DFA51
:1058300010B14FF0FF3076E7B9F1000F07D0B24852
:10584000806A807A40F0E0008DF8100004E0AE48F5
:10585000806A807A8DF81000AB4A12689179AA4A62
:105860005268107804AB012200F03FFA10B14FF0FB
:10587000FF3058E7B9F1000F07D0A348806AC07A1B
:1058800040F0E0008DF8100003E0A048C07A8DF8E9
:1058900010009D4A1268D1799B4A5268107804AB77
:1058A000012200F022FA10B14FF0FF303BE7B9F1CE
:1058B000000F02D0C820FFF787F840208DF81000B5
:1058C000914A12681179904A5268107804AB01220B
:1058D00000F00BFA10B14FF0FF3024E778208DF87C
:1058E0001000894A12685179874A5268107804ABCF
:1058F000012200F0FAF910B14FF0FF3013E78349AD
:105900008889FFF761F800208DF810007E4A126840
:1059100051797D4A5268107804AB012200F0E5F914
:1059200010B14FF0FF30FEE6774A1268917A764A5E
:105930005268107804AB022200F09CF910B14FF0CD
:10594000FF30F0E69DF811009DF8101040EA012BA1
:105950000C209BFBF0F0C6B20020A86068602860B5
:10596000A06060602060824665E0674A1268D17A74
:10597000654A5268107804AB0C2200F07BF910B134
:105980004FF0FF30CFE69DF811009DF8101040EA6F
:10599000012000B2ADF808009DF813009DF8121028
:1059A00040EA012000B2ADF80A009DF815009DF80C
:1059B000141040EA012000B2ADF80C00BDF9081047
:1059C000206808442060BDF90A10606808446060DF
:1059D000BDF90C10A0680844A0609DF817009DF860
:1059E000161040EA012000B2ADF800009DF8190041
:1059F0009DF8181040EA012000B2ADF802009DF8B1
:105A00001B009DF81A1040EA012000B2ADF8040016
:105A1000BDF90010286808442860BDF902106868C4
:105A200008446860BDF90410A8680844A8600AF139
:105A3000010000F0FF0AB24597DB3448D0F800C0FF
:105A40002868C117090441EA10410704624600238F
:105A50003846FAF700FC32460023CDE90201FAF796
:105A6000FAFB28602948D0F800C06868C11709040B
:105A700041EA10410704624600233846FAF7EBFB7F
:105A800032460023CDE90201FAF7E5FB68601F48C2
:105A9000D0F800C0A868C117090441EA1041070402
:105AA000624600233846FAF7D6FB32460023CDE99A
:105AB0000201FAF7D0FBA8601448D0F804C02168AE
:105AC000C817000440EA11480F0462460023384614
:105AD0004146FAF7C0FB32460023CDE90201FAF74E
