:020000040800F2
:10000000100F002045010008C9290008391E00080A
:10001000692800081D0D0008093D000800000000C7
:10002000000000000000000000000000493100084E
:100030001D120008000000003D2E00089535000844
:100040005F0100085F0100085F0100085F01000810
:100050005F0100085F0100085F0100085F01000800
:100060005F0100085F010008711400085F010008CB
:100070005F0100085F0100085F0100085F010008E0
:100080005F0100085F0100085F0100085F010008D0
:10009000913C00085F0100085F0100085F01000853
:1000A0005F0100085F0100085F0100085F010008B0
:1000B000F935000811360008293600085F010008EC
:1000C0005F0100085F0100085F0100085F01000890
:1000D0005F0100085F0100081D390008D53B0008DA
:1000E000611200085F0100085F0100085F0100085D
:1000F0005F0100085F0100085F0100085F01000860
:100100005F0100085F010008413600085F01000838
:100110005F0100085F0100085F0100085F0100083F
:100120005F0100085F0100085F0100085F0100082F
:10013000DFF80CD000F01AFD00480047719000086D
:10014000100F00200648804706480047FEE7FEE7FC
:10015000FEE7FEE7FEE7FEE7FEE7FEE7FEE7FEE777
:1001600099350008310100082DE9F0410024061BF3
:10017000254671F1000605DA01240027D0EB0700BF
:1001800067EB0101161E73F1000605DA0027D2EBBA
:100190000702012567EB030300F072FB86460E465B
:1001A00017469C46AC4204D00025D0EB050E65EB0B
:1001B000010624B10020D2EB000760EB030C70466F
:1001C00031463A466346BDE8F08140EA01039B07A9
:1001D00003D009E008C9121F08C0042AFAD203E0BC
:1001E00011F8013B00F8013B521EF9D27047D2B220
:1001F00001E000F8012B491EFBD270470022F6E710
:1002000010B513460A4604461946FFF7F0FF20468C
:1002100010BD30B504460020034600E05B1C93424D
:1002200003D2E05CCD5C401BF8D030BD034611F832
:10023000012B00F8012B002AF9D118467047F0B4C1
:1002400080EA0102D40F4200B2EB410F02D2024613
:10025000084611464A0042D0C30DDDB2C1F3C75271
:10026000AD1A202D35DAC1F3160141F4000204B1B4
:100270005242C5F1200602FA06F12A411044B3EBBE
:10028000D05F23D0C4B1012DA0EBC35009DCF0BC7A
:100290004FF0004202EAC352DBB200F5000000F06A
:1002A0005ABB400000F1807000EBC350A0F1807099
:1002B00040EAD170490009E0490841EAC071A0EB69
:1002C000C35000F50000400800EBC350F0BC00F044
:1002D00039BB6142012202EB4101001BF6E7F0BC91
:1002E000704781F00041AAE780F00040A7E780EA6C
:1002F000010210B502F00043400022D04A001FD096
:10030000010E01EB1261C0F35600C2F3560240F435
:10031000000042F40002A0FB022000047F39140414
:1003200000D0401C50EA124001D44000491EC2B225
:100330000C0604EBD010401C4008802A02D003E0D9
:10034000002010BD20F00100002900DA0020184331
:1003500010BD30B480EA010202F0004530F00042E6
:1003600021F0004013D090B1C30DD40DC2F316019B
:10037000C0F31600E41A41F4000140F400027D3499
:10038000914201D3641C00E04900002C02DA30BC29
:10039000002070474FF400000023914201D3891AD6
:1003A000034340084FEA4101F7D151B1914202D1D4
:1003B0004FF0004105E002D24FF0010101E06FF083
:1003C000010103EBC450284430BC00F0BBBA2DE956
:1003D000FE4F804681EA0300C00F0C46009021F0DA
:1003E000004123F00045B8EB0200A94105D2404688
:1003F000214690461C460B46024623F0004010431F
:1004000047D0270DC7F30A00C3F30A510290401AE0
:10041000019040286BDAC3F3130040F4801B00986E
:10042000924620B10023D2EB030A63EB0B0B019839
:100430005946C0F14002504600F053FA06460D46B8
:1004400050465946019A00F06BFA10EB08006141E2
:10045000002487EA115284EAE7731A4340D0009AD5
:1004600062B3019A012A4FEA075215DC001B61EBC7
:1004700002014FF0004202EA0752CDE90042001C9F
:1004800041F5801132462B4600F0A2FA03B0BDE8D8
:10049000F08F40462146F9E7001B61EB0201001C8A
:1004A00041F5801300185B412018A2F5001747EBB7
:1004B000030140EAD570B6196D4111E06D084FEAAD
:1004C000360645EAC0754FEA0752001B61EB020190
:1004D000001C41F5801149084FEA300000195141D4
:1004E00032462B4603B0BDE8F04F00F062BA0098E8
:1004F000012240000023D0EB020263EBE07300987E
:1005000021464FEAE074B8EB000061EB0401E9E733
:1005100083F000435BE781F0004158E72DE9FE4F8F
:1005200081EA030404F0004421F0004100944FF0FC
:10053000000B23F0004350EA01045ED052EA0304AA
:100540005BD0C3F30A54C1F30A552C44A4F2F3342C
:100550000194A0FB0254C1F3130141F48011C3F3D1
:10056000130343F4801301FB024400FB034E840A8F
:10057000970A44EA815447EA8357A4FB0768029527
:100580008D0A05FB07854FEA932C04FB0C542705C5
:10059000029D4FEA065847EA1637B5EB08056EEBA1
:1005A000070C870E920E47EA811742EA8312A7FBD7
:1005B0000201B6EB0B0164EB00042B0D43EA0C3394
:1005C0005E1844EB1C50DA465146E7FB0201C5F3C6
:1005D00013044FEA0B3343EA14534FEA0432019CED
:1005E00043EA0603A4F10C040294009CCDE900B494
:1005F00000F0EEF903B0BDE8F08F00200146F9E706
:100600002DE9F04D81EA030404F0004B21F0004590
:1006100014464FF0000A23F0004150EA050220D0B2
:1006200054EA01021DD0C5F30A570246C5F313036D
:10063000C1F31300C1F30A5640F4801543F480134C
:10064000A7EB0608101BD64608F2FD3873EB050031
:1006500002D308F1010801E092185B41B8F1000FE4
:1006600003DA00200146BDE8F08D00204FF4801130
:10067000064684460EE0171B73EB050705D3121BD5
:1006800063EB050306434CEA010C49084FEA3000CE
:1006900092185B4150EA0107EDD152EA030012D0F3
:1006A00082EA040083EA0501084305D0101BAB4130
:1006B00006D20122002306E000224FF0004302E0B0
:1006C0006FF0010253101AEB06004CEB085110EBCF
:1006D0000A0041EB0B01BDE8F04D00F06AB9C10F13
:1006E00080EAE0700844CA079623002100F033B97D
:1006F00096230022114600F02EB90EB5C10F80EAF4
:10070000E0700844CA07002140F233438DE80E0030
:100710000A460B4600F05CF903B000BD0EB540F28E
:10072000334102910021CDE900110A460B4600F049
:100730004FF903B000BD00F0004220F00040C10DB1
:10074000C0F3160040F400007F2901DA0020704752
:10075000962903DCC1F19601C84001E09639884032
:10076000002AF4D04042704720F00040C10DC0F391
:10077000160040F400007F2901DA00207047962916
:1007800003DCC1F19601C840704796398840704734
:1007900070B5C1F30A5201F000450024C1F3130102
:1007A00040F2FF3341F480119A4201DA002070BD1B
:1007B00040F233439A42A2F2334203DC524200F049
:1007C0009FF800E090402C43F1D0404270BD00F013
:1007D000004230F000400AD0C10D01F56071C0F355
:1007E000160042EA0151C208400711437047002039
:1007F0000146704701F0004330B421F0004150EA57
:10080000010206D00A0DA2F56072C1F31301002A9D
:1008100002DC30BC00207047440F44EAC104C10030
:10082000E01830BC00EBC25000F08CB8002801DBAF
:10083000C0F10040002901DBC1F100418142704755
:10084000002801DBC0F10040002901DBC1F10041BB
:100850008842704730B50B46014600202022012413
:1008600009E021FA02F59D4205D303FA02F5491B7E
:1008700004FA02F52844151EA2F10102F1DC30BD94
:100880002DE9F05F0546002092469B4688460646C5
:10089000814640241BE0284641464746224600F058
:1008A0002FF853465A46C01A914110D311461846A4
:1008B000224600F016F82D1A67EB01084F46224633
:1008C0000120002100F00DF817EB00094E41201E19
:1008D000A4F10104DFDC484631462A464346BDE820
:1008E000F09F202A04DB203A00FA02F10020704732
:1008F0009140C2F1200320FA03F31943904070475E
:10090000202A04DB203A21FA02F00021704721FA64
:1009100002F3D040C2F120029140084319467047CB
:10092000202A06DBCB17203A41FA02F043EAE073B3
:1009300006E041FA02F3D040C2F1200291400843A0
:10094000194670470029A8BF7047401C490008BFDE
:1009500020F00100704710B4B0FA80FC00FA0CF0EF
:1009600050EA010404BF10BC704749B1CCF1200427
:1009700021FA04F411FA0CF118BF012121430843B4
:10098000A3EB0C01CB1D4FEA00614FEA102042BFE0
:10099000002010BC704700EBC35010440029A4BFD6
:1009A00010BC7047401C490008BF20F0010010BC7B
:1009B000704710B5141E73F1000408DA401C41F1B1
:1009C000000192185B411A4301D120F0010010BDD3
:1009D0002DE9F04D92469B4611B1B1FA81F202E049
:1009E000B0FA80F220329046FFF77BFF04460F46B4
:1009F00040EA0A0041EA0B0153465A46084313D025
:100A0000114653EA010019D0C8F140025046FFF7E1
:100A100077FF05460E46504659464246FFF761FFAE
:100A2000084305D0012004E020463946BDE8F08D9A
:100A30000020054346EAE0762C4337430A986305D5
:100A4000E40AA0EB08000022FD0A44EA47540A30F9
:100A500002D500200146E9E7010510196941DDE9E9
:100A6000084500196941BDE8F04DA2E770B521F0D5
:100A7000004303430CD0C1F30A550024D5EB040511
:100A800064EB0403D617AD1AB34102DB0020014624
:100A900070BD201841EB025170BD2DE9F04D0023CF
:100AA0001A461B1A8A4103DB00200146BDE8F08D7F
:100AB000C1F30A52C1F3130141F480154FF0000B4A
:100AC000D10702D100186D41521E0027044640F2A2
:100AD000FF11384601EB620A3E468046024600207E
:100AE0004FF48011FFF70CFFC2197141BB1846EBA0
:100AF0000100B4EB030C75EB000C04D3E41A65EBB6
:100B0000000517460E46241908F101006D41804684
:100B10003428E3DDF91946EB0600091BA84103D28E
:100B20004FF0FF32134601E0002213461BEB070093
:100B300046EB0A51BDE8F04DFFF73BBF30B5041E50
:100B400071F1000404DB4FF00044404264EB01010A
:100B5000141E73F1000405DB1C464FF000435242A3
:100B600063EB0403994208BF904230BD064C074D29
:100B700006E0E06840F0010394E80700984710346D
:100B8000AC42F6D3FFF7D8FAF0CB000810CC00083F
:100B900070B58D1810F8014B14F0030201D110F854
:100BA000012B231106D110F8013B03E010F8016B73
:100BB00001F8016B521EF9D1ABB110F8012B04F012
:100BC0000C048A1A0C2C03D0A2EB84129B1C08E0A4
:100BD00010F8014BA2EB0422F8E712F8014B01F8E0
:100BE000014B5B1EF9D5A942D4D3002070BD000093
:100BF0004648806940F004004449886144480068E0
:100C000020F47000424908604048806940F4007058
:100C10003E4988610846C06840F40070C8600846D4
:100C2000C06820F40070C8600846406820F4404066
:100C300048600846406840F4004048603548006815
:100C4000354908403349086008460068086008468E
:100C5000006820F480700860081D006820F0020021
:100C6000091D08600846006820F4602008600846F6
:100C7000006840F4602008600846006840F4801076
:100C800008600846006820F40060086021482830A9
:100C9000006820F470001F49283108600846006889
:100CA000002008601B480C30006820F470001949CF
:100CB0000C3108600846006840F460300860154850
:100CC000001D006840F001001249091D0860084637
:100CD000006840F00800086000BF0E48001D006872
:100CE00000F008000028F8D10A48001D006840F014
:100CF00004000849091D086000BF0648001D00687F
:100D000000F004000028F8D17047000000100240F5
:100D10000008014004240140FFFFF00000BFFEE78F
:100D2000F0B5DDE90554324E06EB0016366806F0E4
:100D300004061670167836B92D4E06EB0016366886
:100D4000760D0E6005E02A4E06EB00163668F608B2
:100D50000E60274E06EB0016366806F002061E707F
:100D6000234E06EB0016766806F00F062E70204E16
:100D700006EB0016B66826701D4E06EB0016B66828
:100D8000360A66701A4E06EB0016B668360CA67068
:100D9000174E06EB0016B668360EE670144E06EBDC
:100DA0000016F6682671124E06EB0016F668360A33
:100DB00066710F4E06EB0016F668360CA6710C4EE7
:100DC00006EB0016F668360EE67130B9094E366845
:100DD00046F02006074F3E6009E0012807D1054E86
:100DE000361D366846F02006024F3F1D3E60F0BDBE
:100DF000B06500400C6400402DE9F0416E48007879
:100E0000002870D16D480078012846D16B48C07920
:100E100000F0040008B9012401E04FF0FF346748F6
:100E2000C07900F0020008B9012501E04FF0FF355C
:100E30006248C07900F0010008B9012601E04FF0D6
:100E4000FF365E498A78497802EB012101FB04F004
:100E5000FFF745FC5A49086058490A79C97802EBFE
:100E6000012101FB05F0FFF73AFC564908605349A0
:100E70008A79497902EB012101FB06F0FFF72FFC8B
:100E800051490860084602684E4801684C480068AD
:100E900001F076FB00204D490860484800780228A0
:100EA00038D14648C07900F0080008B9012401E0B3
:100EB0004FF0FF344148C07900F0040008B9012523
:100EC00001E04FF0FF353D48C07900F0020008B95D
:100ED000012601E04FF0FF363848C07900F00100EC
:100EE00010B9012702E016E04FF0FF373348407891
:100EF0006043374908603148807868433549086065
:100F00002E48C0787043344908602C4800797843F3
:100F1000324908604EE02848007801284AD1274825
:100F20000078012846D12548C07900F0040008B9AE
:100F3000012401E04FF0FF342048C07900F00200A6
:100F400008B9012501E04FF0FF351C48C07900F0D9
:100F5000010008B9012601E04FF0FF3617498A78F1
:100F6000497802EB012101FB04F0FFF7B8FB1449BB
:100F7000086012490A79C97802EB012101FB05F0EA
:100F8000FFF7ADFB0F4908600C498A79497902EBFC
:100F9000012101FB06F0FFF7A2FB0B4908600846A0
:100FA0000268084801680648006801F0E9FA002074
:100FB00006490860BDE8F0816E0000206F00002047
:100FC000A4000020A8000020AC0000205C0100204C
:100FD00054000020580000205C0000206000002029
:100FE00008B50121082001F02BFF1420ADF8000006
:100FF00028208DF8030003208DF80200694602487E
:1010000000F0DAFD08BD0000000C014038B50020FA
:1010100000906B4601227521682007F0A1FD2CA0ED
:1010200005F0B0FD9DF8000068280ED000BF3148E3
:10103000006800F4E06030490843001D2D49086055
:10104000BFF3408F00BF00BFFEE708F0C5F90028DE
:101050003CD1782008F0CAFF10B91DA005F092FD20
:10106000782008F0A7F810B924A005F08BFDC8205F
:1010700008F06EFF10B92BA005F084FD06F0A2FC6D
:1010800010B932A005F07EFD3D4807F0AAFF0446E6
:1010900006F0F2FE10B93BA005F074FD40F27310AB
:1010A00006F038FB10B941A005F06CFDC82006F031
:1010B00013FE10B947A005F065FD09F083FD01207E
:1010C00008F042FE10B94CA005F05CFD38BD0000F0
:1010D0006D70755F7365745F73656E736F72206397
:1010E0006F6D706C657465202E2E2E2E2E2E0D0ABF
:1010F000000000000CED00E00000FA056D70755F67
:10110000636F6E6669677572655F6669666F206397
:101110006F6D706C657465202E2E2E2E2E2E0D0A8E
:10112000000000006D70755F7365745F73616D70B2
:101130006C655F7261746520636F6D706C6574655A
:10114000202E2E2E2E2E2E0D0A000000646D705FB4
:101150006C6F61645F6D6F74696F6E5F64726976E6
:1011600065725F6669726D7761726520636F6D701D
:101170006C657465202E2E2E2E2E2E0D0A0000007A
:1011800010010020646D705F7365745F6F72696534
:101190006E746174696F6E20636F6D706C657465D9
:1011A000202E2E2E2E2E2E0D0A000000646D705F54
:1011B000656E61626C655F666561747572652063FA
:1011C0006F6D706C657465202E2E2E2E2E2E0D0ADE
:1011D00000000000646D705F7365745F6669666F20
:1011E0005F7261746520636F6D706C657465202E2D
:1011F0002E2E2E2E2E0D0A006D70755F7365745F96
:10120000646D705F737461746520636F6D706C657D
:101210007465202E2E2E2E2E2E0D0A0070470000F3
:1012200008B50121102001F00BFE4FF48050ADF8FD
:10123000000010208DF8030003208DF8020069469D
:10124000064800F0B9FC4FF40060ADF800006946B4
:10125000024800F0B1FC09F0C9FE08BD00100140D1
:1012600070B56648006800287ED14FF4004064499C
:1012700008606448007808B9012000E00020614956
:10128000087061480078012804D160480068401C5B
:101290005E4908605B480078012803D101F0E0FD59
:1012A000002070BD022001F009FF5949086059482B
:1012B00000680968084457490860032001F0FEFEF1
:1012C0005549086055480068096808445349086052
:1012D000042001F0F3FE4042514908605148006883
:1012E000096808444F490860052001F0E7FE4042C4
:1012F0004D4908604D480068096808444B4908603A
:1013000001F0AEFD642001F0B7F900F05DFD054687
:10131000FFF7E5F90446464801682046FEF78FFFCF
:10132000434908604FF07E5142480068FEF787FF4E
:101330004049044608604049FFF778FA0ED13E491B
:101340003B480068FFF705F80446FFF7F4F93B490E
:10135000086000203649086036490860384800783F
:10136000012805D0374800E045E00078012801D188
:10137000FFF742FD34480068002806DD3248006867
:101380000F2802DA0F20304908602C48006802F06C
:10139000A1FA80BB2D480078F8B92D4801681C4897
:1013A000006800F055FF2B4908602B4801681A4877
:1013B000006800F0A3FF294908602948016818481F
:1013C000006800F0F1FF27490860274801681648C7
:1013D000006801F03FF82549086041F6F42005F067
:1013E0008FFB224803681F4802681C48016819489F
:1013F000006802F02DF8002053E700003C812142F4
:1014000014040140500100206D0000206001002004
:1014100010000020200000201400002024000020E4
:1014200018000020280000201C0000202C000020B4
:1014300058010020540100200000C8426400002030
:101440007F00002080000020C40000206E000020EB
:1014500054000020440000205800002048000020D4
:101460005C0000204C0000206000002050000020A4
:1014700010B5102000F030F810B3102000F026F85E
:101480002820104908700020C870084601F09EFA14
:1014900000231A461946184601F0DAFF0A48007878
:1014A00008B101F01FFF0848407808B101F0D8FEEC
:1014B0002820044908700120C870084601F086FA07
:1014C00010BD0000F8010020000000200149086064
:1014D0007047000014040140014600200022074B21
:1014E0001B6803EA0102054B14331B680B4013B160
:1014F0000AB1012000E00020704700000004014014
:10150000002123498279002A3AD00A4612680368EA
:101510009A430B461A600A1D126803689A430B1D12
:101520001A60027911440A6803681A430A60184A6B
:101530000832126803689A43154B08331A601A1D63
:10154000126803689A43124B0C331A604279102ACE
:101550000ED11A1F126803681A430D4B08331A6024
:101560001A1D126803681A43094B0C331A600DE008
:101570000749427911440A6803681A430A6005E082
:10158000027911440A6803689A430A6070470000B0
:10159000000401401FB548208DF80F0003208DF88E
:1015A0000E0003A9184800F007FB1021164800F0B0
:1015B00099FB0121042001F043FC4FF4A06001F0ED
:1015C0003DFA0A208DF8080002208DF8090000205D
:1015D0008DF80A0001208DF80B0002A801F0F6F941
:1015E0000421002000F0C8FA1020009000208DF89F
:1015F00004000C208DF8050001208DF806006846D7
:10160000FFF77EFF1FBD00000008014010B5124823
:10161000806940F00800104988611048006820F097
:1016200070400E4908600846006840F000400860BD
:101630000A480830006840F4004008490831086052
:1016400001220F21104600F0CDF9022328220121AA
:10165000184601F0AFF810BD00100240040C014024
:1016600010B53748406840F48070354948603548C7
:10167000C06940F001003349C8610846806940F004
:10168000040088610846806940F0080088612E489F
:10169000006820F070402C4908600846006840F05F
:1016A000804008602948006820F47040274908609D
:1016B0000846006840F4804008604FF08040808910
:1016C00040F001004FF0804188810846808940F059
:1016D0004000888101231C220321184601F06AF88A
:1016E00000204FF0804108854FF6FF70888508463E
:1016F000008820F4407008800846008820F06000D0
:1017000008800846008B40F0010008830846008BE3
:1017100040F4807008830846008C20F002000884A2
:101720000846008C20F0200008840846008940F01C
:10173000030008810846008840F00100088010BDC1
:10174000000001400010024004080140000C01406C
:1017500010B53348C06940F002003149C8610846FD
:10176000806940F0080088612E48006820F07F40C2
:101770002C4908600846006840F0884008602A4804
:10178000008840F00100284908800846008840F0A1
:101790004000088001231D220321184601F00AF8A9
:1017A000002021491C3108804FF6FF70091D088078
:1017B0001D480C38008820F440701B490C39088003
:1017C0000846008820F06000088017480C30008828
:1017D00040F0010014490C3108800846008840F4AC
:1017E0008070088010481430008820F002000E49F4
:1017F000143108800846008820F0200008800A483C
:10180000001F008840F003000749091F08800648B0
:101810000C38008840F0010003490C39088010BDE5
:1018200000100240000801400C04004010B533488D
:10183000C06940F004003149C8610846806940F041
:10184000080088612E48006820F07F402C4908601D
:101850000846006840F0884008602A48008840F048
:101860000100284908800846008840F040000880B0
:1018700001231E220321184600F09CFF002021496D
:101880001C3108804FF6FF70091D08801D480C3878
:10189000008820F440701B490C39088008460088F5
:1018A00020F06000088017480C30008840F00100EC
:1018B00014490C3108800846008840F48070088084
:1018C00010481430008820F002000E4914310880BE
:1018D0000846008820F0200008800A48001F008881
:1018E00040F003000749091F088006480C380088AB
:1018F00040F0010003490C39088010BD001002407F
:10190000000C01400C08004010B53348C06940F09D
:1019100008003149C8610846806940F004008861C8
:101920002E48006820F0FF002C4908600846006837
:1019300040F044000860C804808940F00100C904F8
:1019400088810846808940F0400088810123322246
:101950000321184600F02EFF0020214908804FF691
:10196000FF70091D08801E482838008820F4407048
:101970001B49283908800846008820F0600008804C
:1019800017481038008840F00100154910390880C8
:101990000846008840F480700880114808380088A4
:1019A00020F002000E49083908800846008820F01F
:1019B000200008800A482038008840F003000849C9
:1019C0002039088006482838008840F00100044982
:1019D0002839088010BD00000010024000080140B6
:1019E000280C004070B504460B46CE1701EB9676E6
:1019F000C6F38700CE1701EB9676B610A1EB8606EC
:101A0000B606350E1C4B9B6943F001031A4EB361B9
:101A10004FEAB63353F820300F26AE40B343174E8B
:101A200046F82030334653F8203004FA05F61E43BA
:101A3000124B43F82060124B1B6801268E40334343
:101A40000F4E336002F0010343B10D4B0C331B68A2
:101A500001268E4033430A4E0C36336002F00203F7
:101A600043B1074B08331E6801238B401E43044BD0
:101A700008331E6070BD00000010024008000140E5
:101A80000004014010B50A222F49304801F048FBFC
:101A90002D4800884FF6FF7188422DD12A48408892
:101AA000884229D128488088884225D12648C08884
:101AB000884221D12448008988421DD1224840898A
:101AC000884219D120488089884215D11E2020499A
:101AD000086040F6B8301F4908601F481F49086079
:101AE00000201F4908601F481F4908601F482049FF
:101AF00008602049086025E0134800881449086000
:101B000011484088134908600F498888FEF7F0FDA6
:101B1000124908600C49C888FEF7EAFD10490860C0
:101B200009490889FEF7E4FD0F490860064948891C
:101B3000FEF7DEFD0E49086003498889FEF7D8FDEF
:101B40000C49086010BD0000C004002000E000083F
:101B5000C4000020C80000200000A041B000002008
:101B6000B400002000004843B800002000004041BD
:101B7000BC000020C000002030B500228B071C0FE5
:101B80000F2303FA04F20B4B8C1053F824309343C9
:101B9000084C8D1044F8253023468C1053F824301F
:101BA0008C07240F00FA04F42343024C8D1044F8F0
:101BB000253030BD080001402DE9F04102460025E6
:101BC0000026002000230024002791F803C00CF019
:101BD0000F0591F803C00CF0100CBCF1000F03D0FE
:101BE00091F802C04CEA050591F800C0BCF1000F65
:101BF00031D0146800202BE04FF0010C0CFA00F3F8
:101C0000B1F800C00CEA03069E4220D183004FF0D9
:101C10000F0C0CFA03F7BC4305FA03FC4CEA04046E
:101C200091F803C0BCF1280F06D14FF0010C0CFA5B
:101C300000FCC2F814C00AE091F803C0BCF1480FE0
:101C400005D14FF0010C0CFA00FCC2F810C0401C8A
:101C50000828D1D31460B1F800C0BCF1FF0F34DD07
:101C6000546800202EE000F1080C4FF0010808FA3B
:101C70000CF3B1F800C00CEA03069E4221D18300A8
:101C80004FF00F0C0CFA03F7BC4305FA03FC4CEAC7
:101C9000040491F803C0BCF1280F05D100F1080C31
:101CA00008FA0CF8C2F8148091F803C0BCF1480F90
:101CB00007D100F1080C4FF0010808FA0CF8C2F83F
:101CC0001080401C0828CED35460BDE8F081024645
:101CD000002093680B400BB1012000E0002070470A
:101CE000416170470161704710B504462148007892
:101CF00098BB34B1012C0FD0022C18D0032C2DD15D
:101D000020E04FF480511C48FFF7EAFF4FF40061D8
:101D10001948FFF7E5FF22E04FF480511648FFF71E
:101D2000E1FF4FF400611448FFF7DAFF17E04FF4CA
:101D300080511148FFF7D4FF4FF400610E48FFF7C0
:101D4000D1FF0CE04FF480510B48FFF7CBFF4FF46D
:101D500000610948FFF7C6FF01E007E000BF00BFD0
:101D60000649074809F0ECFA80B210BD40F2E730AE
:101D7000FBE70000B804002000100140F00A00203A
:101D80002C09002001460F48006820F01F000D4A72
:101D9000106010460068084310600A482C3800683C
:101DA00040F48000074A2C3A106000BF05483438E0
:101DB000006800F002000028F8D0024818300068DF
:101DC00080B27047342401402DE9F04F87B00520E0
:101DD000FFF7D8FF0190FEF7A1FC80464FF0663276
:101DE000104BFEF79BFB00220F4BCDE90201FEF7E3
:101DF00095FB00220D4BCDE90401FEF78FFB064653
:101E000000220B4BFEF7FCFB04460022094BFEF7B9
:101E1000F7FB8246FEF7BCFC0690069807B0BDE8CB
:101E2000F08F000066660A4000002640000059401E
:101E30000000F03F0000B04000BFFEE770B505466F
:101E40000E46002400F0EAF8284600F0B5F8641CBD
:101E500000F03CF9304600F0AFF8641C00F036F9B1
:101E600000F0DCF8691CC8B200F0A6F8641C00F0B1
:101E70002DF9002000F068F8044600F003F9204630
:101E800070BD000010B500200E4908600E480068C3
:101E900020F470400C4908600846006840F4405047
:101EA000086000200949C1F8AC01012005F0E2FBFF
:101EB00001200449086005F0DDFB00200349C1F85A
:101EC000A80110BDA8812142040C014000802142DC
:101ED0000848806940F008000649886106480068A3
:101EE00020F47F40044908600846006840F44C50E4
:101EF0000860704700100240040C014010B500203B
:101F00000E4908600E48006820F470400C490860D3
:101F10000846006840F44050086001200949C1F8B3
:101F2000AC0105F0A7FB01200449086005F0A2FB05
:101F300000200449C1F8A80110BD0000A881214279
:101F4000040C01400080214270B50546002417486A
:101F5000006820F47040154908600846006840F4A5
:101F600000400860002616E00020114908600220A9
:101F700005F080FB01200F49C1F8A8016006040E9E
:101F80000B487C38006808B1601CC4B2022005F020
:101F900071FB701CC6B2082EE6DB15B1FFF772FFAD
:101FA00001E0FFF7ABFF204670BD0000040C0140CC
:101FB000A88121420080214270B50446144800687F
:101FC00020F47040124908600846006840F4405010
:101FD000086000200F490860002516E0E0090D495F
:101FE000091D08606006040E012005F043FB012076
:101FF0000949C1F8A80105F03DFB0020054908602A
:10200000012005F037FB681CC5B2082DE6DB70BD6A
:10201000040C0140A88121420080214210B51648DD
:10202000006820F47040144908600846006840F4D5
:10203000405008600120114908601148D0F82C0177
:1020400008B9002010BD01200C49091F086005F0E7
:1020500011FB00200A49C1F8AC010848803800682B
:1020600008B10020EEE7012005F004FB0020034941
:10207000091F08600120E5E7040C0140AC81214202
:102080000080214210B50E48006820F470400C49D1
:1020900008600846006840F4405008600020094984
:1020A00008600949C1F8AC01012005F0E3FA0120FC
:1020B000044908600449C1F8AC0105F0DBFA10BD21
:1020C000040C0140A88121420080214210B5002467
:1020D0001548006820F470401349086008460068FD
:1020E00040F40040086001201049086005F0C2FA81
:1020F00001200F49C1F8A80105F0BCFA0AE0601CF4
:10210000C4B2322C03DDFFF7BDFF002010BD01205B
:1021100005F0B0FA0548803800680028EFD103497F
:10212000091F08600120F1E7040C0140AC81214245
:102130000080214270B505460E46144631462846B9
:10214000FFF77CFE2070012070BDF8B506460F46F3
:1021500014461D466A4639463046FFF7EBFF2DB15F
:102160000120A0409DF80010084305E00120A04098
:102170009DF8001021EA0000C0B200909DF80020F8
:102180003946304600F036F8F8BD2DE9F8430746E9
:10219000884614461D46089E6A4641463846FFF763
:1021A000C9FF28B3601CFF2101FA00F0C4F1080147
:1021B0002944491EFF220A41104300F0FF09C5F1DE
:1021C000080006FA00F0C6B2C4F1070006419DF807
:1021D000000000EA090000909DF8000030430090E4
:1021E0009DF800204146384600F004F8BDE8F88329
:1021F0000020FBE737B504460D4602AB0122294615
:10220000204600F001F83EBD2DE9F04180460D4624
:1022100016461F460024FFF701FF4046FFF7CCFE9D
:10222000FFF754FF2846FFF7C7FEFFF74FFF00BF39
:1022300006E0385DFFF7C0FEFFF748FF601CC4B240
:10224000B442F6DBFFF71EFF0120BDE8F08100007D
:102250002DE9F05F04460D46601B224908600846E0
:102260000068FEF73CFA83461F4801685846FEF7AF
:102270003EF880461B4909681C4A1268881AFEF716
:102280002EFA83461A4801685846FEF730F8814610
:102290004146FDF7D4FF074616480068FEF71FFACF
:1022A00082463946FDF7CBFF0646FEF744FA114950
:1022B000086008460068B0F5E15F02DD4FF4E150C8
:1022C00008600C48006810F5E15F02DA0A48094925
:1022D0000860044800680549086006480068BDE8D1
:1022E000F09F000064010020C00000206C0100206D
:1022F000BC00002068010020E0E3FFFF2DE9F05F53
:1023000004460D46601B2249086008460068FEF737
:10231000E6F983461F4801685846FDF7E8FF804606
:102320001B4909681C4A1268881AFEF7D8F98346C7
:102330001A4801685846FDF7DAFF81464146FDF725
:102340007EFF074616480068FEF7C9F982463946FF
:10235000FDF775FF0646FEF7EEF9114908600846DD
:102360000068B0F5E15F02DD4FF4E15008600C4811
:10237000006810F5E15F02DA0A480949086004487C
:1023800000680549086006480068BDE8F09F000045
:1023900070010020C000002078010020BC00002057
:1023A00074010020E0E3FFFF2DE9F05F04460D46D5
:1023B000601B2249086008460068FEF790F98346D2
:1023C0001F4801685846FDF792FF80461B4909687F
:1023D0001C4A1268881AFEF782F983461A48016877
:1023E0005846FDF784FF81464146FDF728FF074622
:1023F00016480068FEF773F982463946FDF71FFF5D
:102400000646FEF798F91149086008460068B0F5DD
:10241000E15F02DD4FF4E15008600C48006810F500
:10242000E15F02DA0A480949086004480068054982
:10243000086006480068BDE8F09F00007C010020AD
:10244000C000002084010020BC000020800100208A
:10245000E0E3FFFF2DE9F05F04460D46601B2249D3
:10246000086008460068FEF73AF983461F4801688D
:102470005846FDF73CFF80461B4909681C4A126814
:10248000881AFEF72CF983461A4801685846FDF76A
:102490002EFF81464146FDF7D2FE074616480068EA
:1024A000FEF71DF982463946FDF7C9FE0646FEF7DE
:1024B00042F91149086008460068B0F5E15F02DDA5
:1024C0004FF4E15008600C48006810F5E15F02DA53
:1024D0000A48094908600448006805490860064838
:1024E0000068BDE8F09F000088010020C0000020C7
:1024F00090010020BC0000208C010020E0E3FFFFE1
:1025000001464906084A926942F00102064B9A6167
:10251000064A526822F0E062044B5A601A4652683A
:102520000A435A607047000000100240000001405A
:102530000F48806940F008000D4988610D48006827
:102540000D4908400B490860084600680B490843DC
:102550000849086007480830006840F48050054981
:10256000083108600846006840F480400860704701
:1025700000100240040C0140FFFFF0F000000808CA
:102580002DE9F04704460E46154627492846FDF733
:10259000AEFE824684F0004931464846FDF74FFEC4
:1025A00080465146FDF79DFE0746FEF7C4F81F49D9
:1025B00008601D492846FDF79AFE804631462046B0
:1025C000FDF73DFE81464146FDF78BFE0746FEF7CF
:1025D000B2F81749086014492846FDF788FE82467C
:1025E00084F0004931464846FDF729FE80465146B1
:1025F000FDF725FE0746FEF79EF80E4908600A49DA
:102600002846FDF774FE804631462046FDF717FE4A
:1026100081464146FDF713FE0746FEF78CF8064952
:102620000860BDE8F08700001058393E54000020D3
:10263000580000205C000020600000200C488069E9
:1026400040F008000A4988610A48006820F47000D8
:10265000084908600846006840F4401008600548D2
:102660000830006840F400500249083108607047A3
:1026700000100240040C014018B90021094A116001
:102680000FE009490968491C074A1160814208D1D5
:1026900004490968C943054AC2F8B4110021024A35
:1026A00011607047B4812142D40000200080214293
:1026B00010B5022000F010F8032000F021F80020EF
:1026C00000F014F8002000F037F8002000F02BF89C
:1026D000002000F01FF810BD38B504460323022285
:1026E0006B21D0200094FFF750FD38BD38B504466B
:1026F000022304221C21D0200094FFF746FD38BDA0
:1027000038B50446022304221B21D0200094FFF791
:102710003CFD38BD10B50446234601223721D020A8
:10272000FFF713FD10BD10B50446234605226A21AC
:10273000D020FFF70AFD10BD10B50446234606223F
:102740006B21D020FFF701FD10BD000000B5002077
:1027500015490861C8601420486100208861C8617B
:102760000846006840F001000860084640680F49CC
:1027700008400D494860084600680D4908400A496C
:1027800008600846006820F4802008600846406819
:1027900020F4FE0048600020886000214FF00060B7
:1027A00000F058F800BD0000001002400000FFF8E3
:1027B000FFFFF6FE2DE9F0410746884614461D4608
:1027C000284600F033F8C5F1040007FA00F60F20A0
:1027D000284100EA0800064306F00F06E21704EB62
:1027E000D2625211920002F1E022D2F80021214679
:1027F000E31704EBD3635B11A4EB431C012303FA3F
:102800000CF31A432046E31704EBD3635B119B00E0
:1028100003F1E023C3F800210348005D40EA0610FD
:1028200001490855BDE8F08100E400E001460723B6
:1028300023EA01021202054B18684FF6FF03184005
:10284000034B18431043014B186070470CED00E038
:102850000000FA05024A0A400243024B1A60704720
:1028600080FFFF1F08ED00E000BFFEE71048806911
:1028700040F008000E4988610846806940F0100069
:1028800088610C48006820F0FF000A49086008468B
:10289000006840F0220008600748006820F47F00CC
:1028A000054908600846006840F408100860704751
:1028B00000100240000C01400010014000B503462A
:1028C0000A46FFF7D3FF3D48806940F400503B497A
:1028D00088610846806940F0100088613848406887
:1028E00020F0FF00364948600846406840F0BB00D1
:1028F00048600846006820F07F400860084600688D
:1029000040F03B4008602F480380001F02802D48A4
:102910001438008840F060002A49143908800846BD
:10292000008840F4C0400880081D008840F0600026
:10293000091D08800846008840F4C0400880081F30
:10294000008840F00800091F08800846008840F40D
:1029500000600880081D008840F00800091D0880FC
:102960000846008840F400600880081D008840F098
:102970000100091D08800846008840F0100008800A
:102980000846008840F4807008800846008840F4BB
:10299000805008800B481830008840F400400949F6
:1029A000183108804FF4004006492C390880084649
:1029B000008840F00100088000BD000000100240C7
:1029C000001001402C3401407047000070B5002118
:1029D00000230F22C47804B3154C246804F4E06487
:1029E000C4F5E064210AC1F10403CA40447804FA42
:1029F00003F184781440214309010E4C0678A15557
:102A0000047804F01F050124AC4005786D11AD0079
:102A100005F1E025C5F8004109E0047804F01F0540
:102A20000124AC40044D0678761145F8264070BD6F
:102A30000CED00E000E400E080E100E00249014329
:102A4000024A1160704700000000FA050CED00E03A
:102A500030B500240CE0002506E00020074901EB1A
:102A6000C5010855681CC5B2802DF6DB601CC4B2D8
:102A7000082CF0DB00F0F2F830BD0000E804002084
:102A8000F0B5144600267F2801DC3F2900DDF0BDAB
:102A90000B46CF1701EB5777FF10C7F10707FAB2C4
:102AA000CF1701EB5777FF10A1EBC707FDB2C5F1B8
:102AB00007070123BB40DEB24CB10A4B03EBC00356
:102AC0009B5C3343074F07EBC007BB5408E0054B43
:102AD00003EBC0039B5CB343024F07EBC007BB543F
:102AE00000BFD4E7E804002010B55548806940F0E5
:102AF0001000534988610846806940F001008861F0
:102B000050484068C0F313004E494860084640688A
:102B10004D4908434B4948600846006820F00F00C3
:102B200008600846006840F00200086047480068F6
:102B300040F48070454908604148006A20F0010077
:102B40003F4908624248008820F00100404908805F
:102B50003E48006820F480703C49086000203D49F0
:102B60000860642004F068FD01203B49C1F8BC0105
:102B70000021AE2000F036F90021D52000F032F916
:102B80000021502000F02EF90021A82000F02AF9A1
:102B900000213F2000F026F90021D32000F022F987
:102BA0000021084600F01EF90021402000F01AF92B
:102BB00000218D2000F016F90021142000F012F9F8
:102BC0000021202000F00EF90021022000F00AF977
:102BD0000021A12000F006F90021C02000F002F938
:102BE0000021DA2000F0FEF80021122000F0FAF8AF
:102BF0000021812000F0F6F80021EF2000F0F2F82B
:102C00000021D92000F0EEF80021F12000F0EAF8D0
:102C10000021DB2000F0E6F80021302000F0E2F88F
:102C20000021A42000F0DEF80021A62000F0DAF850
:102C30000021AF2000F0D6F8FFF70AFF10BD00001A
:102C400000100240001001400000202200700040EF
:102C5000306C0040BC0122420000224230B500240A
:102C60001CE004F1B001C8B2002100F0BBF8002163
:102C7000084600F0B7F80021102000F0B3F8002556
:102C800008E0084901EBC501085D012100F0AAF840
:102C9000681CC5B2802DF4DB601CC4B2082CE0DBDC
:102CA00030BD0000E80400202DE9F04F80460C46BE
:102CB00015461E46A346A5F12000C5B200273EE0FA
:102CC0000C2E07D105EB45001F4901EB800010F8E1
:102CD000079004E01D4800EB051010F807904FF036
:102CE000000A26E009F0800028B121464046099AF2
:102CF000FFF7C6FE09E0099808B9012000E00020AE
:102D0000024621464046FFF7BBFE4FEA49604FEAC4
:102D10001069601CC4B2A4EB0B00B04205D15C4644
:102D200008F1010000F0FF0806E00AF1010000F0E0
:102D3000FF0ABAF1080FD5DB00BF781CC7B2B74253
:102D4000BEDBBDE8F08F000078B30008ECB70008E8
:102D50002DE9FF4F81B0074691461E460E9D4FF06C
:102D6000000A002439E0301B401EC1B20A2007F0DF
:102D7000E6F9B9FBF0F00A21B0FBF1F201FB120811
:102D8000BAF1000F16D1701EA04213DDB8F1000F8A
:102D90000ED10120AB4605EBDB71491001FB04713C
:102DA0000090C8B22B4620220299FFF77DFF12E067
:102DB0004FF0010A0120AB4605EBDB71491001FB26
:102DC00004710090C8B208F13001CAB22B460299D2
:102DD000FFF76AFF00BF601CC4B2B442C3DB05B09A
:102DE000BDE8F08F10B50A461AB10123124C2360DA
:102DF00002E00023104C2360002116E000230E4C5B
:102E00003434236000F080031BB10123241D2360B0
:102E100003E00023084C383423600123064C34348B
:102E200023604306180E4B1CD9B20829E6DB0123A8
:102E3000014C236010BD0000800122427047000059
:102E400029B1064A92690243044B9A6104E0034A9D
:102E500092698243014B9A61704700000010024062
:102E60002DE9F04F8FB00CA889490DAB08AACDE928
:102E700000108849884804F0B1FD8548008800F4B6
:102E8000807000287ED00898FDF729FC04464FF09A
:102E90009D41FDF75EFA814908600998FDF71FFC26
:102EA00004464FF09D41FDF754FA7D4908600A98A9
:102EB000FDF715FC04464FF09D41FDF74AFA7949AC
:102EC00008600B98FDF70BFC04464FF09D41FDF7A1
:102ED00040FA75490860714801684FF08040FDF77D
:102EE00006FA06906F4801680698FDF700FA8246D8
:102EF0006B4801684FF04040FDF7F9F906906A48C9
:102F000001680698FDF7F3F983465146FDF797F9F6
:102F10000790FDF75CFC804604F016F806464FF07B
:102F20006632624BFDF7FAFA0446FDF763FC60492E
:102F300008605C4801684FF08040FDF7D8F90390C5
:102F4000584801680398FDF7D2F982465448016851
:102F50004FF04040FDF7CBF90390514801680398CA
:102F6000FDF7C5F983465146FDF7BBF981464FF0A1
:102F70007E51FDF764F90446FDF729FCCDE9040113
:102F8000464800E081E001684FF08040FDF7AFF96E
:102F90008346434801685846FDF7A9F981464148F0
:102FA00001684FF08040FDF7A2F983463E48016872
:102FB0005846FDF79CF982464946FDF740F904461C
:102FC000FDF705FC0746DDE9042304F005FA4FF0A0
:102FD0006632364BCDE90601FDF7A0FA0546FDF74E
:102FE00009FC34490860304801680068FDF77FF942
:102FF00003902C4801680068FDF779F90290284891
:1030000001680068FDF773F9834624480168006889
:10301000FDF76DF959460190FDF711F982460299C5
:10302000FDF75FF981460399FDF75BF90446FDF76B
:10303000CEFBCDE904011C48016818480068FDF783
:1030400056F982461748016815480068FDF74FF9A0
:1030500083465146FDF7F3F881464FF08041FDF776
:1030600046F90446FDF7B3FB0746DDE9042304F007
:10307000B3F94FF066320D4BCDE90601FDF74EFA7C
:103080000546FDF7B7FB0C4908600FB0BDE8F08FAF
:10309000FC000020F6000020F000002000010020CD
:1030A00004010020080100200C01002066A64C400D
:1030B000980000209C000020A0000020014602296A
:1030C00006D003290DD0042912D005291ED116E0FF
:1030D0004FF08042928C10B200224FF080439A84CD
:1030E00016E00C4A128810B200220A4B1A800FE038
:1030F000094A128810B20022074B1A8008E0074ADA
:10310000128810B20022054B1A8001E0002000BF97
:1031100000BF70472404004024080040240C0040F5
:1031200030B503460C461546002207E0184600F06D
:1031300008F824F812009B1C501C82B2AA42F5DB4E
:1031400030BD0146088870477047000000B58DB05B
:103150000121C802FFF774FE01210D20FFF770FE68
:103160004FF47060ADF8300018208DF83300032064
:103170008DF832000CA93748FEF71EFD4FF4805041
:10318000ADF8300018208DF8330003208DF83200A0
:103190000CA93148FEF710FDC720ADF8280041F614
:1031A0001F40ADF824000020ADF82A00ADF826003D
:1031B00009A92A4800F03CFB7020ADF8140001205A
:1031C000ADF81600B920ADF81A000020ADF81C00CB
:1031D000ADF81E004FF48070ADF8200005A91F481F
:1031E00000F072FA08211D4800F0BAFAC320ADF8C9
:1031F0001A0005A9194800F0BDFA0821174800F087
:1032000009FB4FF40060ADF804004010ADF8060073
:103210008010ADF808000020ADF80A004FF480508F
:10322000ADF80C004000ADF80E004000ADF8100005
:1032300001A90A4800F01CFA0121084800F034FAFC
:103240000121064800F008FA0121044800F020FAA4
:103250000DB000BD00080140000C0140002C0140F1
:1032600010B5002006F070FDB9240BE0A1B21C4897
:1032700000F0D9FA322004F0A1F90021184800F03A
:10328000D2FA641EAF2CF1DA4FF47A7004F096F99A
:10329000B921134800F0C7FA4FF4FA7004F08EF920
:1032A00000210F4800F0BFFAB9210D4800F0BDFA27
:1032B0004FF4FA7004F082F90021094800F0B5FAE1
:1032C000C321074800F0B1FA4FF4FA7004F076F920
:1032D0000021034800F0A9FA012006F035FD10BDD9
:1032E000002C014010B5002006F02EFDB9240BE0A3
:1032F000A1B21C4800F097FA322004F05FF9C8210F
:10330000184800F090FA641CC32CF1DD4FF47A7079
:1033100004F054F9B921134800F085FA4FF4FA701B
:1033200004F04CF9C8210F4800F07DFAB9210D488E
:1033300000F07BFA4FF4FA7004F040F9C821094814
:1033400000F073FAC321074800F06FFA4FF4FA70E7
:1033500004F034F9C821034800F067FA012006F0B0
:10336000F3FC10BD002C014010B500F001F810BDB9
:103370000CB50020019000903348006840F4803084
:103380003149086000BF3048006800F40030009008
:103390000198401C0190009818B90198B0F5A06FF1
:1033A000F1D12948006800F4003010B101200090EC
:1033B00001E0002000900098012843D123480068D4
:1033C00040F01000214908600846006820F0030022
:1033D00008600846006840F0020008601A4840682B
:1033E000194948600846406848600846406840F40B
:1033F000806048600846406820F47C1048600846B9
:10340000406840F4E81048600846006840F080706A
:10341000086000BF0C48006800F000700028F9D078
:103420000948406820F003000749486008464068A2
:1034300040F00200486000BF0348406800F00C0004
:103440000828F9D10CBD0000001002400020024005
:1034500070B504460020002C06DD2518264E358068
:103460000025264E356007E004F5E1552D1A224E61
:1034700035800125214E3560002909DDC1F5E15572
:103480002D1A1D4E361D358001251D4E356007E075
:103490004D420544184E361D35800025184E3560C6
:1034A000002A0ADDC2F5E1552D1A134E0836358083
:1034B0000125124E361D356008E0554205440E4E7A
:1034C0000836358000250D4E361D3560002B08DD91
:1034D0001D18094E0C3635800025094E361D356005
:1034E00009E003F5E1552D1A034E0C363580012510
:1034F000034E361D356070BD3434014090012242C8
:103500008081214230B504460025FFF71FF91F488E
:10351000006840F480301D49086000BF1B48006807
:10352000400C0028FAD04FF4806018494860A01E73
:10353000C4B20846406840EA844048600846406893
:1035400040F4803048601248006840F03200104972
:1035500008600E48006840F080700C49086000BFA9
:103560000A480068400E0028FAD00848406840F039
:1035700002000649486005E004484068C0F387053A
:1035800005F00305022DF7D130BD00000010024008
:10359000002002407047000010B51348006840F05A
:1035A00001001149086008464068104908400E496A
:1035B0004860084600680E4908400B490860084604
:1035C000006820F4802008600846406820F4FE006F
:1035D00048604FF41F008860FFF7C6FE4FF00060A0
:1035E0000449086010BD0000001002400000FFF810
:1035F000FFFFF6FE08ED00E04FF08040008A4FF03C
:103600008040008A20F001004FF08041088270471E
:10361000044800880348008820F001000149088020
:1036200070470000100400400448008803480088E8
:1036300020F0010001490880704700001008004098
:10364000044800880348008820F0010001490880F0
:1036500070470000100C004021B1028842F0800247
:10366000028004E002884FF67F731A4002807047A0
:103670000A884B881A438B881A43CB881A430B89D4
:103680001A434B891A438B891A43A0F84420704788
:1036900021B1028842F00102028004E002884FF664
:1036A000FE731A400280704731B1B0F8442042F4F2
:1036B0000042A0F8442005E0B0F84420C2F30E0216
:1036C000A0F844207047000070B5002400220023B9
:1036D000058C4FF6FE7635400584028C8388048B7A
:1036E0004FF68F752C40B51E2C400D882C43751E4F
:1036F0002A400D892A434D882A43144DA8420BD0F5
:10370000134DA84208D0134DA84205D0124DA8422F
:1037100002D0124DA84213D14FF6F7752A404D89B9
:103720002A434FF6FB752A408D882A434FF6FF65E2
:103730002B404FF6FF552B408D892B43CD892B43D2
:1037400083800483CD888586028470BD002C01406F
:103750000034014000400140004401400048014065
:103760000A460021018B4FF6F7731940114301837C
:103770007047000070B5002400220023058C4FF62E
:10378000FF6635400584028C8388848B4FF68F75E5
:103790002C404FF6FC752C400D882C434FF6FF55FE
:1037A0002A400D894FF6FF7606EA05252A434D8803
:1037B00006EA05252A43154DA84202D0144DA84219
:1037C0001DD14FF2FF752A404D894FF6FF7606EA6C
:1037D00005252A434FF6FF352A408D8806EA052540
:1037E0002A434EF6FF752B404DF6FF752B408D8911
:1037F00006EA05152B43CD8906EA05152B43838080
:103800008483CD888587028470BD0000002C014030
:10381000003401400A460021818B4FF6F7731940AE
:10382000114381837047818670478187704700000C
:10383000002202881D4B98420ED01D4B98420BD09F
:10384000B0F1804F08D01B4B984205D01A4B9842DC
:1038500002D01A4B984204D14FF68F731A404B880E
:103860001A43174B984207D0164B984204D04FF694
:10387000FF431A40CB881A4302808B8883850B88CC
:1038800003850A4B98420BD0094B984208D00E4B47
:10389000984205D00D4B984202D00D4B984201D171
:1038A0000B7A03860123838270470000002C0140BD
:1038B000003401400004004000080040000C0040BB
:1038C000001000400014004000400140004401404E
:1038D00000480140014640F25642914215DA01206B
:1038E00000220B4B1A801B1D1A801B1D1A801B1DEA
:1038F0001A80084B1A60084BC3F88021054B1B1D2A
:103900001A60054BC3F8842100E0002070470000D6
:103910003434014090012242008021422DE9FF5FB2
:103920009648008800F0200000287DD09348001DB4
:10393000008893490860084600684B2803D101209D
:10394000904908700AE08E480068492803D08C48E6
:1039500000684A2802D100208A4908708A48007805
:1039600000284DD187480078D0B9854800684128A3
:1039700009DB83480068482805DC81480078403826
:10398000824908703CE07E480068082804DC7C48D6
:1039900000787E49087033E000207C4908702FE0F1
:1039A0007848007801282BD175480068432806D153
:1039B0000020774908700120764908700FE07048B0
:1039C0000068472806D1012071490870002071491C
:1039D000087004E000206E4908706E49087068485D
:1039E0000068412803D066480068452805D164482E
:1039F000007840386549087002E00020634908708B
:103A00005F4800687B2802D10120634908705C4848
:103A100000687D2802D102205F4908705E48007866
:103A200001280CD1564800E07EE000785B495C4AF2
:103A3000127888545A480078401C594908705648F2
:103A40000078022870D15548C078502803D1012051
:103A50005449087081E05148C078572803D10120AB
:103A60005149087079E04D484078232875D04C487A
:103A700000784E49087034E0494909784B4A127879
:103A8000881AFCF73AFE804642460B460020484919
:103A900006F098FB04460D4644490978491E3F4A02
:103AA000515CA1F13000FCF728FE064622462B4669
:103AB000FCF734FD82468B463E480068FCF787FEE3
:103AC00052465B46CDE90001FCF781FCCDE90201DD
:103AD000FCF790FE3749086034480078401E3349AF
:103AE0000870324800780428C6DA2C48407830380C
:103AF000092831D2DFE800F0050C13191E23282E07
:103B00002F002C480068FCF716FE2B49086023E0C4
:103B100028480068FCF70FFE284908601CE025488B
:103B200000682749086017E024E02248006825491A
:103B3000086011E01F480068234908600CE01D4838
:103B400000682249086007E01A48006820490860B8
:103B500002E002E000E000BF00BF00200E49087054
:103B60000F490870114908701249086032210B484A
:103B7000FCF744FB002004B0BDE8F09F0044004087
:103B8000E0000020940000206E0000200A000020C9
:103B90000800002009000020E4000020E8080020C0
:103BA000E50000208200002083000020E6000020C5
:103BB00000002440E8000020C4000020C8000020CD
:103BC000B0000020B4000020B8000020BC0000209D
:103BD000C000002010B52548008800F02000002813
:103BE00042D02348007850B922480078401CC0B227
:103BF000204908700A2802DD01201D4908701B4871
:103C0000001D0088C4B22046FCF772FD1A49086006
:103C10001A48007868B91A480078FE2809D119486E
:103C20000078FF2805D101201449087000201649AA
:103C300008701248007801280FD1144812490978F9
:103C4000445411480078401C0F4908700846007819
:103C5000082802D10020094908700948007809495C
:103C600008700748047000BF002010BD00480040E5
:103C700080000020DB000020680000208100002080
:103C8000D9000020DA000020D800002077000020B2
:103C900010B58AB018A103C9CDE9040102A806A98C
:103CA00007AB08AACDE9001009A90020FDF738F8F4
:103CB00000240FE0072C04D102A8005D1049087011
:103CC0000AE002A8005D04A9095D884200D003E073
:103CD000601CC4B2072CEDDD00BF40F22111099831
:103CE000884207D10648007820B106480299016051
:103CF000039941600AB010BD0A0C0F13181E25006D
:103D00007F0000206F00002000BFFEE72DE9FC418E
:103D100006460F460024DA20855D012D03D0022DD2
:103D200001D0032D2ED16B4601AA0121304600F0AF
:103D3000D1F904460198B0F57F0F03D80098B0F58B
:103D40007F0F1FD9F4B92FB11049304602F043FA62
:103D5000044617E00422FF21304601F01CF804431A
:103D600000227021304601F016F804430022FF21A2
:103D7000304601F010F8044300228021304601F063
:103D80000AF804432046BDE8FC810000EF02002051
:103D9000F8B506460F460024002500BF01220B217E
:103DA000304600F0F8FF044600220B21304600F0B8
:103DB000F2FF04436A461321304600F03DFC044301
:103DC000681CC5B29DF8000000F0070018B1032D73
:103DD00001DA002CE2D0032D01DB6FF00B0420464A
:103DE000F8BD000070B592B0054600242CB9002241
:103DF0008821284600F0CFFF04460021F0204155DD
:103E00004FF47A70A5F852014FF4C870A5F8540128
:103E10005A48C5F858015A48C5F8D400296202A981
:103E2000284600F0BFF8044654B900208DF8080079
:103E30008DF80900402202A905F11000FCF7C5F930
:103E4000642005F59A7528804FF4617068804FF4FE
:103E5000FA70A8804FF42060288101202877A5F50A
:103E60009A7501228021284600F095FF0443012223
:103E7000FF21284600F08FFF044300221146284608
:103E800000F089FF044301AA9121284600F0D4FBE9
:103E900004439DF8040085F83A01012200212846D8
:103EA00000F079FF04430022FF21284600F073FF51
:103EB000044300228021284600F06DFF04430026C1
:103EC00009E034B9B1B20122284600F0DEFC044317
:103ED00000E002E0761C062EF3DB00BF2CB90022C6
:103EE0000221284600F0D1FC04462CB9002203210F
:103EF000284600F0CAFC04462CB9002204212846BA
:103F000000F0C3FC04462CB900220521284600F02D
:103F1000BCFC044634B94FF490120021284600F04E
:103F200015FD044634B94FF480420121284600F0C3
:103F30000DFD044634B94FF40C120221284600F05E
:103F400005FD04462CB900220321284600F0FEFCA2
:103F500004465CB9FF2085F83001FF220121284684
:103F600000F019FF0446012085F8320114B9002140
:103F700085F81511204612B070BD0000856B010058
:103F8000A470090070B504460D4600262946204657
:103F900001F01CFA0646304670BD02460020137C34
:103FA0000B7070472DE9F04107460D460024294665
:103FB0003846FFF7F2FF04462CB905F108013846F0
:103FC00000F051F804460CB9002028732CB905F113
:103FD0001001384600F0AEFA04462CB905F1140180
:103FE000384600F037F90446E4B9002617E04CB92A
:103FF00005F1240000EB8602B1B2384600F099F8D2
:10400000044300E00DE044B905F118008219B1B293
:10401000384600F080F8044300E002E0761C062EEB
:10402000E5DB00BF2CB905F13C01384600F05DFA34
:10403000044624B9291D384600F001F904462046FB
:10404000BDE8F08170B506460C46002522460921E0
:10405000304600F0F1FA05461DB9207800F0010065
:104060002070284670BD7CB506460C46002501AA86
:10407000F821304600F00CFB05462DB96A460421B4
:10408000304600F0EFFA054655B9BDF8040028B1F6
:10409000BDF804100098B0FBF1F020602168B16118
:1040A00028467CBDF8B505460C4600266A46132115
:1040B000284600F0C1FA06469DF8000000F007000F
:1040C00020609DF8000000F0180008B16FF00506B0
:1040D0003046F8BD2DE9F8430746884614461D468C
:1040E00000266A460E21384600F0D2FA0646BDF890
:1040F00000000005C008206056B96A460C21384609
:1041000000F0C6FA0646BDF800000005C0082860A9
:104110003046BDE8F88330B503460020062903DBAE
:10412000001F0025157003E003F128056C5C147076
:1041300030BD2DE9F84305460E4617464FF00008FE
:10414000C146062E2FD2DFE806F00307161A1E1FFF
:104150006C6B4FF0000929E06A464421284600F0C4
:1041600097FA8046B8F1000F02D1BDF80000440272
:104170004FF001091AE0EC6B4FF0000916E02C6CCF
:104180004FF0000912E000BF6A466421284600F0A3
:104190007FFA8046B8F1000F02D1BDF8000044025A
:1041A0004FF0000902E06FF0030800BF00BFB8F154
:1041B000000F16D1B9F1010F12D144B905F1340045
:1041C00050F826403C6000210C38815509E03C60E5
:1041D00005F1340040F8264001210C38815500E0FB
:1041E0003C604046BDE8F8832DE9FC4105460C469D
:1041F0000026DA20475D042F0DD169462846FFF7D7
:1042000051FF06460098042802D10120207013E0D7
:104210000020207010E001AA1421284600F00CFABA
:1042200006464EB99DF8040000F0010010B10120CF
:10423000207001E0002020703046BDE8FC8170B5A0
:1042400004460D4600262946204601F0D2FB0646CC
:10425000304670BD70B504460D46002629462046FE
:1042600001F03EFC0646304670BD70B504460D4672
:1042700000262946204601F05FFC0646304670BD08
:1042800070B504460D4600262946204601F0D4FEAE
:104290000646304670BD2DE9F04F93B005460C46FA
:1042A0004FF000080C230AAA1421284600F006FA51
:1042B0008046B8F1000F7DD10020A07520609DF8E8
:1042C00033009DF8321000EB012087B200206060BF
:1042D0009DF82F009DF82E1000EB01200004C60968
:1042E000E6609DF831009DF8301000EB012080B2AF
:1042F0000F900F98400220619DF82B009DF82A1026
:1043000000EB01201FFA80F9A4F814909DF8280012
:104310001290B5F852010D9095F831B10D98B0F5A5
:104320007A7F2AD00D98784300F5FA704FF47A71AD
:1043300090FBF1F087B2288C80B20E90287F10900D
:104340001098D0B10E9800FB09F0A6EB202040B9E0
:10435000BBF1000F02D042F2B82A0DE048F6E02A85
:104360000AE007FB06F10E9800FB09F0A6EB2020FF
:10437000B1FBF0F01FFA80FA5746BBF1000F05D0F1
:10438000B8102081B807000EE07502E027810020F8
:10439000E07511A84B463246CDE9004028461299F7
:1043A00001F030FD40EA0808B8F1000F02D19DF895
:1043B00044002076B8F1000F20D11C2205F15001F5
:1043C00003A8FBF702FF2089ADF81400E07D8DF80B
:1043D00023006089ADF8160060680490E0680690DC
:1043E00020690790A08AADF82000207E8DF8240077
:1043F0001C2203A905F15000FBF7E7FE404613B06D
:10440000BDE8F08FF8B506460C4600250020009068
:104410006A460121304600F00FF905463DB92346B2
:104420009DF800200021304606F02AFC05463DB9E3
:10443000A31C9DF800200121304606F021FC054612
:104440003DB9631C9DF800200221304606F018FC9F
:1044500005463DB9E31C9DF800200321304606F0D7
:104460000FFC05463DB9231D9DF800200421304670
:1044700006F006FC05462846F8BD2DE9F8438046BF
:10448000894615460026002400276A4649464046CC
:1044900004F014F80646B6B94FF47A710098B0FBF0
:1044A000F1F404EB4400C0EBC4100099A1EBC00789
:1044B000C7EB074000F5FA704FF47A71B0FBF1F0EA
:1044C00000EB044028603046BDE8F8832DE9F04158
:1044D00004460D461646002732462946204601F07E
:1044E0003CFE07463846BDE8F081F8B506460C4666
:1044F00000256A460121304600F09EF805466DB958
:104500009DF8000086F830019DF8000000F0800062
:1045100010B10120207001E00020207015B9217831
:1045200086F84C102846F8BD10B502460020137FCF
:104530000B7010BDF8B504460E4600276A462021D0
:10454000204600F0A5F8074677B9BDF8000020B96D
:10455000256A35600021217706E0BDF80000C5001E
:1045600035602562012121773846F8BD2DE9F041FB
:1045700004460D46164600270123324629462046AA
:1045800001F0FCFE07463846BDE8F0812DE9F04118
:1045900004460D461646002732462946204601F0BD
:1045A00013FF07463846BDE8F08138B505460024BC
:1045B00069462846FFF7F1FC044634B99DF800002F
:1045C00018B9284600F06AFA04461CB9284601F0DA
:1045D00077FE04462CB99DF8000010B9032085F839
:1045E0003201204638BD70B505460E460024002134
:1045F000284600F07EF804461CB92846FFF7D5FF90
:10460000044624B931462846FFF745FE044624B93E
:1046100000212846FFF7BCFB0446204670BD08B5C4
:10462000014600200022009202E0009A521C0092F3
:10463000009AFA2AF9D308BD2DE9F04704460D4641
:104640001646002794F85C9132462946484602F007
:1046500063F88046B8F1000F01D06FF013073846B9
:10466000BDE8F0872DE9F04704460D4616460027C1
:1046700094F85C9132462946484602F05FF880463D
:10468000B8F1000F01D06FF013073846BDE8F0878E
:104690002DE9F04704460D461646002794F85C9134
:1046A00032462946484602F07AF88046B8F1000FB3
:1046B00001D06FF013073846BDE8F0872DE9F047C9
:1046C0000546884691461E464FF0000A402E01D30B
:1046D0006FF0030A95F85C7133464A464146384606
:1046E00002F049F804460CB16FF0130A5046BDE8D9
:1046F000F0870246002003290BD003DC39B10129E1
:104700000BD105E0142905D0152906D103E000BF1F
:1047100000BF00BF00BF117402E06FF0070000BFD0
:1047200000BF70472DE9F0478046894617461E4670
:10473000DDF820A00024B9F1000F02D06FF00904C9
:10474000A0E0142F0CD1BAF1000F01D1102500E028
:1047500001252A468421404600F01DFB044691E0D5
:10476000152F5AD10122FF21404600F014FB0443CB
:1047700000221146404600F00EFB04430022FF21B8
:10478000404600F008FB044301228021404600F02F
:1047900002FB044302228521404600F0FCFA044358
:1047A0000422FF21404600F0F6FA04430022CD2106
:1047B000404600F0F0FA04431122CC21404600F0BC
:1047C000EAFA04430722FF21404600F0E4FA0443DA
:1047D0000022BE21404600F0DEFA04430622FF21FB
:1047E000404600F0D8FA04430922CC21404600F0AC
:1047F000D2FA04430022FF21404600F0CCFA0443E1
:104800000122FF21404600F0C6FA0443002211466F
:10481000404600F0C0FA044334E0A4B9052E0ED29D
:10482000DFE806F0030507090B0000250AE0012573
:1048300008E0022506E0032504E0042502E06FF00D
:104840000A0400BF00BF2CB92A460A21404600F0E6
:10485000A2FA044664B9BAF1000F01D1002500E0C4
:1048600010252B46EF228421404600F06BFA0446C7
:1048700014B9DA2000F8086024B900214046FFF797
:1048800087FA04462046BDE8F0872DE9F05F04462C
:104890000D4616464FF00009CB460027BA46062DB6
:1048A00002DB6FF0030941E02EB94FF0000B002747
:1048B0004FF0010A06E004F1340050F825B04FF043
:1048C000000A0127062D2DD2DFE805F003060E11A0
:1048D00014202820075528E0CBF34F2244212046FE
:1048E00000F06FFA814620E084F82A701DE084F819
:1048F0002B701AE04FEA4A604FEA10684346FE22E6
:104900006021204600F01EFA81460EE04FEA0A7050
:104910004FEA10684346EF226021204600F012FA69
:10492000814602E06FF0030900BF00BFB9F1000F3C
:1049300009D126B9002104F12800415503E00121E5
:1049400004F1280041554846BDE8F09F2DE9F041AB
:1049500005460E461446002705F1280010F806808B
:10496000B8F1000F03D10C3040F8264026E0062EA7
:104970001BD2DFE806F003050D0F11126C6317E080
:10498000C4F34F224421284600F01BFA07460FE0EB
:10499000EC630DE02C640BE000BFC4F34F226421F4
:1049A000284600F00EFA074602E06FF0030700BF4A
:1049B00000BF1FB905F1340040F826403846BDE875
:1049C000F08170B504460D4600262946204601F0C8
:1049D00053FF0646304670BD2DE9F84307460D46A5
:1049E000904600260020009000246A4601213846A7
:1049F000FFF722FE06469DF80040002E36D1B8F1A2
:104A0000010F19D1052D13D2DFE805F00306090CBB
:104A10000F0044F010040EE044F028040BE044F0D2
:104A2000040408E044F0400405E044F0800402E09F
:104A30006FF0030600BF19E0052D13D2DFE805F083
:104A40000306090C0F0004F0EF040EE004F0D70495
:104A50000BE004F0FB0408E004F0BF0405E004F000
:104A60007F0402E06FF0030600BF00BF9DF8000066
:104A7000844210D02EB922460121384600F08BF92D
:104A800006460EB987F830412EB9D7F8149049463A
:104A90003846FFF796FF3046BDE8F8832DE9FC4124
:104AA00006460024012701A93046FFF776FA0122C5
:104AB0008021304600F06FF904460122FF21304684
:104AC00000F069F9044600221146304600F063F90F
:104AD000044696F83A219121304600F05CF90446EC
:104AE00001220021304600F056F904460022FF2141
:104AF000304600F050F9044600228021304600F094
:104B00004AF904469DF8040020B1012821D0032869
:104B100041D12FE001220021304600F03CF904464B
:104B20000097ACB9002500BF2DB16A460021304680
:104B3000FFF782FD04466D1C9DF800003840B84226
:104B400002D10CB9C82DEFD3C82D01D36FF00604E4
:104B500024E024B901213046FFF7D8F804460222A8
:104B60000021304600F017F9044614B9042086F8F5
:104B7000320113E024B901213046FFF7C7F804469B
:104B800004220021304600F006F9044614B904203E
:104B900086F8320102E06FF0070400BF00BF204634
:104BA000BDE8FC812DE9F04397B005460024402183
:104BB00007A8FBF723FB00200690059081460027FD
:104BC0000490039000260121284600F06DFC044665
:104BD00095F8137195F81461012E05DC01D1202F91
:104BE00002D846B90C2F06D904AA03A9284601F019
:104BF000EBFB044605E032463946284601F0D0FE7C
:104C00000446DFF83C814CB995F85091B9F1000F9A
:104C100002D1D5F84C8101E0DFF8248124B9414666
:104C2000284601F0D8FA044644B90020042302467D
:104C3000014600902846FFF775FD04468CB9012215
:104C4000FF21284600F0A7F8044606AA842128463A
:104C5000FFF71EFD04430022FF21284600F09BF8C9
:104C6000044324B9BDF818000001C5F8D40024B9E4
:104C700007A92846FFF796F904464CB905A9284626
:104C8000FFF7E0F904461CB99DF8140085F83101DE
:104C90002CB9402207A905F11000FBF796FA54B988
:104CA00005AA01212846FFF7C7FC04461CB99DF858
:104CB000140085F830012CB9002211462846FFF770
:104CC0008BFE04462CB9002202212846FFF784FE01
:104CD000044614B9032085F832012CB902AA002138
:104CE0002846FFF7F3FB04461CB99DF80810E8209E
:104CF00041552CB902AA01212846FFF7E7FB0446DB
:104D00001CB99DF80810E02041552CB901AA0321D7
:104D10002846FFF7B2FB044614B9E420019941513B
:104D20002CB901AA04212846FFF7A7FB044614B9B1
:104D3000DC2001994151204617B0BDE8F083000006
:104D4000FC0100202DE9F84F0446894615461E4611
:104D5000002794F85CA16A464946504601F0DCFC05
:104D60008046B8F1000F01D06FF0130787B99DF8A6
:104D700000002840304300909DF8002049465046EE
:104D800001F06FFE8046B8F1000F01D06FF01307FD
:104D90003846BDE8F88F2DE9F04704460D46164623
:104DA000002794F85C9132462946484601F059FEA6
:104DB0008046B8F1000F01D06FF013073846BDE808
:104DC000F0872DE9F04704460D461646002794F873
:104DD0005C9132462946484601F065FE8046B8F1AE
:104DE000000F01D06FF013073846BDE8F0872DE9BA
:104DF000F04704460F4690461D464FF00009CA464C
:104E0000402D01D36FF0030994F85C612B464246B4
:104E10003946304601F033FE8246BAF1000F01D028
:104E20006FF013094846BDE8F08700002DE9FF4FF9
:104E300090B01746DDF8788012200F904FF4804034
:104E40000E9042200D9006200C9007200B90002021
:104E500000901098B0F854010A901098D0F85801BA
:104E60000990DDE9091000FB01FA0AF180004FEA20
:104E7000102A0A980AFB00FA00256FB111988002E7
:104E80000190019800EB5705B5FBF7F505EB4505DB
:104E90006D4305F50040050C1D9913984843089093
:104EA000089800F50040000C0890089840430890CE
:104EB00008F50040000C02900298C01C0621B0FBCF
:104EC000F1F002900298C0EBC00002900298B0F599
:104ED000803F02D3374807900DE008F10300062118
:104EE000B0FBF1F8C8EBC80808F50040000C0790CB
:104EF00007984043079040F22710059005984043DB
:104F0000059041F2041004900498083000090490C0
:104F1000DDE90410401A0590059800EB40000001FF
:104F20000690069800F50050800B0690DDE907100A
:104F300044181F9804EB50041F98B4FBF0F4A4032A
:104F4000069804EB50040698B4FBF0F46C4304F5A7
:104F5000FA704FF47A71B0FBF1F4240104F5FA70A1
:104F6000B0FBF1F44FF04009B9F1000F05D00AEBA6
:104F70005900B0FBF9F0039001E000200390039882
:104F800001F013F9834624B10AEB5400B0FBF4F6A8
:104F900000E00026304601F008F906462098C0F8E7
:104FA00000B0B34501D920980660009814B0BDE860
:104FB000F08F00000000F0FFE0B5064640F2776396
:104FC0004FF4106202FB01F5A5FB0307E0BD0000F2
:104FD0002DE9FF4FA7B004464FF4487026904FF4D8
:104FE000167025904220249041F25C202390A14825
:104FF00022904FF4704021909F4820909F481F902E
:105000004FF400401E904FF448101D9040F277601E
:105010001C9000BF206A1290289800694FF47A71A2
:105020004843000C13902898C06809900AAA2046AB
:10503000289901F061F812AA2046289901F070F829
:1050400010904FF47A710A9800FB01F707F50040C1
:10505000070C1298484311901198B0F5481F02D9D7
:105060004FF4481011901098002842D1DC200059CC
:105070001A90E020005D05902046059A1A9900F0EC
:10508000FFF80790E42000591990E820005D049093
:105090002046049A199900F0F3F80690032008902E
:1050A0000598082801D1022008900898C002DDE97F
:1050B0000612114400FB01FB0BF5FA704FF47A71F4
:1050C000B0FBF1FB40F277600BFB00FB0BF5FA70D5
:1050D000B0FBF1FB0A988030000A0A900A9800FBA6
:1050E0000BF01B901B988030000A1B900A9800025E
:1050F0000A90109818B110982BB0BDE8F08F4FB9F6
:105100005C49299801600846C4F8400100212A98AA
:105110000160ACE01B9808B901201B904FF4487067
:10512000189013980004B0FBF7F65348864200D954
:1051300006464FF4167046431B9901EB4101880067
:1051400001F033F840001790289800894B494843F4
:1051500016901198C0EB074000F5FA704FF47A7181
:10516000B0FBF1F00F90119800EB074000F5FA70DA
:10517000B0FBF1F10E910F9800020F90DDE90E12D5
:10518000B2FBF1F0002801DB014600E0414214913E
:1051900014980002149041F25C211698B0FBF1F5CE
:1051A0001498C0F58030454305F50040050C05F521
:1051B00080356D086D43AD0B189805FB00F909F5B6
:1051C00000404FEA104909FB09F9B2460AF50040D0
:1051D0004FEA104A0AFB0AFA09EB0A000D900D98F3
:1051E00000F0E3FF0C900C9800040C900C98323007
:1051F0006421B0FBF1F11798B1FBF0F840F6B5303F
:1052000008FB00F841F2883080444000B8FBF0F819
:10521000B8F5704F01D94FF4704808FB08F941F216
:10522000041A09EB0A0000F0C0FF0B904FF47A71EA
:105230000B98484315902FB11B9818B10D4915983C
:10524000884201D90B48159029991598086029982A
:105250000068C4F8400118992A982B468DE8420846
:1052600003902046DDE90921FFF7E0FD109010983A
:1052700042E70000AE878F02666666009A990600D4
:105280002DE9F04307460C46154600BF294638462F
:10529000FFF792FE814609F5FA704FF47A71B0FB80
:1052A000F1F60846604300EB5600B0FBF6F84046C6
:1052B000BDE8F0832DE9F04307460C4615464FF054
:1052C000000829463846FFF777FE814609F5FA704F
:1052D0004FF47A71B0FBF1F604FB06F000EB5600D8
:1052E000B0FBF1F84046BDE8F08300002DE9F0473F
:1052F00004460D46164600270221204600F0D4F849
:105300000746AFB994F8F180B8F1000F06D100203C
:10531000287009A0007886F8400009E0F220005DBE
:10532000287004F1F309494606F14000FAF77EFFC0
:105330003846BDE8F087000000000000014600206C
:10534000CAB20B0A9A40501C7047014600204A1C02
:105350005206100E7047F8B506460024002283213D
:105360003046FFF718FD0443A4B9002500BF6A4684
:1053700083213046FFF760F904469DF8000000B92C
:1053800004B102E06D1CC82DF1D300BFC82D01D3BC
:105390006FF00604012283213046FFF7FCFC044332
:1053A0002046F8BD10B5014600200022002361B15F
:1053B0004A1E02E052085C1CA3B222F0FF04002C3B
:1053C000F8D1144663F31F24A0B210BD7CB5064685
:1053D0000C460025224669463046FFF787FF054602
:1053E000002D26D19DF8000020B91EA12046FAF715
:1053F0001DFF19E09DF80000222808DC9DF8000040
:10540000202804D01AA12046FAF710FF0CE09DF8DE
:105410000000272804DA19A12046FAF707FF03E065
:1054200019A12046FAF702FF1DA104F12000FAF7A6
:10543000FDFE35B904F16002C0213046FFF7FCF8EB
:1054400005466DB901AAC2213046FFF7F5F80546B9
:10545000012084F861009DF80400000984F86200CE
:1054600028467CBD564C35334C30582054533000C0
:10547000564C35334C30582054533100564C35334C
:105480004C30582054533200564C35334C30582051
:10549000455331206F72206C61746572000000000A
:1054A000564C35334C3058002DE9F04F93B005463B
:1054B0000F46002400200E900D900C900B90824619
:1054C00083464FF4C8500A904FF00009002009901D
:1054D0000290F020465D072E7ED0012280212846D2
:1054E000FFF759FC04430122FF212846FFF753FC34
:1054F0000443002211462846FFF74DFC04430622D0
:10550000FF212846FFF747FC044312AA83212846BF
:10551000FFF792F804439DF8480040F0040283210D
:105520002846FFF738FC04430722FF212846FFF7EF
:1055300032FC0443012281212846FFF72CFC04435E
:105540002846FFF76CF80443012280212846FFF724
:1055500022FC044307F00100002855D006F00100AA
:10556000002851D16B2294212846FFF714FC0443F4
:105570002846FFF7F0FE044311AA90212846FFF7C2
:1055800071F804431198C0F306200E901198C0F3EF
:10559000C0300D90242294212846FFF7FCFB0443E1
:1055A0002846FFF7D8FE044311AA90212846FFF7AA
:1055B00059F804431198000E8DF800001198000C62
:1055C0008DF801001198000A8DF802001198C0B200
:1055D0008DF80300252200E0A4E194212846FFF77E
:1055E000DAFB04432846FFF7B6FE044311AA9021D4
:1055F0002846FFF737F804431198000E8DF8040091
:105600001198000C8DF8050007F0020002287DD1EA
:1056100006F002000028FAD1022294212846FFF762
:10562000BAFB04432846FFF796FE044310AA9021D4
:105630002846FFF701F804437B2294212846FFF710
:10564000AAFB04432846FFF786FE04430FAA9021D5
:105650002846FEF7F1FF0443772294212846FFF7FE
:105660009AFB04432846FFF776FE044311AA9021D3
:105670002846FEF7F7FF04437F21119801EA5060A6
:105680008DF810001198C0F386408DF81100119824
:10569000C0F3C6208DF812001198C0F306108DF8E3
:1056A000130011980007400E12907822942128468A
:1056B000FFF771FB04432846FFF74DFE044311AA90
:1056C00090212846FEF7CEFF04437F21119801EA7E
:1056D00050709DF848100844C0B28DF8140011981D
:1056E000C0F386508DF815001198C0F3C6308DF8C0
:1056F00016001198C0F306208DF817001198C0F31A
:1057000046008DF818001198C00700E05FE0400ED9
:105710001290792294212846FFF73DFB0443284646
:10572000FFF719FE044311AA90212846FEF79AFFBD
:1057300004437F21119801EA90609DF848100844C5
:10574000C0B28DF819001198C0F3C6408DF81A0048
:105750001198C0F306308DF81B001198C0F3461065
:105760008DF81C001198C006400E12907A229421E8
:105770002846FFF710FB04432846FFF7ECFD0443DF
:1057800011AA90212846FEF76DFF04437F2111984E
:1057900001EA90709DF848100844C0B28DF81D00D1
:1057A0001198C0F3C6508DF81E001198C0F3064042
:1057B0008DF81F001198C0F346208DF82000119835
:1057C000C0F386008DF8210000208DF8220007F03C
:1057D0000400042873D106F0040000286FD17B2256
:1057E00094212846FFF7D7FA04432846FFF7B3FD74
:1057F00004430CAA90212846FEF734FF04437C2280
:1058000094212846FFF7C7FA04432846FFF7A3FD73
:1058100004430BAA90212846FEF724FF0443732279
:1058200094212846FFF7B7FA04432846FFF793FD73
:10583000044311AA90212846FEF714FF044311984F
:105840000006000C0990742294212846FFF7A3FA61
:1058500004432846FFF77FFD044311AA9021284600
:10586000FEF700FF04431199099840EA116009907E
:10587000752294212846FFF78EFA04432846FFF745
:105880006AFD044311AA90212846FEF7EBFE04436B
:10589000119800064FEA1049762294212846FFF716
:1058A0007AFA04432846FFF756FD044311AA9021D3
:1058B0002846FEF7D7FE0443119849EA10690022F2
:1058C00081212846FFF767FA04430622FF21284674
:1058D000FFF761FA044312AA83212846FEF7ACFEC3
:1058E00004439DF8480000F0FB0283212846FFF79F
:1058F00052FA04430122FF212846FFF74CFA0443E1
:10590000012200212846FFF746FA04430022FF2126
:105910002846FFF740FA0443002280212846FFF77B
:105920003AFA0443002C60D1072E5ED007F0010044
:10593000A8B106F0010090B90E9885F813010D98F2
:1059400085F81401A04607E01DF8081005F59570CC
:1059500000F8081008F10108B8F1060FF4DB07F0B1
:105960000200022811D106F0020070B99DF8401023
:10597000F12041559DF83C10F220415505F1F3000E
:10598000039004A90398FAF751FC07F004000428D7
:1059900024D106F0040008BB4FF48C700C994151DF
:1059A000001D0B9941510998400202904FF49071EB
:1059B000029848514FF0000BB9F1000F0CD00A9833
:1059C000A9EB000A4FF47A700AFB00F04FEA101BB3
:1059D000CBF100000FFA80FBC5F80CB046EA0700D7
:1059E00012909DF84810F0204155204613B0BDE8B4
:1059F000F08F2DE9F04F87B006460C4600254FF496
:105A0000FA60039040F276774FF470784FF425797E
:105A100040F24E2A40F2B22B4846029040F2262035
:105A200001900020009007EB0800206005A9304697
:105A3000FEF7E8FC05461DB1284607B0BDE8F08F2B
:105A40009DF8140028B99DF8150010B99DF81600AE
:105A500008B303AA0221304602F030FD0546D5B94D
:105A60009DF8140020B12068039951440844206037
:105A70009DF8160038B1206803995944022202FBB0
:105A80000100206007E09DF8150020B1206803990F
:105A900049440844206075B99DF8170058B16A461A
:105AA0000321304602F00AFD05462168009A02985B
:105AB00010440844206075B99DF8180058B104AA34
:105AC0000421304602F0FAFC05462168049A019848
:105AD0001044084420600DB9216871612846ACE784
