:020000040800F2
:10000000700A002045010008D9280008491D000891
:1000100079270008E10C0008753A0008000000008C
:10002000000000000000000000000000B52E0008E5
:10003000E111000800000000A92B000801330008AE
:100040005F0100085F0100085F0100085F01000810
:100050005F0100085F0100085F0100085F01000800
:100060005F0100085F010008311400085F0100080B
:100070005F0100085F0100085F0100085F010008E0
:100080005F0100085F0100085F0100085F010008D0
:10009000FD3900085F0100085F0100085F010008EA
:1000A0005F0100085F0100085F0100085F010008B0
:1000B000653300087D330008953300085F010008B0
:1000C0005F0100085F0100085F0100085F01000890
:1000D0005F0100085F010008893600084139000807
:1000E000211200085F0100085F0100085F0100089D
:1000F0005F0100085F0100085F0100085F01000860
:100100005F0100085F010008AD3300085F010008CF
:100110005F0100085F0100085F0100085F0100083F
:100120005F0100085F0100085F0100085F0100082F
:10013000DFF80CD000F000FD00480047155900081A
:10014000700A00200648804706480047FEE7FEE7A1
:10015000FEE7FEE7FEE7FEE7FEE7FEE7FEE7FEE777
:1001600005330008310100082DE9F0410024061B89
:10017000254671F1000605DA01240027D0EB0700BF
:1001800067EB0101161E73F1000605DA0027D2EBBA
:100190000702012567EB030300F058FB86460E4675
:1001A00017469C46AC4204D00025D0EB050E65EB0B
:1001B000010624B10020D2EB000760EB030C70466F
:1001C00031463A466346BDE8F081D2B201E000F81C
:1001D000012B491EFBD270470022F6E710B51346EB
:1001E0000A4604461946FFF7F0FF204610BD30B519
:1001F00004460020034600E05B1C934203D2E05C0F
:10020000CD5C401BF8D030BDF0B480EA0102D40FC1
:100210004200B2EB410F02D20246084611464A00A4
:1002200042D0C30DDDB2C1F3C752AD1A202D35DA6D
:10023000C1F3160141F4000204B15242C5F1200697
:1002400002FA06F12A411044B3EBD05F23D0C4B1C7
:10025000012DA0EBC35009DCF0BC4FF0004202EAD4
:10026000C352DBB200F5000000F05BBB400000F1C0
:10027000807000EBC350A0F1807040EAD17049005B
:1002800009E0490841EAC071A0EBC35000F5000045
:10029000400800EBC350F0BC00F03ABB61420122C1
:1002A00002EB4101001BF6E7F0BC704781F0004112
:1002B000AAE780F00040A7E780EA010210B502F04B
:1002C0000043400022D04A001FD0010E01EB126112
:1002D000C0F35600C2F3560240F4000042F400029C
:1002E000A0FB022000047F39140400D0401C50EA17
:1002F000124001D44000491EC2B20C0604EBD010DB
:10030000401C4008802A02D003E0002010BD20F0ED
:100310000100002900DA0020184310BD30B480EA43
:10032000010202F0004530F0004221F0004013D0FD
:1003300090B1C30DD40DC2F31601C0F31600E41A38
:1003400041F4000140F400027D34914201D3641C69
:1003500000E04900002C02DA30BC002070474FF466
:1003600000000023914201D3891A034340084FEA59
:100370004101F7D151B1914202D14FF0004105E066
:1003800002D24FF0010101E06FF0010103EBC45014
:10039000284430BC00F0BCBA2DE9FE4F804681EA0B
:1003A0000300C00F0C46009021F0004123F00045EF
:1003B000B8EB0200A94105D24046214690461C46B2
:1003C0000B46024623F00040104347D0270DC7F3E9
:1003D0000A00C3F30A510290401A019040286BDAD8
:1003E000C3F3130040F4801B0098924620B1002311
:1003F000D2EB030A63EB0B0B01985946C0F14002A4
:10040000504600F054FA06460D4650465946019AA9
:1004100000F06CFA10EB08006141002487EA1152E9
:1004200084EAE7731A4340D0009A62B3019A012A22
:100430004FEA075215DC001B61EB02014FF000424E
:1004400002EA0752CDE90042001C41F58011324614
:100450002B4600F0A3FA03B0BDE8F08F40462146DA
:10046000F9E7001B61EB0201001C41F58013001845
:100470005B412018A2F5001747EB030140EAD57055
:10048000B6196D4111E06D084FEA360645EAC075B0
:100490004FEA0752001B61EB0201001C41F580117D
:1004A00049084FEA30000019514132462B4603B04B
:1004B000BDE8F04F00F063BA00980122400000232D
:1004C000D0EB020263EBE073009821464FEAE07440
:1004D000B8EB000061EB0401E9E783F000435BE760
:1004E00081F0004158E72DE9FE4F81EA030404F052
:1004F000004421F0004100944FF0000B23F0004332
:1005000050EA01045ED052EA03045BD0C3F30A54FC
:10051000C1F30A552C44A4F2F3340194A0FB025415
:10052000C1F3130141F48011C3F3130343F48013A7
:1005300001FB024400FB034E840A970A44EA8154FB
:1005400047EA8357A4FB076802958D0A05FB0785D8
:100550004FEA932C04FB0C542705029D4FEA0658E2
:1005600047EA1637B5EB08056EEB070C870E920EBF
:1005700047EA811742EA8312A7FB0201B6EB0B019F
:1005800064EB00042B0D43EA0C335E1844EB1C5063
:10059000DA465146E7FB0201C5F313044FEA0B3379
:1005A00043EA14534FEA0432019C43EA0603A4F1E0
:1005B0000C040294009CCDE900B400F0EFF903B004
:1005C000BDE8F08F00200146F9E72DE9F04D81EA02
:1005D000030404F0004B21F0004514464FF0000ADC
:1005E00023F0004150EA050220D054EA01021DD058
:1005F000C5F30A570246C5F31303C1F31300C1F351
:100600000A5640F4801543F48013A7EB0608101B2C
:10061000D64608F2FD3873EB050002D308F1010855
:1006200001E092185B41B8F1000F03DA00200146A7
:10063000BDE8F08D00204FF48011064684460EE0A0
:10064000171B73EB050705D3121B63EB050306436A
:100650004CEA010C49084FEA300092185B4150EA1D
:100660000107EDD152EA030012D082EA040083EAC6
:100670000501084305D0101BAB4106D2012200231F
:1006800006E000224FF0004302E06FF00102531039
:100690001AEB06004CEB085110EB0A0041EB0B0182
:1006A000BDE8F04D00F06BB9C10F80EAE07008447E
:1006B000CA079623002100F034B996230022114680
:1006C00000F02FB90EB5C10F80EAE0700844CA07E8
:1006D000002140F233438DE80E000A460B4600F03D
:1006E0005DF903B000BD0EB540F233410291002127
:1006F000CDE900110A460B4600F050F903B000BDE9
:1007000000F0004220F00040C10DC0F3160040F49C
:1007100000007F2901DA00207047962903DCC1F12F
:100720009601C84001E096398840002AF4D0404242
:10073000704720F00040C10DC0F3160040F40000E7
:100740007F2901DA00207047962903DCC1F1960168
:10075000C840704796398840704770B5C1F30A5257
:1007600001F000450024C1F3130140F2FF3341F4CE
:1007700080119A4201DA002070BD40F233439A4260
:10078000A2F2334203DC524200F0A0F800E09040B5
:100790002C43F1D0404270BD00F0004230F00040E8
:1007A0000AD0C10D01F56071C0F3160042EA015193
:1007B000C20840071143704700200146704701F00E
:1007C000004330B421F0004150EA010206D00A0D86
:1007D000A2F56072C1F31301002A02DC30BC0020D4
:1007E0007047440F44EAC104C100E01830BC00EB7C
:1007F000C25000F08DB80000002801DBC0F10040BD
:10080000002901DBC1F1004181427047002801DB72
:10081000C0F10040002901DBC1F10041884270476E
:1008200030B50B46014600202022012409E021FAC0
:1008300002F59D4205D303FA02F5491B04FA02F5BD
:100840002844151EA2F10102F1DC30BD2DE9F05F54
:100850000546002092469B4688460646814640242F
:100860001BE0284641464746224600F02FF85346F3
:100870005A46C01A914110D311461846224600F03C
:1008800016F82D1A67EB01084F4622460120002179
:1008900000F00DF817EB00094E41201EA4F10104F1
:1008A000DFDC484631462A464346BDE8F09F202A11
:1008B00004DB203A00FA02F1002070479140C2F1B7
:1008C000200320FA03F3194390407047202A04DBE9
:1008D000203A21FA02F00021704721FA02F3D040B9
:1008E000C2F120029140084319467047202A06DBD6
:1008F000CB17203A41FA02F043EAE07306E041FAEE
:1009000002F3D040C2F120029140084319467047DB
:100910000029A8BF7047401C490008BF20F0010013
:10092000704710B4B0FA80FC00FA0CF050EA0104F1
:1009300004BF10BC704749B1CCF1200421FA04F483
:1009400011FA0CF118BF012121430843A3EB0C015C
:10095000CB1D4FEA00614FEA102042BF002010BCBF
:10096000704700EBC35010440029A4BF10BC70476F
:10097000401C490008BF20F0010010BC704710B5B2
:10098000141E73F1000408DA401C41F100019218B2
:100990005B411A4301D120F0010010BD2DE9F04D5B
:1009A00092469B4611B1B1FA81F202E0B0FA80F2B0
:1009B00020329046FFF77BFF04460F4640EA0A00CC
:1009C00041EA0B0153465A46084313D0114653EAF5
:1009D000010019D0C8F140025046FFF777FF0546E5
:1009E0000E46504659464246FFF761FF084305D080
:1009F000012004E020463946BDE8F08D0020054383
:100A000046EAE0762C4337430A986305E40AA0EBF4
:100A100008000022FD0A44EA47540A3002D50020AB
:100A20000146E9E7010510196941DDE908450019AA
:100A30006941BDE8F04DA2E770B521F000430343E2
:100A40000CD0C1F30A550024D5EB040564EB040374
:100A5000D617AD1AB34102DB0020014670BD201845
:100A600041EB025170BD2DE9F04D00231A461B1ACF
:100A70008A4103DB00200146BDE8F08DC1F30A5234
:100A8000C1F3130141F480154FF0000BD10702D1DF
:100A900000186D41521E0027044640F2FF113846EF
:100AA00001EB620A3E468046024600204FF4801168
:100AB000FFF70CFFC2197141BB1846EB0100B4EB04
:100AC000030C75EB000C04D3E41A65EB0005174624
:100AD0000E46241908F101006D4180463428E3DDFB
:100AE000F91946EB0600091BA84103D24FF0FF326B
:100AF000134601E0002213461BEB070046EB0A51A8
:100B0000BDE8F04DFFF73BBF30B5041E71F10004A6
:100B100004DB4FF00044404264EB0101141E73F10A
:100B2000000405DB1C464FF00043524263EB040314
:100B3000994208BF904230BD064C074D06E0E06880
:100B400040F0010394E8070098471034AC42F6D314
:100B5000FFF7F2FA80830008A083000870B58C18B4
:100B600010F8015B15F0070301D110F8013B2A11C1
:100B700006D110F8012B03E010F8016B01F8016BAE
:100B80005B1EF9D12B0705D40023521E0DD401F8AA
:100B9000013BFAE710F8013BCB1A921C03E013F873
:100BA000015B01F8015B521EF9D5A142D8D30020A8
:100BB00070BD00004648806940F0040044498861E7
:100BC0004448006820F47000424908604048806949
:100BD00040F400703E4988610846C06840F40070E7
:100BE000C8600846C06820F40070C86008464068C5
:100BF00020F4404048600846406840F400404860A7
:100C0000354800683549084033490860084600689F
:100C100008600846006820F480700860081D0068BD
:100C200020F00200091D08600846006820F46020DA
:100C300008600846006840F46020086008460068C4
:100C400040F4801008600846006820F400600860E6
:100C500021482830006820F470001F4928310860BE
:100C600008460068002008601B480C30006820F42B
:100C7000700019490C3108600846006840F4603083
:100C800008601548001D006840F001001249091D68
:100C900008600846006840F00800086000BF0E4881
:100CA000001D006800F008000028F8D10A48001D67
:100CB000006840F004000849091D086000BF0648AC
:100CC000001D006800F004000028F8D17047000003
:100CD000001002400008014004240140FFFFF00022
:100CE00000BFFEE7F0B5DDE90554324E06EB001615
:100CF000366806F004061670167836B92D4E06EBE7
:100D000000163668760D0E6005E02A4E06EB0016DA
:100D10003668F6080E60274E06EB0016366806F0B9
:100D200002061E70234E06EB0016766806F00F06CC
:100D30002E70204E06EB0016B66826701D4E06EB90
:100D40000016B668360A66701A4E06EB0016B668CC
:100D5000360CA670174E06EB0016B668360EE67017
:100D6000144E06EB0016F6682671124E06EB0016BE
:100D7000F668360A66710F4E06EB0016F668360CFA
:100D8000A6710C4E06EB0016F668360EE67130B909
:100D9000094E366846F02006074F3E6009E00128FC
:100DA00007D1054E361D366846F02006024F3F1D1E
:100DB0003E60F0BDB06500400C6400402DE9F0419C
:100DC0006E480078002870D16D480078012846D11F
:100DD0006B48C07900F0040008B9012401E04FF02D
:100DE000FF346748C07900F0020008B9012501E02E
:100DF0004FF0FF356248C07900F0010008B90126C4
:100E000001E04FF0FF365E498A78497802EB012114
:100E100001FB04F0FFF748FC5A49086058490A7979
:100E2000C97802EB012101FB05F0FFF73DFC5649B3
:100E3000086053498A79497902EB012101FB06F0E8
:100E4000FFF732FC51490860084602684E480168C5
:100E50004C48006801F01CFB00204D4908604848E0
:100E60000078022838D14648C07900F0080008B957
:100E7000012401E04FF0FF344148C07900F0040044
:100E800008B9012501E04FF0FF353D48C07900F079
:100E9000020008B9012601E04FF0FF363848C0795A
:100EA00000F0010010B9012702E016E04FF0FF3713
:100EB0003348407860433749086031488078684358
:100EC000354908602E48C0787043344908602C4882
:100ED00000797843324908604EE0284800780128BC
:100EE0004AD127480078012846D12548C07900F02A
:100EF000040008B9012401E04FF0FF342048C07914
:100F000000F0020008B9012501E04FF0FF351C4850
:100F1000C07900F0010008B9012601E04FF0FF366A
:100F200017498A78497802EB012101FB04F0FFF7A9
:100F3000BBFB1449086012490A79C97802EB012108
:100F400001FB05F0FFF7B0FB0F4908600C498A79F7
:100F5000497902EB012101FB06F0FFF7A5FB0B49E4
:100F6000086008460268084801680648006801F001
:100F70008FFA002006490860BDE8F0816E0000206D
:100F80006F000020A4000020A8000020AC0000207A
:100F90005C01002054000020580000205C0000206C
:100FA0006000002008B50121082001F0FFFD142099
:100FB000ADF8000028208DF8030003208DF8020012
:100FC0006946024800F0D8FD08BD0000000C014051
:100FD00038B5002000906B4601227521682004F08E
:100FE000F3FB2CA002F08AFD9DF8000068280ED0CB
:100FF00000BF3148006800F4E06030490843001D3C
:101000002D490860BFF3408F00BF00BFFEE704F02A
:10101000D9FD00283CD1782005F0DEFB10B91DA0D9
:1010200002F06CFD782004F0BBFC10B924A002F0A3
:1010300065FDC82005F082FB10B92BA002F05EFD13
:1010400003F036FC10B932A002F058FD3D4804F020
:1010500026FC044603F086FE10B93BA002F04EFDCC
:1010600040F2731003F0CCFA10B941A002F046FD33
:10107000C82003F0A7FD10B947A002F03FFD06F01D
:1010800031F9012005F056FA10B94CA002F036FDF6
:1010900038BD00006D70755F7365745F73656E7346
:1010A0006F7220636F6D706C657465202E2E2E2E0E
:1010B0002E2E0D0A000000000CED00E00000FA05E5
:1010C0006D70755F636F6E6669677572655F66697F
:1010D000666F20636F6D706C657465202E2E2E2EEA
:1010E0002E2E0D0A000000006D70755F7365745F31
:1010F00073616D706C655F7261746520636F6D7094
:101100006C657465202E2E2E2E2E2E0D0A000000EA
:10111000646D705F6C6F61645F6D6F74696F6E5F3B
:101120006472697665725F6669726D776172652057
:10113000636F6D706C657465202E2E2E2E2E2E0D15
:101140000A00000010010020646D705F7365745F19
:101150006F7269656E746174696F6E20636F6D7014
:101160006C657465202E2E2E2E2E2E0D0A0000008A
:10117000646D705F656E61626C655F6665617475F4
:10118000726520636F6D706C657465202E2E2E2E37
:101190002E2E0D0A00000000646D705F7365745F91
:1011A0006669666F5F7261746520636F6D706C65F0
:1011B0007465202E2E2E2E2E2E0D0A006D70755F5A
:1011C0007365745F646D705F737461746520636FC1
:1011D0006D706C657465202E2E2E2E2E2E0D0A003D
:1011E0007047000008B50121102001F0DFFC4FF42A
:1011F0000060ADF8000004208DF8030003208DF896
:1012000002006946054800F0B7FC4FF48050ADF885
:1012100000006946014800F0AFFC08BD0010014025
:1012200070B56648006800287ED14FF400406449DC
:1012300008606448007808B9012000E00020614996
:10124000087061480078012804D160480068401C9B
:101250005E4908605B480078012803D101F0B6FCC4
:10126000002070BD022001F0DFFD59490860594897
:1012700000680968084457490860032001F0D4FD5C
:101280005549086055480068096808445349086092
:10129000042001F0C9FD40425149086051480068EE
:1012A000096808444F490860052001F0BDFD40422F
:1012B0004D4908604D480068096808444B4908607A
:1012C00001F084FC642001F05FF900F005FD0546A3
:1012D000FFF7EAF90446464801682046FEF794FF06
:1012E000434908604FF07E5142480068FEF78CFF8A
:1012F0004049044608604049FFF77EFA0ED13E4956
:101300003B480068FFF70AF80446FFF7F9F93B4944
:10131000086000203649086036490860384800787F
:10132000012805D0374800E045E00078012801D1C8
:10133000FFF744FD34480068002806DD32480068A5
:101340000F2802DA0F20304908602C48006802F0AC
:1013500077F980BB2D480078F8B92D4801681C4802
:10136000006800F0FDFE2B4908602B4801681A4810
:10137000006800F04BFF29490860294801681848B7
:10138000006800F099FF274908602748016816485F
:10139000006800F0E7FF2549086041F6F42002F0FC
:1013A0006BFB224803681F4802681C480168194803
:1013B000006801F003FF002053E700003C81214258
:1013C00014040140500100206D0000206001002045
:1013D0001000002020000020140000202400002025
:1013E00018000020280000201C0000202C000020F5
:1013F00058010020540100200000C8426400002071
:101400007F00002080000020C40000206E0000202B
:101410005400002044000020580000204800002014
:101420005C0000204C0000206000002050000020E4
:1014300010B5102000F030F810B3102000F026F89E
:101440002820104908700020C870084601F046FAAC
:1014500000231A461946184601F0B0FE0A480078E3
:1014600008B101F0F5FD0848407808B101F0AEFD83
:101470002820044908700120C870084601F02EFA9F
:1014800010BD0000F80100200000002001490860A4
:101490007047000014040140014600200022074B61
:1014A0001B6803EA0102054B14331B680B4013B1A0
:1014B0000AB1012000E00020704700000004014054
:1014C000002123498279002A3AD00A46126803682B
:1014D0009A430B461A600A1D126803689A430B1D53
:1014E0001A60027911440A6803681A430A60184AAC
:1014F0000832126803689A43154B08331A601A1DA4
:10150000126803689A43124B0C331A604279102A0E
:101510000ED11A1F126803681A430D4B08331A6064
:101520001A1D126803681A43094B0C331A600DE048
:101530000749427911440A6803681A430A6005E0C2
:10154000027911440A6803689A430A6070470000F0
:10155000000401401FB548208DF80F0003208DF8CE
:101560000E0003A9184800F007FB1021164800F0F0
:101570008EFB0121042001F019FB4FF4A06001F063
:10158000E5F90A208DF8080002208DF809000020F6
:101590008DF80A0001208DF80B0002A801F09EF9D9
:1015A0000421002000F0C8FA1020009000208DF8DF
:1015B00004000C208DF8050001208DF80600684617
:1015C000FFF77EFF1FBD00000008014010B5124864
:1015D000806940F00800104988611048006820F0D8
:1015E00070400E4908600846006840F000400860FE
:1015F0000A480830006840F4004008490831086093
:1016000001220F21104600F0CDF9022328220121EA
:10161000184601F057F810BD00100240040C0140BC
:1016200010B53748406840F4807035494860354807
:10163000C06940F001003349C8610846806940F044
:10164000040088610846806940F0080088612E48DF
:10165000006820F070402C4908600846006840F09F
:10166000804008602948006820F4704027490860DD
:101670000846006840F4804008604FF08040808950
:1016800040F001004FF0804188810846808940F099
:101690004000888101231C220321184601F012F822
:1016A00000204FF0804108854FF6FF70888508467E
:1016B000008820F4407008800846008820F0600010
:1016C00008800846008B40F0010008830846008B24
:1016D00040F4807008830846008C20F002000884E3
:1016E0000846008C20F0200008840846008940F05D
:1016F000030008810846008840F00100088010BD02
:10170000000001400010024004080140000C0140AC
:1017100010B53348C06940F002003149C86108463D
:10172000806940F0080088612E48006820F07F4002
:101730002C4908600846006840F0884008602A4844
:10174000008840F00100284908800846008840F0E1
:101750004000088001231D220321184600F0B2FF3B
:10176000002021491C3108804FF6FF70091D0880B8
:101770001D480C38008820F440701B490C39088043
:101780000846008820F06000088017480C30008868
:1017900040F0010014490C3108800846008840F4EC
:1017A0008070088010481430008820F002000E4934
:1017B000143108800846008820F0200008800A487C
:1017C000001F008840F003000749091F08800648F1
:1017D0000C38008840F0010003490C39088010BD26
:1017E00000100240000801400C04004010B53348CE
:1017F000C06940F004003149C8610846806940F082
:10180000080088612E48006820F07F402C4908605D
:101810000846006840F0884008602A48008840F088
:101820000100284908800846008840F040000880F0
:1018300001231E220321184600F044FF0020214905
:101840001C3108804FF6FF70091D08801D480C38B8
:10185000008820F440701B490C3908800846008835
:1018600020F06000088017480C30008840F001002C
:1018700014490C3108800846008840F480700880C4
:1018800010481430008820F002000E4914310880FE
:101890000846008820F0200008800A48001F0088C1
:1018A00040F003000749091F088006480C380088EB
:1018B00040F0010003490C39088010BD00100240BF
:1018C000000C01400C08004010B53348C06940F0DE
:1018D00008003149C8610846806940F00400886109
:1018E0002E48006820F0FF002C4908600846006878
:1018F00040F044000860C804808940F00100C90439
:1019000088810846808940F0400088810123322286
:101910000321184600F0D6FE0020214908804FF62A
:10192000FF70091D08801E482838008820F4407088
:101930001B49283908800846008820F0600008808C
:1019400017481038008840F0010015491039088008
:101950000846008840F480700880114808380088E4
:1019600020F002000E49083908800846008820F05F
:10197000200008800A482038008840F00300084909
:101980002039088006482838008840F001000449C2
:101990002839088010BD00000010024000080140F6
:1019A000280C004070B504460B46CE1701EB967626
:1019B000C6F38700CE1701EB9676B610A1EB86062C
:1019C000B606350E1C4B9B6943F001031A4EB361FA
:1019D0004FEAB63353F820300F26AE40B343174ECC
:1019E00046F82030334653F8203004FA05F61E43FB
:1019F000124B43F82060124B1B6801268E40334384
:101A00000F4E336002F0010343B10D4B0C331B68E2
:101A100001268E4033430A4E0C36336002F0020337
:101A200043B1074B08331E6801238B401E43044B10
:101A300008331E6070BD0000001002400800014025
:101A40000004014010B50A222F49304801F01EFA67
:101A50002D4800884FF6FF7188422DD12A484088D2
:101A6000884229D128488088884225D12648C088C4
:101A7000884221D12448008988421DD122484089CA
:101A8000884219D120488089884215D11E202049DA
:101A9000086040F6B8301F4908601F481F490860B9
:101AA00000201F4908601F481F4908601F4820493F
:101AB00008602049086025E0134800881449086040
:101AC00011484088134908600F498888FEF7F5FDE2
:101AD000124908600C49C888FEF7EFFD10490860FC
:101AE00009490889FEF7E9FD0F4908600649488958
:101AF000FEF7E3FD0E49086003498889FEF7DDFD26
:101B00000C49086010BD00000002002000E0000841
:101B1000C4000020C80000200000A041B000002048
:101B2000B400002000004843B800002000004041FD
:101B3000BC000020C000002030B500228B071C0F25
:101B40000F2303FA04F20B4B8C1053F82430934309
:101B5000084C8D1044F8253023468C1053F824305F
:101B60008C07240F00FA04F42343024C8D1044F830
:101B7000253030BD080001402DE9F0410246002526
:101B80000026002000230024002791F803C00CF059
:101B90000F0591F803C00CF0100CBCF1000F03D03E
:101BA00091F802C04CEA050591F800C0BCF1000FA5
:101BB00031D0146800202BE04FF0010C0CFA00F338
:101BC000B1F800C00CEA03069E4220D183004FF01A
:101BD0000F0C0CFA03F7BC4305FA03FC4CEA0404AF
:101BE00091F803C0BCF1280F06D14FF0010C0CFA9C
:101BF00000FCC2F814C00AE091F803C0BCF1480F21
:101C000005D14FF0010C0CFA00FCC2F810C0401CCA
:101C10000828D1D31460B1F800C0BCF1FF0F34DD47
:101C2000546800202EE000F1080C4FF0010808FA7B
:101C30000CF3B1F800C00CEA03069E4221D18300E8
:101C40004FF00F0C0CFA03F7BC4305FA03FC4CEA07
:101C5000040491F803C0BCF1280F05D100F1080C71
:101C600008FA0CF8C2F8148091F803C0BCF1480FD0
:101C700007D100F1080C4FF0010808FA0CF8C2F87F
:101C80001080401C0828CED35460BDE8F08101616B
:101C90007047000001460F48006820F01F000D4A01
:101CA000106010460068084310600A482C3800682D
:101CB00040F48000074A2C3A106000BF05483438D1
:101CC000006800F002000028F8D0024818300068D0
:101CD00080B27047342401402DE9F04F87B00520D1
:101CE000FFF7D8FF0190FEF7FEFC80464FF066320A
:101CF000104BFEF7F8FB00220F4BCDE90201FEF777
:101D0000F2FB00220D4BCDE90401FEF7ECFB064689
:101D100000220B4BFEF759FC04460022094BFEF74C
:101D200054FC8246FEF719FD0690069807B0BDE800
:101D3000F08F000066660A4000002640000059400F
:101D40000000F03F0000B04000BFFEE770B5054660
:101D50000E46002400F0EAF8284600F0B5F8641CAE
:101D600000F03CF9304600F0AFF8641C00F036F9A2
:101D700000F0DCF8691CC8B200F0A6F8641C00F0A2
:101D80002DF9002000F068F8044600F003F9204621
:101D900070BD000010B500200E4908600E480068B4
:101DA00020F470400C4908600846006840F4405038
:101DB000086000200949C1F8AC01012002F0E4FBF1
:101DC00001200449086002F0DFFB00200349C1F84C
:101DD000A80110BDA8812142040C014000802142CD
:101DE0000848806940F00800064988610648006894
:101DF00020F47F40044908600846006840F44C50D5
:101E00000860704700100240040C014010B500202B
:101E10000E4908600E48006820F470400C490860C4
:101E20000846006840F44050086001200949C1F8A4
:101E3000AC0102F0A9FB01200449086002F0A4FBF8
:101E400000200449C1F8A80110BD0000A88121426A
:101E5000040C01400080214270B50546002417485B
:101E6000006820F47040154908600846006840F496
:101E700000400860002616E000201149086002209A
:101E800002F082FB01200F49C1F8A8016006040E90
:101E90000B487C38006808B1601CC4B2022002F014
:101EA00073FB701CC6B2082EE6DB15B1FFF772FF9C
:101EB00001E0FFF7ABFF204670BD0000040C0140BD
:101EC000A88121420080214270B504461448006870
:101ED00020F47040124908600846006840F4405001
:101EE000086000200F490860002516E0E0090D4950
:101EF000091D08606006040E012002F045FB012068
:101F00000949C1F8A80102F03FFB0020054908601B
:101F1000012002F039FB681CC5B2082DE6DB70BD5C
:101F2000040C0140A88121420080214210B51648CE
:101F3000006820F47040144908600846006840F4C6
:101F4000405008600120114908601148D0F82C0168
:101F500008B9002010BD01200C49091F086002F0DB
:101F600013FB00200A49C1F8AC010848803800681A
:101F700008B10020EEE7012002F006FB0020034933
:101F8000091F08600120E5E7040C0140AC812142F3
:101F90000080214210B50E48006820F470400C49C2
:101FA00008600846006840F4405008600020094975
:101FB00008600949C1F8AC01012002F0E5FA0120EE
:101FC000044908600449C1F8AC0102F0DDFA10BD13
:101FD000040C0140A88121420080214210B5002458
:101FE0001548006820F470401349086008460068EE
:101FF00040F40040086001201049086002F0C4FA73
:1020000001200F49C1F8A80102F0BEFA0AE0601CE5
:10201000C4B2322C03DDFFF7BDFF002010BD01204C
:1020200002F0B2FA0548803800680028EFD1034971
:10203000091F08600120F1E7040C0140AC81214236
:102040000080214270B505460E46144631462846AA
:10205000FFF77CFE2070012070BDF8B506460F46E4
:1020600014461D466A4639463046FFF7EBFF2DB150
:102070000120A0409DF80010084305E00120A04089
:102080009DF8001021EA0000C0B200909DF80020E9
:102090003946304600F036F8F8BD2DE9F8430746DA
:1020A000884614461D46089E6A4641463846FFF754
:1020B000C9FF28B3601CFF2101FA00F0C4F1080138
:1020C0002944491EFF220A41104300F0FF09C5F1CF
:1020D000080006FA00F0C6B2C4F1070006419DF8F8
:1020E000000000EA090000909DF8000030430090D5
:1020F0009DF800204146384600F004F8BDE8F8831A
:102100000020FBE737B504460D4602AB0122294605
:10211000204600F001F83EBD2DE9F04180460D4615
:1021200016461F460024FFF701FF4046FFF7CCFE8E
:10213000FFF754FF2846FFF7C7FEFFF74FFF00BF2A
:1021400006E0385DFFF7C0FEFFF748FF601CC4B231
:10215000B442F6DBFFF71EFF0120BDE8F08100006E
:102160002DE9F05F04460D46601B224908600846D1
:102170000068FEF799FA83461F4801685846FEF743
:102180009BF880461B4909681C4A1268881AFEF7AA
:102190008BFA83461A4801685846FEF78DF8814647
:1021A0004146FEF731F8074616480068FEF77CFA0C
:1021B00082463946FEF728F80646FEF7A1FA11498D
:1021C000086008460068B0F5E15F02DD4FF4E150B9
:1021D00008600C48006810F5E15F02DA0A48094916
:1021E0000860044800680549086006480068BDE8C2
:1021F000F09F000064010020C00000206C0100205E
:10220000BC00002068010020E0E3FFFF2DE9F05F43
:1022100004460D46601B2249086008460068FEF728
:1022200043FA83461F4801685846FEF745F8804642
:102230001B4909681C4A1268881AFEF735FA83465A
:102240001A4801685846FEF737F881464146FDF7BF
:10225000DBFF074616480068FEF726FA8246394635
:10226000FDF7D2FF0646FEF74BFA11490860084613
:102270000068B0F5E15F02DD4FF4E15008600C4802
:10228000006810F5E15F02DA0A480949086004486D
:1022900000680549086006480068BDE8F09F000036
:1022A00070010020C000002078010020BC00002048
:1022B00074010020E0E3FFFF2DE9F05F04460D46C6
:1022C000601B2249086008460068FEF7EDF9834666
:1022D0001F4801685846FDF7EFFF80461B49096813
:1022E0001C4A1268881AFEF7DFF983461A4801680B
:1022F0005846FDF7E1FF81464146FDF785FF074659
:1023000016480068FEF7D0F982463946FDF77CFF93
:102310000646FEF7F5F91149086008460068B0F571
:10232000E15F02DD4FF4E15008600C48006810F5F1
:10233000E15F02DA0A480949086004480068054973
:10234000086006480068BDE8F09F00007C0100209E
:10235000C000002084010020BC000020800100207B
:10236000E0E3FFFF2DE9F05F04460D46601B2249C4
:10237000086008460068FEF797F983461F48016821
:102380005846FDF799FF80461B4909681C4A1268A8
:10239000881AFEF789F983461A4801685846FDF7FE
:1023A0008BFF81464146FDF72FFF07461648006820
:1023B000FEF77AF982463946FDF726FF0646FEF714
:1023C0009FF91149086008460068B0F5E15F02DD39
:1023D0004FF4E15008600C48006810F5E15F02DA44
:1023E0000A48094908600448006805490860064829
:1023F0000068BDE8F09F000088010020C0000020B8
:1024000090010020BC0000208C010020E0E3FFFFD1
:1024100001464906084A926942F00102064B9A6158
:10242000064A526822F0E062044B5A601A4652682B
:102430000A435A607047000000100240000001404B
:102440000F48806940F008000D4988610D48006818
:102450000D4908400B490860084600680B490843CD
:102460000849086007480830006840F48050054972
:10247000083108600846006840F4804008607047F2
:1024800000100240040C0140FFFFF0F000000808BB
:102490002DE9F04704460E46154627492846FDF724
:1024A0000BFF824684F0004931464846FDF7ACFEFA
:1024B00080465146FDF7FAFE0746FEF721F91F490F
:1024C00008601D492846FDF7F7FE80463146204644
:1024D000FDF79AFE81464146FDF7E8FE0746FEF706
:1024E0000FF91749086014492846FDF7E5FE8246B2
:1024F00084F0004931464846FDF786FE8046514645
:10250000FDF782FE0746FEF7FBF80E4908600A4910
:102510002846FDF7D1FE804631462046FDF774FE81
:1025200081464146FDF770FE0746FEF7E9F8064989
:102530000860BDE8F08700001058393E54000020C4
:10254000580000205C000020600000200C488069DA
:1025500040F008000A4988610A48006820F47000C9
:10256000084908600846006840F4401008600548C3
:102570000830006840F40050024908310860704794
:1025800000100240040C014018B90021094A1160F2
:102590000FE009490968491C074A1160814208D1C6
:1025A00004490968C943054AC2F8B4110021024A26
:1025B00011607047B4812142D40000200080214284
:1025C00010B5022000F010F8032000F021F80020E0
:1025D00000F014F8002000F037F8002000F02BF88D
:1025E000002000F01FF810BD38B504460323022276
:1025F0006B21D0200094FFF750FD38BD38B504465C
:10260000022304221C21D0200094FFF746FD38BD90
:1026100038B50446022304221B21D0200094FFF782
:102620003CFD38BD10B50446234601223721D02099
:10263000FFF713FD10BD10B50446234605226A219D
:10264000D020FFF70AFD10BD10B504462346062230
:102650006B21D020FFF701FD10BD000000B5002068
:1026600015490861C8601420486100208861C8616C
:102670000846006840F001000860084640680F49BD
:1026800008400D494860084600680D4908400A495D
:1026900008600846006820F480200860084640680A
:1026A00020F4FE0048600020886000214FF00060A8
:1026B00000F058F800BD0000001002400000FFF8D4
:1026C000FFFFF6FE2DE9F0410746884614461D46F9
:1026D000284600F033F8C5F1040007FA00F60F2091
:1026E000284100EA0800064306F00F06E21704EB53
:1026F000D2625211920002F1E022D2F8002121466A
:10270000E31704EBD3635B11A4EB431C012303FA2F
:102710000CF31A432046E31704EBD3635B119B00D1
:1027200003F1E023C3F800210348005D40EA0610EE
:1027300001490855BDE8F08100E400E001460723A7
:1027400023EA01021202054B18684FF6FF031840F6
:10275000034B18431043014B186070470CED00E029
:102760000000FA05024A0A400243024B1A60704711
:1027700080FFFF1F08ED00E000BFFEE71048806902
:1027800040F008000E4988610846806940F010005A
:1027900088610C48006820F0FF000A49086008467C
:1027A000006840F0220008600748006820F47F00BD
:1027B000054908600846006840F408100860704742
:1027C00000100240000C01400010014000B503461B
:1027D0000A46FFF7D3FF3D48806940F400503B496B
:1027E00088610846806940F0100088613848406878
:1027F00020F0FF00364948600846406840F0BB00C2
:1028000048600846006820F07F400860084600687D
:1028100040F03B4008602F480380001F02802D4895
:102820001438008840F060002A49143908800846AE
:10283000008840F4C0400880081D008840F0600017
:10284000091D08800846008840F4C0400880081F21
:10285000008840F00800091F08800846008840F4FE
:1028600000600880081D008840F00800091D0880ED
:102870000846008840F400600880081D008840F089
:102880000100091D08800846008840F010000880FB
:102890000846008840F4807008800846008840F4AC
:1028A000805008800B481830008840F400400949E7
:1028B000183108804FF4004006492C39088008463A
:1028C000008840F00100088000BD000000100240B8
:1028D000001001402C3401407047000070B5002109
:1028E00000230F22C47804B3154C246804F4E06478
:1028F000C4F5E064210AC1F10403CA40447804FA33
:1029000003F184781440214309010E4C0678A15547
:10291000047804F01F050124AC4005786D11AD006A
:1029200005F1E025C5F8004109E0047804F01F0531
:102930000124AC40044D0678761145F8264070BD60
:102940000CED00E000E400E080E100E0024901431A
:10295000024A1160704700000000FA050CED00E02B
:1029600030B500240CE0002506E00020074901EB0B
:10297000C5010855681CC5B2802DF6DB601CC4B2C9
:10298000082CF0DB00F0BEF830BD0000280200206B
:1029900010B55548806940F01000534988610846D9
:1029A000806940F00100886150484068C0F313001E
:1029B0004E494860084640684D4908434B494860C5
:1029C0000846006820F00F0008600846006840F0E4
:1029D000020008604748006840F48070454908607C
:1029E0004148006A20F001003F49086242480088DF
:1029F00020F00100404908803E48006820F48070C3
:102A00003C49086000203D490860642001F09EFDBB
:102A100001203B49C1F8BC010021AE2000F098F82C
:102A20000021D52000F094F80021502000F090F80B
:102A30000021A82000F08CF800213F2000F088F849
:102A40000021D32000F084F80021084600F080F82F
:102A50000021402000F07CF800218D2000F078F863
:102A60000021142000F074F80021202000F070F8FC
:102A70000021022000F06CF80021A12000F068F88D
:102A80000021C02000F064F80021DA2000F060F896
:102A90000021122000F05CF80021812000F058F89D
:102AA0000021EF2000F054F80021D92000F050F868
:102AB0000021F12000F04CF80021DB2000F048F864
:102AC0000021302000F044F80021A42000F040F85C
:102AD0000021A62000F03CF80021AF2000F038F8DB
:102AE000FFF73EFF10BD0000001002400010014043
:102AF0000000202200700040306C0040BC012242E7
:102B00000000224230B500241CE004F1B001C8B23C
:102B1000002100F01DF80021084600F019F80021FE
:102B2000102000F015F8002508E0084901EBC50168
:102B3000085D012100F00CF8681CC5B2802DF4DBA3
:102B4000601CC4B2082CE0DB30BD0000280200206D
:102B500010B50A461AB10123124C236002E000238B
:102B6000104C2360002116E000230E4C3434236007
:102B700000F080031BB10123241D236003E0002328
:102B8000084C383423600123064C34342360430658
:102B9000180E4B1CD9B20829E6DB0123014C236037
:102BA00010BD0000800122427047000029B1064A92
:102BB00092690243044B9A6104E0034A926982439A
:102BC000014B9A6170470000001002402DE9F04F60
:102BD0008FB00CA889490DAB08AACDE9001088492F
:102BE000884801F071FE8548008800F48070002854
:102BF0007ED00898FDF758FD04464FF09D41FDF743
:102C00008DFB814908600998FDF74EFD04464FF0A1
:102C10009D41FDF783FB7D4908600A98FDF744FD5F
:102C200004464FF09D41FDF779FB794908600B9808
:102C3000FDF73AFD04464FF09D41FDF76FFB7549E6
:102C40000860714801684FF08040FDF735FB069041
:102C50006F4801680698FDF72FFB82466B480168B4
:102C60004FF04040FDF728FB06906A48016806983F
:102C7000FDF722FB83465146FDF7C6FA0790FDF7A4
:102C80008BFD804601F0EAF806464FF06632624B53
:102C9000FDF729FC0446FDF792FD604908605C4899
:102CA00001684FF08040FDF707FB0390584801682A
:102CB0000398FDF701FB8246544801684FF04040FD
:102CC000FDF7FAFA0390514801680398FDF7F4FA0A
:102CD00083465146FDF7EAFA81464FF07E51FDF7F3
:102CE00093FA0446FDF758FDCDE90401464800E09B
:102CF00081E001684FF08040FDF7DEFA83464348EB
:102D000001685846FDF7D8FA8146414801684FF0FE
:102D10008040FDF7D1FA83463E4801685846FDF7EA
:102D2000CBFA82464946FDF76FFA0446FDF734FDBB
:102D30000746DDE9042301F0D9FA4FF06632364B3D
:102D4000CDE90601FDF7CFFB0546FDF738FD344917
:102D50000860304801680068FDF7AEFA03902C481F
:102D600001680068FDF7A8FA029028480168006829
:102D7000FDF7A2FA8346244801680068FDF79CFA33
:102D800059460190FDF740FA82460299FDF78EFA06
:102D900081460399FDF78AFA0446FDF7FDFCCDE96B
:102DA00004011C48016818480068FDF785FA82464E
:102DB0001748016815480068FDF77EFA83465146BA
:102DC000FDF722FA81464FF08041FDF775FA04467F
:102DD000FDF7E2FC0746DDE9042301F087FA4FF036
:102DE00066320D4BCDE90601FDF77DFB0546FDF78B
:102DF000E6FC0C4908600FB0BDE8F08FFC00002035
:102E0000F6000020F0000020000100200401002056
:102E1000080100200C01002066A64C40980000200C
:102E20009C000020A00000200146022906D00329B2
:102E30000DD0042912D005291ED116E04FF0804292
:102E4000928C10B200224FF080439A8416E00C4A14
:102E5000128810B200220A4B1A800FE0094A128829
:102E600010B20022074B1A8008E0074A128810B2FD
:102E70000022054B1A8001E0002000BF00BF704710
:102E80002404004024080040240C004030B50346D0
:102E90000C461546002207E0184600F008F824F812
:102EA00012009B1C501C82B2AA42F5DB30BD0146C9
:102EB000088870477047000000B58DB00121C80236
:102EC000FFF774FE01210D20FFF770FE4FF47060D4
:102ED000ADF8300018208DF8330003208DF8320053
:102EE0000CA93748FEF748FE4FF48050ADF830008B
:102EF00018208DF8330003208DF832000CA93148DA
:102F0000FEF73AFEC720ADF8280041F61F40ADF8A5
:102F100024000020ADF82A00ADF8260009A92A48AF
:102F200000F03CFB7020ADF814000120ADF8160055
:102F3000B920ADF81A000020ADF81C00ADF81E0055
:102F40004FF48070ADF8200005A91F4800F072FA18
:102F500008211D4800F0BAFAC320ADF81A0005A9EF
:102F6000194800F0BDFA0821174800F009FB4FF49A
:102F70000060ADF804004010ADF806008010ADF818
:102F800008000020ADF80A004FF48050ADF80C00A6
:102F90004000ADF80E004000ADF8100001A90A484D
:102FA00000F01CFA0121084800F034FA012106481B
:102FB00000F008FA0121044800F020FA0DB000BD2D
:102FC00000080140000C0140002C014010B5002019
:102FD00003F0B0FAB9240BE0A1B21C4800F0D9FA12
:102FE000322001F075FA0021184800F0D2FA641E70
:102FF000AF2CF1DA4FF47A7001F06AFAB921134874
:1030000000F0C7FA4FF4FA7001F062FA00210F489D
:1030100000F0BFFAB9210D4800F0BDFA4FF4FA7084
:1030200001F056FA0021094800F0B5FAC32107481B
:1030300000F0B1FA4FF4FA7001F04AFA00210348A7
:1030400000F0A9FA012003F075FA10BD002C014030
:1030500010B5002003F06EFAB9240BE0A1B21C48B1
:1030600000F097FA322001F033FAC821184800F036
:1030700090FA641CC32CF1DD4FF47A7001F028FA49
:10308000B921134800F085FA4FF4FA7001F020FAE4
:10309000C8210F4800F07DFAB9210D4800F07BFAF5
:1030A0004FF4FA7001F014FAC821094800F073FADD
:1030B000C321074800F06FFA4FF4FA7001F008FAE4
:1030C000C821034800F067FA012003F033FA10BD6D
:1030D000002C014010B500F001F810BD0CB5002027
:1030E000019000903348006840F480303149086016
:1030F00000BF3048006800F4003000900198401C88
:103100000190009818B90198B0F5A06FF1D1294845
:10311000006800F4003010B10120009001E00020B0
:1031200000900098012843D12348006840F0100027
:10313000214908600846006820F00300086008463E
:10314000006840F0020008601A4840681949486069
:103150000846406848600846406840F4806048601F
:103160000846406820F47C1048600846406840F4F7
:10317000E81048600846006840F08070086000BFB2
:103180000C48006800F000700028F9D00948406839
:1031900020F00300074948600846406840F00200FC
:1031A000486000BF0348406800F00C000828F9D1CF
:1031B0000CBD0000001002400020024070B5044623
:1031C0000020002C06DD2518264E35800025264ED1
:1031D000356007E004F5E1552D1A224E35800125B2
:1031E000214E3560002909DDC1F5E1552D1A1D4E2E
:1031F000361D358001251D4E356007E04D420544E2
:10320000184E361D35800025184E3560002A0ADD1F
:10321000C2F5E1552D1A134E083635800125124EA0
:10322000361D356008E0554205440E4E083635809F
:1032300000250D4E361D3560002B08DD1D18094E8A
:103240000C3635800025094E361D356009E003F542
:10325000E1552D1A034E0C3635800125034E361DDF
:10326000356070BD3434014090012242808121429A
:1032700030B504460025FFF7F1F91F48006840F417
:1032800080301D49086000BF1B480068400C0028C2
:10329000FAD04FF4806018494860A01EC4B20846B6
:1032A000406840EA844048600846406840F4803006
:1032B00048601248006840F03200104908600E482B
:1032C000006840F080700C49086000BF0A48006840
:1032D000400E0028FAD00848406840F00200064935
:1032E000486005E004484068C0F3870505F0030521
:1032F000022DF7D130BD0000001002400020024036
:103300007047000010B51348006840F001001149F3
:10331000086008464068104908400E494860084661
:1033200000680E4908400B4908600846006820F410
:10333000802008600846406820F4FE0048604FF492
:103340001F008860FFF7C6FE4FF000600449086068
:1033500010BD0000001002400000FFF8FFFFF6FE65
:1033600008ED00E04FF08040008A4FF08040008A76
:1033700020F001004FF08041088270470448008827
:103380000348008820F001000149088070470000D0
:1033900010040040044800880348008820F0010021
:1033A0000149088070470000100800400448008868
:1033B0000348008820F001000149088070470000A0
:1033C000100C004021B1028842F08002028004E02B
:1033D00002884FF67F731A40028070470A884B8834
:1033E0001A438B881A43CB881A430B891A434B899B
:1033F0001A438B891A43A0F84420704721B10288F0
:1034000042F00102028004E002884FF6FE731A4087
:103410000280704731B1B0F8442042F40042A0F875
:10342000442005E0B0F84420C2F30E02A0F8442086
:103430007047000070B5002400220023058C4FF671
:10344000FE7635400584028C8388048B4FF68F7599
:103450002C40B51E2C400D882C43751E2A400D892A
:103460002A434D882A43144DA8420BD0134DA8423D
:1034700008D0134DA84205D0124DA84202D0124DDB
:10348000A84213D14FF6F7752A404D892A434FF6CB
:10349000FB752A408D882A434FF6FF652B404FF677
:1034A000FF552B408D892B43CD892B43838004838B
:1034B000CD888586028470BD002C01400034014017
:1034C0000040014000440140004801400A460021FC
:1034D000018B4FF6F77319401143018370470000C9
:1034E00070B5002400220023058C4FF6FF6635409E
:1034F0000584028C8388848B4FF68F752C404FF6A1
:10350000FC752C400D882C434FF6FF552A400D8941
:103510004FF6FF7606EA05252A434D8806EA05257B
:103520002A43154DA84202D0144DA8421DD14FF296
:10353000FF752A404D894FF6FF7606EA05252A4396
:103540004FF6FF352A408D8806EA05252A434EF6B8
:10355000FF752B404DF6FF752B408D8906EA05154A
:103560002B43CD8906EA05152B4383808483CD88C0
:103570008587028470BD0000002C014000340140AA
:103580000A460021818B4FF6F7731940114381835E
:10359000704781867047818770470000002202884B
:1035A0001D4B98420ED01D4B98420BD0B0F1804F6E
:1035B00008D01B4B984205D01A4B984202D01A4BA8
:1035C000984204D14FF68F731A404B881A43174B19
:1035D000984207D0164B984204D04FF6FF431A404A
:1035E000CB881A4302808B8883850B8803850A4B1E
:1035F00098420BD0094B984208D00E4B984205D008
:103600000D4B984202D00D4B984201D10B7A0386A4
:103610000123838270470000002C014000340140E8
:103620000004004000080040000C00400010004072
:1036300000140040004001400044014000480140A7
:10364000014640F25642914215DA012000220B4B0E
:103650001A801B1D1A801B1D1A801B1D1A80084B07
:103660001A60084BC3F88021054B1B1D1A60054BDF
:10367000C3F8842100E0002070470000343401408A
:1036800090012242008021422DE9FF5F9648008888
:1036900000F0200000287DD09348001D0088934949
:1036A0000860084600684B2803D101209049087043
:1036B0000AE08E480068492803D08C4800684A28F0
:1036C00002D100208A4908708A48007800284DD12C
:1036D00087480078D0B985480068412809DB8348CD
:1036E0000068482805DC8148007840388249087025
:1036F0003CE07E480068082804DC7C4800787E496D
:10370000087033E000207C4908702FE0784800788A
:1037100001282BD175480068432806D1002077493D
:1037200008700120764908700FE07048006847284B
:1037300006D101207149087000207149087004E029
:1037400000206E4908706E4908706848006841287A
:1037500003D066480068452805D1644800784038A1
:103760006549087002E00020634908705F480068FE
:103770007B2802D10120634908705C4800687D28DD
:1037800002D102205F4908705E48007801280CD100
:10379000564800E07EE000785B495C4A1278885425
:1037A0005A480078401C5949087056480078022849
:1037B00070D15548C078502803D101205449087071
:1037C00081E05148C078572803D101205149087041
:1037D00079E04D484078232875D04C4800784E4910
:1037E000087034E0494909784B4A1278881AFCF786
:1037F00069FF804642460B460020484903F096F890
:1038000004460D4644490978491E3F4A515CA1F1DE
:103810003000FCF757FF064622462B46FCF763FEB6
:1038200082468B463E480068FCF7B6FF52465B4630
:10383000CDE90001FCF7B0FDCDE90201FCF7BFFFC7
:103840003749086034480078401E334908703248D0
:1038500000780428C6DA2C4840783038092831D25C
:10386000DFE800F0050C13191E23282E2F002C482A
:103870000068FCF745FF2B49086023E028480068F2
:10388000FCF73EFF284908601CE0254800682749EE
:10389000086017E024E0224800682549086011E02C
:1038A0001F480068234908600CE01D480068224951
:1038B000086007E01A4800682049086002E002E05A
:1038C00000E000BF00BF00200E4908700F490870DB
:1038D000114908701249086032210B48FCF77CFC42
:1038E000002004B0BDE8F09F00440040E00000204C
:1038F000940000206E0000200A0000200800002034
:1039000009000020E400002028060020E500002037
:103910008200002083000020E600002000002440F8
:10392000E8000020C4000020C8000020B0000020F3
:10393000B4000020B8000020BC000020C00000201F
:1039400010B52548008800F02000002842D0234808
:10395000007850B922480078401CC0B22049087055
:103960000A2802DD01201D4908701B48001D00883F
:10397000C4B22046FCF7A1FE1A4908601A48007834
:1039800068B91A480078FE2809D119480078FF283C
:1039900005D101201449087000201649087012480A
:1039A000007801280FD1144812490978445411486D
:1039B0000078401C0F49087008460078082802D19A
:1039C000002009490870094800780949087007482B
:1039D000047000BF002010BD00480040800000209F
:1039E000DB0000206800002081000020D9000020BA
:1039F000DA000020D80000207700002010B58AB03F
:103A000018A103C9CDE9040102A806A907AB08AAB9
:103A1000CDE9001009A90020FDF764F900240FE0AA
:103A2000072C04D102A8005D104908700AE002A822
:103A3000005D04A9095D884200D003E0601CC4B2A7
:103A4000072CEDDD00BF40F221110998884207D113
:103A50000648007820B10648029901600399416048
:103A60000AB010BD0A0C0F13181E25007F0000209D
:103A70006F00002000BFFEE71C49096842429142E6
:103A800002DA4142194A116018490968814201DD90
:103A900016490860164909684242914202DA4142D9
:103AA000134A116012490968814201DD104908601A
:103AB000104909684242914202DA41420D4A1160BE
:103AC0000C490968814201DD0A4908600A49096810
:103AD0004242914202DA4142074A116006490968AE
:103AE000814201DD04490860704700004400002065
:103AF000480000204C000020500000200FB4054B6F
:103B000010B503A9044A029800F0AAF810BC5DF8A9
:103B100014FB000079510008DC000020490050EA45
:103B2000C12018BF04204A0D18BF40F0010040F228
:103B3000FF72B2EB515F08BF40F00200012808BFDE
:103B4000052070472DE9F0414F1E00EBC7010446E8
:103B5000D1E9000115461E4637F006020DD02A466F
:103B60003346FCF7C0FC7F1E04EBC703D3E90023F8
:103B7000FCF712FC37F00602F1D1022F25D0042FFA
:103B800013D0062F18BFBDE8F0812A463346FCF754
:103B9000AAFCD4E90A23FCF7FFFB2A463346FCF7CC
:103BA000A2FCD4E90823FCF7F7FB2A463346FCF7CE
:103BB0009AFCD4E90623FCF7EFFB2A463346FCF7D0
:103BC00092FCD4E90423FCF7E7FB2A463346FCF7D2
:103BD0008AFCD4E90223FCF7DFFB2A463346FCF7D4
:103BE00082FCD4E90023BDE8F041FCF7D5BB00001E
:103BF0000022134610460149FCF7E7BC0000F03FE5
:103C00000122FCF719BFFCF7C7BB00221346104680
:103C10001146FCF7DABC40F2013200204FF0E041DF
:103C2000FCF70ABF024A00201107FCF705BF00009D
:103C300001FDFFFF02E008C8121F08C1002AFAD1E7
:103C400070477047002001E001C1121F002AFBD11C
:103C5000704700000149086070470000FC01002027
:103C60002DE9FF4F89B09B460446002506E0252834
:103C70000BD05A460B999047641C6D1C2078002885
:103C8000F5D10DB02846BDE8F08F0027B8460122D7
:103C9000474900E0074314F8013F203B02FA03F0D4
:103CA0000842F7D120782E2819D114F8010F47F0D7
:103CB00004072A280ED06FF02F022078A0F13001DF
:103CC00009290CD808EB880102EB410100EB01083F
:103CD000641CF2E70A98641C50F8048B0A90207860
:103CE0000028CED0642808D0692806D075281ED0B8
:103CF0005A460B9990476D1C58E00A994FF00A09F3
:103D000001C90A91002802DA40422D2102E039055A
:103D100004D52B218DF82010012103E0F90704D0F0
:103D20002021F7E78A4608AE0DE00021FAE70A995C
:103D30004FF00A0901C90A91F7E74946FCF770FDFF
:103D4000303106F8011D0028F7D1ADEB060000F177
:103D50002009780701D44FF00108C84502DDA8EB1F
:103D6000090000E000208046002706E008A85A4627
:103D7000C05D0B9990476D1C7F1C5745F6DB04E036
:103D800030205A460B9990476D1CB8F10001A8F1FC
:103D90000108F5DC05E016F8010B5A460B9990472F
:103DA0006D1CB9F10001A9F10109F4DC641C65E79F
:103DB000092801002DE9FE4F06460F4600256846FA
:103DC00001F0E8F9002442E056F8240057F82410E6
:103DD000A0EB010ABAF1000F01DB514601E0CAF184
:103DE00000010846FCF760FC83464FF08F41FCF76A
:103DF00095FA80465DF824000021FCF7FDFC16D002
:103E00005DF824104046FCF789FA82464FF07E5157
:103E1000FCF74CFA814629F0004A0F48416A5046A7
:103E2000FCF7F4FC12D20120A04005430EE00A4842
:103E3000C1694046FCF7E0FC05D30748016A4046EB
:103E4000FCF7E4FC02D20120A0400543641C032CD3
:103E5000BADB2846BDE8FE8F987500082DE9F04DC5
:103E60008D4F21F0004A86B005460C46BA452ADB44
:103E7000AAEB070028430AD08848824501DC1AD102
:103E8000CDB106B02846BDE8F04DFFF7B9BE844A73
:103E9000844B2846FCF727FB07460E46824A834B95
:103EA00028462146FCF71FFB06B03A463346BDE8DC
:103EB000F04DFCF771BA0120FFF7CCFE06B0BDE86B
:103EC000F04DFFF7A2BE7A48824542DABAF1795F37
:103ED0000BDA2846FFF722FE042808BFFFF7A2FEF0
:103EE000284606B02146BDE8F08D2A460B4610460E
:103EF000FCF7F9FA834602466E480E460B46062149
:103F00007844FFF71FFE5A463346FCF7ECFA80462A
:103F100069488A465A46334604217844FFF712FE20
:103F20005A463346FCF7DFFA00223B46FCF734FAE8
:103F300002460B4640465146FCF747FB2A462346BD
:103F4000FCF7D1FA06B02A462346BDE8F04DFCF74F
:103F500023BA284624F0004100223D463B46FCF7A8
:103F6000BFFA4FF0FF32FCF767FD064602465348A2
:103F70000F460B4606217844FFF7E4FD32463B46E8
:103F8000FCF7B1FACDE900014D4832463B46042129
:103F90007844FFF7D7FD32463B46FCF7A4FA0022EF
:103FA0002B46FCF7F9F9834602913046394603F077
:103FB0003FFA804643480D46504517DCDDE90001D5
:103FC0005A46029BFCF701FB42462B46FCF78BFA54
:103FD00042462B46FCF7E0F90122FCF72DFD304A62
:103FE000304BFCF77AFA304A304B4CE04FF0000A85
:103FF00052460B464046FCF7CFF9CDE90310524636
:104000002B4610461946FCF76EFA32463B46FCF743
:1040100067FADDE90332FCF7D8FA06460F46DDE918
:1040200000015A46029BFCF7D0FA83460091012218
:1040300030463946FCF700FD194A1A4BFCF750FA96
:1040400006460F46012240462946FCF7F5FC5A4633
:10405000009BFCF748FA32463B46FCF73EFA064620
:104060000F46012250462946FCF7E6FC0E4DDFF8CC
:1040700058802A464346FCF733FA32463B46FCF763
:104080002FFA2A464346FCF72BFA002CD8BF81F0C2
:10409000004106B0BDE8F08D0000F03F0000F07F69
:1040A000075C143326A6913C182D4454FB21F93F9C
:1040B0000000E03FB4420000CA4200003E4200005F
:1040C000544200003333EF3FFB21E93F2DE9F84F25
:1040D00004460D4621F0004000917349814211DCF5
:1040E0007249884201DC06D12CB120462946BDE840
:1040F000F84FFFF785BD6E48002DCCBF6D496E4966
:10410000BDE8F88F6D49814211DD6D498142D8BF0C
:104110004FF0FF366DDD20462946FFF7FFFC0428EF
:1041200008BFFFF77FFD20462946BDE8F88F6549A7
:10413000654F25F00045814233DD6449814219DD38
:10414000002632464FF0804320462946FCF724F9EA
:1041500080468A46012220462946FCF76DFC002253
:104160003B46FCF7BAF942465346FCF72EFA0446A2
:104170000D463EE001260022BA463B46204629462F
:10418000FCF70AF980460F4600225346204629468E
:10419000FCF7A3F942463B46FCF717FA04460D46E6
:1041A00027E04B4981421BDDDFF828A102260022CF
:1041B000534620462946FCF796F900223B46FCF779
:1041C000EBF880460F460022534620462946FCF76E
:1041D00084F942463B46FCF7F8F904460D4608E0F0
:1041E000032622462B4600203B49FCF7EEF9044605
:1041F0000D4622462B4610461946FCF774F98B46AD
:10420000824602460B46FCF76EF9074602463348E3
:1042100088460B4606217844FFF794FC52465B46DD
:10422000FCF761F982462E488B463A464346052103
:104230007844FFF787FC3A464346FCF754F90246B8
:104240000B46002E504659460CDAFCF7A5F82246DC
:104250002B46FCF748F901B022462B46BDE8F04F4B
:10426000FCF73EB9FCF798F822462B46FCF73BF9E1
:104270001C4A7A4402EBC603D3E90023FCF72DF96C
:1042800022462B46FCF729F9174A7A4402EBC6036B
:10429000D3E90023FCF724F9009A002AB8BF81F083
:1042A0000041BDE8F88F0000000010440000F07FDE
:1042B000182D4454FB21F93FFB21F9BF0000DC3FDE
:1042C0000000203E0000F33F0000F03F0000E63F0A
:1042D000008003400000F83F0000F0BFDE40000017
:1042E0009C4000003A400000024000002DE9F04DE3
:1042F0009446CCF1000423F000464CEA0404524FEB
:1043000046EAD4749A46884621F00042BC4206D858
:10431000454240EA050442EAD474BC4204D9BDE8EF
:10432000F04D6246FFF76FBCAAF14055A5F17F65DD
:1043300055EA0C040BD0022404EAAA74434DDFF8BA
:1043400010E144EAD87452EA000B04D00CE0BDE856
:10435000F04DFFF7BBBE002C14BF012CBDE8F08D63
:10436000022C30D0032C32D056EA0C0B0AD0BE42BD
:1043700020D1BA4209D126F0804622F0804233464D
:10438000114617E000291ADB25E0DFF8C8B0FB442E
:10439000002C04BFDBE90001BDE8F08D012C02BF59
:1043A000DBE9000181F00041BDE8F08D022C0AD06C
:1043B000032C0CD0BA4212D1B8F1000F0BDA23480B
:1043C0002549BDE8F08D28462449BDE8F08D2846F2
:1043D0007146BDE8F08D1D482149BDE8F08D921B66
:1043E00012153C2AC4BF19481D490EDCBAF1000F52
:1043F000BEBF12F13C0F0020014606DB6246FCF70F
:10440000E4F821F00041FFF761FE002C08BFBDE891
:10441000F08D012C04BF81F00041BDE8F08D114A00
:10442000114B022C07D0FCF758F82A46BDE8F04D96
:104430000A4BFCF752B8FCF750F82A46BDE8F04D9D
:10444000064BFCF74DB800000000F07F182D4454D7
:10445000FB2109C0963F0000FB21F9BFFB21094069
:10446000FB21F93F075C143326A6A13C2DE9F0415E
:104470000446E07800F0C006E07800F03F05607880
:1044800000F0010098B1EF102846E91705EB5171D3
:10449000C910A5EBC101491C01F0FF080B480068D9
:1044A00020B10A48414602683846904700BF60780C
:1044B00000F0080030B10548406818B1B011034A57
:1044C000516888470020BDE8F08100005C060020AC
:1044D00001460D4A12884A434FF0E0235A610022F8
:1044E0009A6101221A6100BF4FF0E022106900F0CA
:1044F00001021AB100F48032002AF5D000224FF0F8
:10450000E0231A619A617047D20000204FF0E02149
:10451000096921F004014FF0E0221161C21700EB9C
:104520005272C2F3C702074B1A701946097801EBA1
:104530004102C2EBC1114FF6FF7202EAC101024A09
:1045400011807047D0000020D200002001460D4AA3
:1045500012884A434FF0E0235A6100229A610122F7
:104560001A6100BF4FF0E022106900F001021AB199
:1045700000F48032002AF5D000224FF0E0231A61C7
:104580009A617047D200002001460D4A12784A43D2
:104590004FF0E0235A6100229A6101221A6100BFA4
:1045A0004FF0E022106900F001021AB100F48032ED
:1045B000002AF5D000224FF0E0231A619A6170477B
:1045C000D000002038B5044664B120208DF80000EA
:1045D00028208DF8010030208DF8020038208DF859
:1045E000030004E0A32204216846FBF7EEFD6A46BF
:1045F000042140F69E2002F057F901F047FD38BD36
:104600003EB5044602208DF80000CA208DF8010056
:10461000E3208DF8020009208DF803006A4604218A
:10462000682002F041F9A3208DF8000004F040005A
:1046300048B1C0208DF80100C8208DF80200C220CA
:104640008DF8030006E0A3208DF801008DF802002C
:104650008DF8030004F4C07048B1C4208DF8040044
:10466000CC208DF80500C6208DF8060006E0A320BA
:104670008DF804008DF805008DF80600A3208DF854
:1046800007008DF808008DF809006A460A2140F6F7
:10469000A72002F009F904F0030018B120208DF8DA
:1046A000000002E0D8208DF800006A46012140F6A3
:1046B000B62002F0F9F804F0200018B1012000F053
:1046C000ADF802E0002000F0A9F804F4C07008B3CF
:1046D00004F4807060B1B2208DF800008B208DF85A
:1046E0000100B6208DF802009B208DF803000BE03E
:1046F000B0208DF8000080208DF80100B4208DF8E6
:10470000020090208DF803006A46042140F6A220A2
:1047100002F0CAF804F0010020B3F8208DF8000080
:104720006A4601214FF40B6002F0BEF8FA2107201F
:1047300000F02CFC072000F0F3FB012000F013FC3C
:10474000642000F0F3FC4FF4FA7000F002FDC82181
:10475000304800F0A3FB282000F0BCFB0A2000F04A
:10476000CCFB08E0D8208DF800006A4601214FF408
:104770000B6002F099F804F0020018B1D9208DF80E
:10478000000002E0D8208DF800006A46012140F2C6
:104790003D7002F089F804F0040018B1012000F027
:1047A00069F802E0002000F065F804F0100018B18C
:1047B0000120FFF707FF02E00020FFF703FF44F0AE
:1047C00008001549488101F061FC002012498873F6
:1047D00004F0400018B10846807B801D887304F403
:1047E000C07020B10C48807B801D0B49887304F099
:1047F000140020B10848807B10300749887304F00A
:10480000030020B10448807B001D03498873002009
:104810003EBD000009E3CA025C0600203EB5044626
:104820006CB10EA1D1E900208968CDE90020029188
:104830006A4609214FF4976002F036F83EBD0AA29D
:10484000D2E900109268CDE9010200916A4609217F
:104850004FF4976002F028F8F0E70000B8AAB38D93
:10486000B4980D355D000000B8AAAAAAB088C3C5E7
:10487000C700000038B5044664B1C0208DF80000C0
:10488000C2208DF80100C4208DF80200C6208DF8EA
:10489000030004E08B2204216846FBF796FC6A467D
:1048A000042140F6982001F0FFFF01F0EFFB38BD36
:1048B00010B5C8234FF48062024940F6F63001F08B
:1048C00079FA10BDC07500082DE9F04F8DB007468C
:1048D000884615469946DDE9166B00240020308095
:1048E0006B49887B5A4605A901F030FB18B1601E60
:1048F0000DB0BDE8F08F6648807A00F01400002803
:1049000067D09DF8140000069DF8151040EA01409C
:104910009DF8161040EA01209DF817100843286002
:104920009DF8180000069DF8191040EA01409DF816
:104930001A1040EA01209DF81B10084368609DF89A
:104940001C0000069DF81D1040EA01409DF81E1055
:1049500040EA01209DF81F100843A8609DF8200040
:1049600000069DF8211040EA01409DF8221040EA1F
:1049700001209DF823100843E86004F11000C4B240
:10498000286800140190686800140290A868001458
:104990000390E8680014049001984043029901FBD9
:1049A0000100039901FB0100049901FB010ABAF11E
:1049B000706F02DBBAF1885F05DD01F067FB002054
:1049C0003080401E94E7B6F9000040F480703080DB
:1049D00000BF2F48807A00F0400020B305A9601C7A
:1049E000085C095D40EA012000B2A8F8000005A9B2
:1049F000E01C095C05AAA01C105C41EA002000B282
:104A0000A8F8020005A9601D095C201D105C41EAA0
:104A1000002000B2A8F80400A01DC4B2B6F900003E
:104A200040F0080030801A48408900F4C07008B394
:104A300005A9601C085C095D40EA012000B23880CD
:104A400005A9E01C095C05AAA01C105C41EA002035
:104A500000B2788005A9601D095C201D105C41EA48
:104A6000002000B2B880A01DC4B2B6F9000040F02A
:104A7000700030800648807A00F0030018B105A964
:104A80000819FFF7F3FC484601F04EFF00202FE71E
:104A90005C06002070B588B0064601A800F0DEFF75
:104AA000BDF804000021C90341EA5045C40344484D
:104AB000007A00F0030056F8200005904048007A84
:104AC00000F0040010B10598404205903C48007A7F
:104AD000C0F3C10056F8200006903948007A00F073
:104AE000200010B10698404206903548007AC0F385
:104AF000811056F8200007903148008900F480703A
:104B000010B10798404207900598C117A0FB0423F5
:104B100001FB043100FB0510810041EA9270059011
:104B20000698C117A0FB042301FB043100FB05100C
:104B3000810041EA927006900798C117A0FB0423F8
:104B400001FB043100FB0510810041EA92700790DF
:104B50000598000E8DF808000598000C8DF80900E6
:104B60000598000A8DF80A000598C0B28DF80B0070
:104B70000698000E8DF80C000698000C8DF80D00BC
:104B80000698000A8DF80E000698C0B28DF80F0046
:104B90000798000E8DF810000798000C8DF8110092
:104BA0000798000A8DF812000798C0B28DF813001C
:104BB00002AA0C214FF4257001F076FE08B070BDFA
:104BC0005C06002030B585B0044616A207CA02ABC9
:104BD00007C3C82C03DD4FF0FF3005B030BDC8203F
:104BE00090FBF4F0401E85B2280A8DF80000E8B270
:104BF0008DF801006A46022140F2162001F054FEB1
:104C000010B14FF0FF30E8E702AA0C2140F6C120B6
:104C100001F04AFE10B14FF0FF30DEE70448848116
:104C20000020DAE7FEF2ABC4AAF1DFDFBBAFDFDFC3
:104C30005C0600201FB504464848007A00F00300D7
:104C400054F8200001904548007A00F0040010B1AB
:104C50000198404201904148007AC0F3C10054F8E5
:104C6000200002903D48007A00F0200010B1029828
:104C7000404202903948007AC0F3811054F8200075
:104C800003903648008900F4807010B103984042C8
:104C900003903349019880FB0101800F40EA8100B5
:104CA00001902F49029880FB0110820042EA917026
:104CB00002902B49039880FB0110820042EA917018
:104CC00003900198000E8DF800000198000C8DF8FB
:104CD00001000198000A8DF802000198C0B28DF819
:104CE00003006A4604214FF4747001F0DDFD18B131
:104CF0004FF0FF3004B010BD0298000E8DF8000098
:104D00000298000C8DF801000298000A8DF802004C
:104D10000298C0B28DF803006A4604214FF4757002
:104D200001F0C2FD10B14FF0FF30E3E70398000E31
:104D30008DF800000398000C8DF801000398000A1C
:104D40008DF802000398C0B28DF803006A46042172
:104D50004FF4767001F0A8FDCCE700005C0600205F
:104D600009E3CA0210B586B0044647A00068039064
:104D700046A00068029046A00068019045A0006827
:104D8000009004F0030003A9085C8DF8140003A848
:104D9000C4F3C101405C8DF8150003A8C4F3811170
:104DA000405C8DF8160004F0030002A9085C8DF841
:104DB000100002A8C4F3C101405C8DF8110002A8E4
:104DC000C4F38111405C8DF8120005AA032140F262
:104DD000264001F069FD18B14FF0FF3006B010BD5C
:104DE00004AA032140F22A4001F05EFD10B14FF009
:104DF000FF30F3E7019805900098049004F0040058
:104E000058B19DF8140040F001008DF814009DF891
:104E1000100040F001008DF8100004F0200058B19F
:104E20009DF8150040F001008DF815009DF8110067
:104E300040F001008DF8110004F4807058B19DF825
:104E4000160040F001008DF816009DF8120040F0A9
:104E500001008DF8120005AA03214FF4886001F0CB
:104E600023FD10B14FF0FF30B8E704AA032140F250
:104E7000314001F019FD10B14FF0FF30AEE70648A8
:104E800004810020AAE700004CCD6C000CC92C0066
:104E900036567600264666005C060020F8B50546C4
:104EA0000E464FF47A7095FBF0F000FB06F4200EEE
:104EB0008DF80000200C8DF80100200A8DF802000A
:104EC000E0B28DF803006A4604214FF4AE7001F0A1
:104ED000EBFCF8BD38B50446052094FBF0F084B235
:104EE00020128DF80000E0B28DF801006A46022120
:104EF0004FF4AD7001F0D8FC38BD38B5044605203C
:104F000094FBF0F084B220128DF80000E0B28DF82E
:104F100001006A4602214FF4AC7001F0C5FC38BDB7
:104F200038B504460020009004F0010020B19DF83F
:104F3000000040F03000009004F0020020B19DF825
:104F4000000040F00C00009004F0040020B19DF837
:104F5000000040F0030000906A4601214FF4A47065
:104F600001F0A2FC38BD38B50446012C01DA012459
:104F700002E0042C00DD0424601EC0B200906A46EA
:104F8000012140F24F1001F08FFC38BD2DE9FC47A4
:104F900006460F4606F0070010B1B7F5C86F03DDEF
:104FA0004FF0FF30BDE8FC873846FBF786FB8146B3
:104FB0005949FBF7B3F98046684600F029FD9DF892
:104FC0000000022806D0042816D0082826D0102871
:104FD00048D135E04FF08D414046FBF76DF98146F1
:104FE000FBF7A7FB84B24D494046FBF765F98146C4
:104FF000FBF79FFB85B238E04FF08C414046FBF752
:105000005BF98146FBF795FB84B245494046FBF7C7
:1050100053F98146FBF78DFB85B226E04FF08B41BB
:105020004046FBF749F98146FBF783FB84B23D49D3
:105030004046FBF741F98146FBF77BFB85B214E064
:105040004FF08A414046FBF737F98146FBF771FB89
:1050500084B235494046FBF72FF98146FBF769FBDF
:1050600085B202E04FF0FF309CE700BF20128DF8C0
:105070000400E0B28DF8050028128DF80600E8B2B1
:105080008DF8070006F00100A0B101AA02214FF43B
:10509000EA7001F009FC10B14FF0FF3082E70DF12A
:1050A000060202214FF4927001F0FEFB10B14FF0A6
:1050B000FF3077E706F00200A0B101AA02214FF409
:1050C000EC7001F0F1FB10B14FF0FF306AE70DF129
:1050D000060202214FF4947001F0E6FB10B14FF08C
:1050E000FF305FE706F00400A0B101AA02214FF4EF
:1050F000EE7001F0D9FB10B14FF0FF3052E70DF127
:10510000060202214FF4967001F0CEFB10B14FF071
:10511000FF3047E7002045E70000484300004046D5
:105120000000C045000040450000C04438B50446BA
:10513000052094FBF0F085B228128DF80000E8B24B
:105140008DF801006A4602214FF4EF7001F0ACFBCC
:1051500038BD38B50446052094FBF0F085B228121E
:105160008DF80000E8B28DF801006A4602214FF484
:10517000ED7001F099FB38BD00BF054A128802F0BE
:105180004002002AF9D0C2B2014B1B1D1A807047A1
:10519000004400407CB5054628494968087801ABC1
:1051A00004220D2100F010FB08B107207CBD9DF802
:1051B0000700C0F301109DF8041001F0E00140EA7F
:1051C000E1008DF800009DF80700C0F381009DF814
:1051D000051001F0E00140EAE1008DF801009DF8C2
:1051E000070000F003009DF8061001F0E00140EA1E
:1051F000E1008DF8020000241CE01DF8040018B93D
:10520000002045F8240013E00D4845F8240006E08E
:1052100055F824000B49FBF74FF845F824001DF81A
:105220000400401EC0B20DF804000028F0D100BFF9
:10523000601CC4B2032CE0DB0020B7E72001002093
:105240007B14AE3E1D5A843F2DE9F04F87B00546D2
:105250000C46914601208DF8100000208DF81100B9
:10526000FE4A1268917CFD4A5268107804AB022213
:1052700000F0E5FA20B14FF0FF3007B0BDE8F08F45
:10528000C820FFF763F900208DF81000F34A126878
:10529000D17BF24A5268107804AB012200F0CFFAB9
:1052A00010B14FF0FF30E8E7EC4A12685179EB4A51
:1052B0005268107804AB012200F0C1FA10B14FF02F
:1052C000FF30DAE7E54A1268917CE44A52681078C8
:1052D00004AB012200F0B3FA10B14FF0FF30CCE77D
:1052E000DE4A1268D17DDD4A5268107804AB012293
:1052F00000F0A5FA10B14FF0FF30BEE7D74A1268B0
:105300001179D64A5268107804AB012200F097FA5E
:1053100010B14FF0FF30B0E70C208DF81000CF4AED
:1053200012681179CD4A5268107804AB012200F05E
:1053300086FA10B14FF0FF309FE70F20FFF706F914
:10534000C648806A407A8DF81000C44A1268917885
:10535000C24A5268107804AB012200F070FA10B112
:105360004FF0FF3089E7BD48806A007A8DF8100061
:10537000BA4A12685178B94A5268107804AB0122CF
:1053800000F05DFA10B14FF0FF3076E7B9F1000F91
:1053900007D0B248806A807A40F0E0008DF81000B3
:1053A00004E0AE48806A807A8DF81000AB4A12683B
:1053B0009179AA4A5268107804AB012200F03FFAB2
:1053C00010B14FF0FF3058E7B9F1000F07D0A348F4
:1053D000806AC07A40F0E0008DF8100003E0A04839
:1053E000C07A8DF810009D4A1268D1799B4A5268A4
:1053F000107804AB012200F022FA10B14FF0FF3018
:105400003BE7B9F1000F02D0C820FFF79FF840201A
:105410008DF81000914A12681179904A52681078FC
:1054200004AB012200F00BFA10B14FF0FF3024E77B
:1054300078208DF81000894A12685179874A52689D
:10544000107804AB012200F0FAF910B14FF0FF30F0
:1054500013E783498889FFF779F800208DF8100059
:105460007E4A126851797D4A5268107804AB012255
:1054700000F0E5F910B14FF0FF30FEE6774A126810
:10548000917A764A5268107804AB022200F09CF9B7
:1054900010B14FF0FF30F0E69DF811009DF81010AC
:1054A00040EA012B0C209BFBF0F0C6B20020A86064
:1054B00068602860A06060602060824665E0674A9E
:1054C0001268D17A654A5268107804AB0C2200F059
:1054D0007BF910B14FF0FF30CFE69DF811009DF839
:1054E000101040EA012000B2ADF808009DF813004A
:1054F0009DF8121040EA012000B2ADF80A009DF8B4
:1055000015009DF8141040EA012000B2ADF80C001F
:10551000BDF90810206808442060BDF90A106068D1
:1055200008446060BDF90C10A0680844A0609DF8B4
:1055300017009DF8161040EA012000B2ADF80000F7
:105540009DF819009DF8181040EA012000B2ADF84E
:1055500002009DF81B009DF81A1040EA012000B2DD
:10556000ADF80400BDF90010286808442860BDF9B2
:105570000210686808446860BDF90410A86808440F
:10558000A8600AF1010000F0FF0AB24597DB344839
:10559000D0F800C02868C117090441EA1041070487
:1055A000624600233846FAF7DFFD32460023CDE994
:1055B0000201FAF7D9FD28602948D0F800C06868D0
:1055C000C117090441EA1041070462460023384626
:1055D000FAF7CAFD32460023CDE90201FAF7C4FD0D
:1055E00068601F48D0F800C0A868C117090441EAE4
:1055F00010410704624600233846FAF7B5FD3246EB
:105600000023CDE90201FAF7AFFDA8601448D0F8F5
:1056100004C02168C817000440EA11480F0462461C
:10562000002338464146FAF79FFD32460023CDE974
:105630000201FAF799FD20600948D0F804C06068BB
:10564000C117090441EA10410704624600233846A5
:10565000FAF78AFD3246002304E000002001002012
:1056600098750008CDE90201FAF77EFD60601148E7
:10567000D0F804C0A068C117090441EA104107042A
:10568000624600233846FAF76FFD32460023CDE923
:105690000201FAF769FDA060A068002804DDA06897
:1056A000A0F58030A06003E0A06800F58030A06025
:1056B0000020E2E5987500082DE9FC5F06460F46DC
:1056C00000253D494968087801AB03220D2100F00F
:1056D0007BF810B10720BDE8FC9F9DF8040000F0A6
:1056E0001F008DF804009DF8050000F01F008DF8E4
:1056F00005009DF8060000F01F008DF8060000244C
:1057000056E056F8240057F82410A0EB010BBBF12B
:10571000000F01DB594601E0CBF100010846FAF722
:10572000C3FF4FF08F410090FAF7F8FD814601A8C2
:10573000005D68B321490868FAF7BFFF8346594600
:105740001F48FAF7EBFD804604E01E494046FAF791
:10575000B3FD804601A8005D401EC0B201A90855F6
:105760000028F2D141464846FAF7D8FD83464FF06B
:105770007E51FAF79BFD82462AF0004B0F48816963
:105780005846FBF743F812D20120A04005430EE033
:105790000A4801694846FBF72FF805D307484169D5
:1057A0004846FBF733F802D20120A0400543641CB1
:1057B000032CA6DB28468EE7200100209875000800
:1057C00000B04C4554E3853F2DE9F04106460F46B5
:1057D00014461D46FCF7AAFB10B90120BDE8F08174
:1057E0007106080EFCF770FBFCF7F8FB18B9FCF724
:1057F000D1FB0120F2E73846FCF766FBFCF7EEFB35
:10580000FCF794FB012101EB4601C8B2FCF75CFBFD
:10581000FCF7E4FB0DE0012C04D10020FCF71CFB9D
:10582000287003E00120FCF717FB28706D1C601E38
:10583000C4B2002CEFD1FCF7ADFB0020CEE72DE980
:10584000F04105460E4617469846FCF76FFB10B927
:105850000120BDE8F0816906080EFCF735FBFCF776
:10586000BDFB18B9FCF796FB0120F2E73046FCF7C8
:105870002BFBFCF7B3FB00240BE018F80400FCF74B
:1058800023FBFCF7ABFB18B9FCF784FB0020E0E737
:10589000641CBC42F1DBFCF77DFB0020D9E770B54E
:1058A0000546284600F00FF80446E81C00F00BF807
:1058B00044EAC00084B2A81D00F005F844EA801054
:1058C00084B2204670BD014691F90020002A01DD16
:1058D00000201EE091F90020002A01DA042018E0DF
:1058E00091F90120002A01DD012012E091F9012047
:1058F000002A01DA05200CE091F90220002A01DDDE
:10590000022006E091F90220002A01DA062000E0D8
:10591000072070470920FDF7ABFC4820FEF7F6FD95
:10592000FDF7CAFA0220FCF773FD0120FCF770FDB9
:10593000FCF70CFEFCF784FDFDF72AF84FF4165136
:10594000242001F09BFDFBF76BFEFBF7E1FEFBF76C
:105950004DFFFBF7B9FFFBF72DF9FCF741FAFCF718
:105960002FFEFBF735FB002141F61F40FCF72EFF11
:105970000948006808B9FCF765F8FBF727FEFBF754
:1059800031FCFBF7E7FDFBF70DFB00200349087036
:105990000120487000BFFEE738812142000000204E
:1059A00070B50446002624F00104184890F824003D
:1059B00008B1002070BD1548807A10B94FF0FF3053
:1059C000F8E71248057C807A2040104908740846A0
:1059D000007CA04202D04FF0FF3600E0002614B950
:1059E0000A48007D18B1012001F0DAFC02E0002035
:1059F00001F0D6FC3CB100F049FB20B1034805742E
:105A00004FF0FF30D6E73046D4E7000020010020F9
:105A100001461148407A30B1012807D0022808D049
:105A200003280CD108E0022008700BE00420087065
:105A300008E00820087005E01020087002E04FF030
:105A4000FF30704700BF0448C07C18B1087840069A
:105A5000000E08700020F4E72001002001461348E2
:105A6000407A30B1012808D002280AD0032810D18A
:105A70000BE04FF4804008800EE041F69C700880F7
:105A80000AE04FF48050088006E04FF40060088080
:105A900002E04FF0FF30704700BF0448C07C10B1F7
:105AA0000888401008800020F5E700002001002051
:105AB00001460248007C0870002070472001002049
:105AC00001460F48007A30B1012807D0022809D0DA
:105AD00003280FD10AE0FA2008800EE04FF4FA7094
